{
  "contractName": "UniswapV3Factory",
  "abi": [
    {
      "inputs": [],
      "stateMutability": "nonpayable",
      "type": "constructor"
    },
    {
      "anonymous": false,
      "inputs": [
        {
          "indexed": true,
          "internalType": "uint24",
          "name": "fee",
          "type": "uint24"
        },
        {
          "indexed": true,
          "internalType": "int24",
          "name": "tickSpacing",
          "type": "int24"
        }
      ],
      "name": "FeeAmountEnabled",
      "type": "event"
    },
    {
      "anonymous": false,
      "inputs": [
        {
          "indexed": true,
          "internalType": "address",
          "name": "oldOwner",
          "type": "address"
        },
        {
          "indexed": true,
          "internalType": "address",
          "name": "newOwner",
          "type": "address"
        }
      ],
      "name": "OwnerChanged",
      "type": "event"
    },
    {
      "anonymous": false,
      "inputs": [
        {
          "indexed": true,
          "internalType": "address",
          "name": "token0",
          "type": "address"
        },
        {
          "indexed": true,
          "internalType": "address",
          "name": "token1",
          "type": "address"
        },
        {
          "indexed": true,
          "internalType": "uint24",
          "name": "fee",
          "type": "uint24"
        },
        {
          "indexed": false,
          "internalType": "int24",
          "name": "tickSpacing",
          "type": "int24"
        },
        {
          "indexed": false,
          "internalType": "address",
          "name": "pool",
          "type": "address"
        }
      ],
      "name": "PoolCreated",
      "type": "event"
    },
    {
      "inputs": [
        {
          "internalType": "uint24",
          "name": "",
          "type": "uint24"
        }
      ],
      "name": "feeAmountTickSpacing",
      "outputs": [
        {
          "internalType": "int24",
          "name": "",
          "type": "int24"
        }
      ],
      "stateMutability": "view",
      "type": "function"
    },
    {
      "inputs": [
        {
          "internalType": "address",
          "name": "",
          "type": "address"
        },
        {
          "internalType": "address",
          "name": "",
          "type": "address"
        },
        {
          "internalType": "uint24",
          "name": "",
          "type": "uint24"
        }
      ],
      "name": "getPool",
      "outputs": [
        {
          "internalType": "address",
          "name": "",
          "type": "address"
        }
      ],
      "stateMutability": "view",
      "type": "function"
    },
    {
      "inputs": [],
      "name": "owner",
      "outputs": [
        {
          "internalType": "address",
          "name": "",
          "type": "address"
        }
      ],
      "stateMutability": "view",
      "type": "function"
    },
    {
      "inputs": [],
      "name": "parameters",
      "outputs": [
        {
          "internalType": "address",
          "name": "factory",
          "type": "address"
        },
        {
          "internalType": "address",
          "name": "token0",
          "type": "address"
        },
        {
          "internalType": "address",
          "name": "token1",
          "type": "address"
        },
        {
          "internalType": "uint24",
          "name": "fee",
          "type": "uint24"
        },
        {
          "internalType": "int24",
          "name": "tickSpacing",
          "type": "int24"
        }
      ],
      "stateMutability": "view",
      "type": "function"
    },
    {
      "inputs": [
        {
          "internalType": "address",
          "name": "tokenA",
          "type": "address"
        },
        {
          "internalType": "address",
          "name": "tokenB",
          "type": "address"
        },
        {
          "internalType": "uint24",
          "name": "fee",
          "type": "uint24"
        }
      ],
      "name": "createPool",
      "outputs": [
        {
          "internalType": "address",
          "name": "pool",
          "type": "address"
        }
      ],
      "stateMutability": "nonpayable",
      "type": "function"
    },
    {
      "inputs": [
        {
          "internalType": "address",
          "name": "_owner",
          "type": "address"
        }
      ],
      "name": "setOwner",
      "outputs": [],
      "stateMutability": "nonpayable",
      "type": "function"
    },
    {
      "inputs": [
        {
          "internalType": "uint24",
          "name": "fee",
          "type": "uint24"
        },
        {
          "internalType": "int24",
          "name": "tickSpacing",
          "type": "int24"
        }
      ],
      "name": "enableFeeAmount",
      "outputs": [],
      "stateMutability": "nonpayable",
      "type": "function"
    }
  ],
  "bytecode": "0x60a060405234801561001057600080fd5b503073ffffffffffffffffffffffffffffffffffffffff1660808173ffffffffffffffffffffffffffffffffffffffff1660601b8152505033600360006101000a81548173ffffffffffffffffffffffffffffffffffffffff021916908373ffffffffffffffffffffffffffffffffffffffff1602179055503373ffffffffffffffffffffffffffffffffffffffff16600073ffffffffffffffffffffffffffffffffffffffff167fb532073b38c83145e3e5135377a08bf9aab55bc0fd7c1179cd4fb995d2a5159c60405160405180910390a3600a600460006101f462ffffff16815260200190815260200160002060006101000a81548162ffffff021916908360020b62ffffff160217905550600a6101f47fc66a3fdf07232cdd185febcc6579d408c241b47ae2f9907d84be655141eeaecc60405160405180910390a3603c60046000610bb862ffffff16815260200190815260200160002060006101000a81548162ffffff021916908360020b62ffffff160217905550603c610bb87fc66a3fdf07232cdd185febcc6579d408c241b47ae2f9907d84be655141eeaecc60405160405180910390a360c86004600061271062ffffff16815260200190815260200160002060006101000a81548162ffffff021916908360020b62ffffff16021790555060c86127107fc66a3fdf07232cdd185febcc6579d408c241b47ae2f9907d84be655141eeaecc60405160405180910390a360805160601c61977661024560003980610b1452506197766000f3fe608060405234801561001057600080fd5b506004361061007d5760003560e01c8063890357301161005b57806389035730146101ad5780638a7c195f146102315780638da5cb5b14610271578063a1671295146102a55761007d565b806313af4035146100825780631698ee82146100c657806322afcccb14610163575b600080fd5b6100c46004803603602081101561009857600080fd5b81019080803573ffffffffffffffffffffffffffffffffffffffff169060200190929190505050610342565b005b610137600480360360608110156100dc57600080fd5b81019080803573ffffffffffffffffffffffffffffffffffffffff169060200190929190803573ffffffffffffffffffffffffffffffffffffffff169060200190929190803562ffffff16906020019092919050505061045c565b604051808273ffffffffffffffffffffffffffffffffffffffff16815260200191505060405180910390f35b6101946004803603602081101561017957600080fd5b81019080803562ffffff1690602001909291905050506104ab565b604051808260020b815260200191505060405180910390f35b6101b56104cb565b604051808673ffffffffffffffffffffffffffffffffffffffff1681526020018573ffffffffffffffffffffffffffffffffffffffff1681526020018473ffffffffffffffffffffffffffffffffffffffff1681526020018362ffffff1681526020018260020b81526020019550505050505060405180910390f35b61026f6004803603604081101561024757600080fd5b81019080803562ffffff169060200190929190803560020b906020019092919050505061056b565b005b6102796106aa565b604051808273ffffffffffffffffffffffffffffffffffffffff16815260200191505060405180910390f35b610316600480360360608110156102bb57600080fd5b81019080803573ffffffffffffffffffffffffffffffffffffffff169060200190929190803573ffffffffffffffffffffffffffffffffffffffff169060200190929190803562ffffff1690602001909291905050506106d0565b604051808273ffffffffffffffffffffffffffffffffffffffff16815260200191505060405180910390f35b600360009054906101000a900473ffffffffffffffffffffffffffffffffffffffff1673ffffffffffffffffffffffffffffffffffffffff163373ffffffffffffffffffffffffffffffffffffffff161461039c57600080fd5b8073ffffffffffffffffffffffffffffffffffffffff16600360009054906101000a900473ffffffffffffffffffffffffffffffffffffffff1673ffffffffffffffffffffffffffffffffffffffff167fb532073b38c83145e3e5135377a08bf9aab55bc0fd7c1179cd4fb995d2a5159c60405160405180910390a380600360006101000a81548173ffffffffffffffffffffffffffffffffffffffff021916908373ffffffffffffffffffffffffffffffffffffffff16021790555050565b6005602052826000526040600020602052816000526040600020602052806000526040600020600092509250509054906101000a900473ffffffffffffffffffffffffffffffffffffffff1681565b60046020528060005260406000206000915054906101000a900460020b81565b60008060000160009054906101000a900473ffffffffffffffffffffffffffffffffffffffff16908060010160009054906101000a900473ffffffffffffffffffffffffffffffffffffffff16908060020160009054906101000a900473ffffffffffffffffffffffffffffffffffffffff16908060020160149054906101000a900462ffffff16908060020160179054906101000a900460020b905085565b600360009054906101000a900473ffffffffffffffffffffffffffffffffffffffff1673ffffffffffffffffffffffffffffffffffffffff163373ffffffffffffffffffffffffffffffffffffffff16146105c557600080fd5b620f42408262ffffff16106105d957600080fd5b60008160020b1380156105f057506140008160020b125b6105f957600080fd5b6000600460008462ffffff1662ffffff16815260200190815260200160002060009054906101000a900460020b60020b1461063357600080fd5b80600460008462ffffff1662ffffff16815260200190815260200160002060006101000a81548162ffffff021916908360020b62ffffff1602179055508060020b8262ffffff167fc66a3fdf07232cdd185febcc6579d408c241b47ae2f9907d84be655141eeaecc60405160405180910390a35050565b600360009054906101000a900473ffffffffffffffffffffffffffffffffffffffff1681565b60006106da610b12565b8273ffffffffffffffffffffffffffffffffffffffff168473ffffffffffffffffffffffffffffffffffffffff16141561071357600080fd5b6000808473ffffffffffffffffffffffffffffffffffffffff168673ffffffffffffffffffffffffffffffffffffffff1610610750578486610753565b85855b91509150600073ffffffffffffffffffffffffffffffffffffffff168273ffffffffffffffffffffffffffffffffffffffff16141561079157600080fd5b6000600460008662ffffff1662ffffff16815260200190815260200160002060009054906101000a900460020b905060008160020b14156107d157600080fd5b600073ffffffffffffffffffffffffffffffffffffffff16600560008573ffffffffffffffffffffffffffffffffffffffff1673ffffffffffffffffffffffffffffffffffffffff16815260200190815260200160002060008473ffffffffffffffffffffffffffffffffffffffff1673ffffffffffffffffffffffffffffffffffffffff16815260200190815260200160002060008762ffffff1662ffffff16815260200190815260200160002060009054906101000a900473ffffffffffffffffffffffffffffffffffffffff1673ffffffffffffffffffffffffffffffffffffffff16146108c157600080fd5b6108ce3084848885610b6c565b935083600560008573ffffffffffffffffffffffffffffffffffffffff1673ffffffffffffffffffffffffffffffffffffffff16815260200190815260200160002060008473ffffffffffffffffffffffffffffffffffffffff1673ffffffffffffffffffffffffffffffffffffffff16815260200190815260200160002060008762ffffff1662ffffff16815260200190815260200160002060006101000a81548173ffffffffffffffffffffffffffffffffffffffff021916908373ffffffffffffffffffffffffffffffffffffffff16021790555083600560008473ffffffffffffffffffffffffffffffffffffffff1673ffffffffffffffffffffffffffffffffffffffff16815260200190815260200160002060008573ffffffffffffffffffffffffffffffffffffffff1673ffffffffffffffffffffffffffffffffffffffff16815260200190815260200160002060008762ffffff1662ffffff16815260200190815260200160002060006101000a81548173ffffffffffffffffffffffffffffffffffffffff021916908373ffffffffffffffffffffffffffffffffffffffff1602179055508462ffffff168273ffffffffffffffffffffffffffffffffffffffff168473ffffffffffffffffffffffffffffffffffffffff167f783cca1c0412dd0d695e784568c96da2e9c22ff989357a2e8b1d9b2b4e6b71188488604051808360020b81526020018273ffffffffffffffffffffffffffffffffffffffff1681526020019250505060405180910390a45050509392505050565b7f000000000000000000000000000000000000000000000000000000000000000073ffffffffffffffffffffffffffffffffffffffff163073ffffffffffffffffffffffffffffffffffffffff1614610b6a57600080fd5b565b60006040518060a001604052808773ffffffffffffffffffffffffffffffffffffffff1681526020018673ffffffffffffffffffffffffffffffffffffffff1681526020018573ffffffffffffffffffffffffffffffffffffffff1681526020018462ffffff1681526020018360020b8152506000808201518160000160006101000a81548173ffffffffffffffffffffffffffffffffffffffff021916908373ffffffffffffffffffffffffffffffffffffffff16021790555060208201518160010160006101000a81548173ffffffffffffffffffffffffffffffffffffffff021916908373ffffffffffffffffffffffffffffffffffffffff16021790555060408201518160020160006101000a81548173ffffffffffffffffffffffffffffffffffffffff021916908373ffffffffffffffffffffffffffffffffffffffff16021790555060608201518160020160146101000a81548162ffffff021916908362ffffff16021790555060808201518160020160176101000a81548162ffffff021916908360020b62ffffff160217905550905050848484604051602001808473ffffffffffffffffffffffffffffffffffffffff1681526020018373ffffffffffffffffffffffffffffffffffffffff1681526020018262ffffff168152602001935050505060405160208183030381529060405280519060200120604051610d7990610e4b565b8190604051809103906000f5905080158015610d99573d6000803e3d6000fd5b5090506000806000820160006101000a81549073ffffffffffffffffffffffffffffffffffffffff02191690556001820160006101000a81549073ffffffffffffffffffffffffffffffffffffffff02191690556002820160006101000a81549073ffffffffffffffffffffffffffffffffffffffff02191690556002820160146101000a81549062ffffff02191690556002820160176101000a81549062ffffff0219169055505095945050505050565b6188e78062000e5a8339019056fe6101606040523480156200001257600080fd5b503073ffffffffffffffffffffffffffffffffffffffff1660808173ffffffffffffffffffffffffffffffffffffffff1660601b8152505060003373ffffffffffffffffffffffffffffffffffffffff1663890357306040518163ffffffff1660e01b815260040160a06040518083038186803b1580156200009357600080fd5b505afa158015620000a8573d6000803e3d6000fd5b505050506040513d60a0811015620000bf57600080fd5b8101908080519060200190929190805190602001909291908051906020019092919080519060200190929190805190602001909291905050508095508162ffffff166101009062ffffff1660e81b8152508273ffffffffffffffffffffffffffffffffffffffff1660e09073ffffffffffffffffffffffffffffffffffffffff1660601b8152508373ffffffffffffffffffffffffffffffffffffffff1660c09073ffffffffffffffffffffffffffffffffffffffff1660601b8152508473ffffffffffffffffffffffffffffffffffffffff1660a09073ffffffffffffffffffffffffffffffffffffffff1660601b81525050505050508060020b6101208160020b60e81b81525050620001df816200021560201b620044521760201c565b6fffffffffffffffffffffffffffffffff16610140816fffffffffffffffffffffffffffffffff1660801b8152505050620002cd565b600080828360020b7ffffffffffffffffffffffffffffffffffffffffffffffffffffffffffff2761860020b816200024957fe5b050290506000838460020b7ffffffffffffffffffffffffffffffffffffffffffffffffffffffffffff2761860000360020b816200028357fe5b05029050600060018560020b84840360020b816200029d57fe5b050190508062ffffff166fffffffffffffffffffffffffffffffff801681620002c257fe5b049350505050919050565b60805160601c60a05160601c60c05160601c60e05160601c6101005160e81c6101205160e81c6101405160801c61854d6200039a600039806131985280617311528061735a52508061123e528061406d52806173a052806173dd52508061143a528061279b52806127d252806140b5525080611b6d528061285c5280612ff352806138a852806140915280615d6f525080610c985280611ced52806128275280612f3e528061379b5280615bab52508061325d52806135035280614049525080614508525061854d6000f3fe608060405234801561001057600080fd5b506004361061018e5760003560e01c806370cf754a116100de578063c45a015511610097578063ddca3f4311610071578063ddca3f4314610b65578063f305839914610b88578063f30dba9314610ba6578063f637731d14610c525761018e565b8063c45a015514610adc578063d0c93a7c14610b10578063d21220a714610b315761018e565b806370cf754a146107a95780638206a4d1146107d957806385b6672914610817578063883bdbfd146108d2578063a34123a7146109e8578063a38807f214610a5d5761018e565b80633850c7bd1161014b578063490e6cbc11610125578063490e6cbc1461054e5780634f1eb3d8146105fb578063514ea4bf146106d05780635339c296146107645761018e565b80633850c7bd146103d45780633c8a7d8d1461044657806346141319146105305761018e565b80630dfe168114610193578063128acb08146101c75780631a686502146102b15780631ad8b03b146102e1578063252c09d71461032a57806332148f67146103a2575b600080fd5b61019b610c96565b604051808273ffffffffffffffffffffffffffffffffffffffff16815260200191505060405180910390f35b610294600480360360a08110156101dd57600080fd5b81019080803573ffffffffffffffffffffffffffffffffffffffff16906020019092919080351515906020019092919080359060200190929190803573ffffffffffffffffffffffffffffffffffffffff1690602001909291908035906020019064010000000081111561025057600080fd5b82018360208201111561026257600080fd5b8035906020019184600183028401116401000000008311171561028457600080fd5b9091929391929390505050610cba565b604051808381526020018281526020019250505060405180910390f35b6102b9611f43565b60405180826fffffffffffffffffffffffffffffffff16815260200191505060405180910390f35b6102e9611f65565b60405180836fffffffffffffffffffffffffffffffff168152602001826fffffffffffffffffffffffffffffffff1681526020019250505060405180910390f35b6103566004803603602081101561034057600080fd5b8101908080359060200190929190505050611faf565b604051808563ffffffff1681526020018460060b81526020018373ffffffffffffffffffffffffffffffffffffffff168152602001821515815260200194505050505060405180910390f35b6103d2600480360360208110156103b857600080fd5b81019080803561ffff16906020019092919050505061202d565b005b6103dc61219f565b604051808873ffffffffffffffffffffffffffffffffffffffff1681526020018760020b81526020018661ffff1681526020018561ffff1681526020018461ffff1681526020018360ff168152602001821515815260200197505050505050505060405180910390f35b610513600480360360a081101561045c57600080fd5b81019080803573ffffffffffffffffffffffffffffffffffffffff169060200190929190803560020b9060200190929190803560020b906020019092919080356fffffffffffffffffffffffffffffffff169060200190929190803590602001906401000000008111156104cf57600080fd5b8201836020820111156104e157600080fd5b8035906020019184600183028401116401000000008311171561050357600080fd5b9091929391929390505050612240565b604051808381526020018281526020019250505060405180910390f35b610538612639565b6040518082815260200191505060405180910390f35b6105f96004803603608081101561056457600080fd5b81019080803573ffffffffffffffffffffffffffffffffffffffff1690602001909291908035906020019092919080359060200190929190803590602001906401000000008111156105b557600080fd5b8201836020820111156105c757600080fd5b803590602001918460018302840111640100000000831117156105e957600080fd5b909192939192939050505061263f565b005b61068f600480360360a081101561061157600080fd5b81019080803573ffffffffffffffffffffffffffffffffffffffff169060200190929190803560020b9060200190929190803560020b906020019092919080356fffffffffffffffffffffffffffffffff16906020019092919080356fffffffffffffffffffffffffffffffff169060200190929190505050612d18565b60405180836fffffffffffffffffffffffffffffffff168152602001826fffffffffffffffffffffffffffffffff1681526020019250505060405180910390f35b6106fc600480360360208110156106e657600080fd5b81019080803590602001909291905050506130f4565b60405180866fffffffffffffffffffffffffffffffff168152602001858152602001848152602001836fffffffffffffffffffffffffffffffff168152602001826fffffffffffffffffffffffffffffffff1681526020019550505050505060405180910390f35b6107936004803603602081101561077a57600080fd5b81019080803560010b906020019092919050505061317e565b6040518082815260200191505060405180910390f35b6107b1613196565b60405180826fffffffffffffffffffffffffffffffff16815260200191505060405180910390f35b610815600480360360408110156107ef57600080fd5b81019080803560ff169060200190929190803560ff1690602001909291905050506131ba565b005b6108916004803603606081101561082d57600080fd5b81019080803573ffffffffffffffffffffffffffffffffffffffff16906020019092919080356fffffffffffffffffffffffffffffffff16906020019092919080356fffffffffffffffffffffffffffffffff16906020019092919050505061345d565b60405180836fffffffffffffffffffffffffffffffff168152602001826fffffffffffffffffffffffffffffffff1681526020019250505060405180910390f35b610949600480360360208110156108e857600080fd5b810190808035906020019064010000000081111561090557600080fd5b82018360208201111561091757600080fd5b8035906020019184602083028401116401000000008311171561093957600080fd5b9091929391929390505050613997565b604051808060200180602001838103835285818151815260200191508051906020019060200280838360005b83811015610990578082015181840152602081019050610975565b50505050905001838103825284818151815260200191508051906020019060200280838360005b838110156109d25780820151818401526020810190506109b7565b5050505090500194505050505060405180910390f35b610a40600480360360608110156109fe57600080fd5b81019080803560020b9060200190929190803560020b906020019092919080356fffffffffffffffffffffffffffffffff169060200190929190505050613a66565b604051808381526020018281526020019250505060405180910390f35b610a9960048036036040811015610a7357600080fd5b81019080803560020b9060200190929190803560020b9060200190929190505050613cfd565b604051808460060b81526020018373ffffffffffffffffffffffffffffffffffffffff1681526020018263ffffffff168152602001935050505060405180910390f35b610ae4614047565b604051808273ffffffffffffffffffffffffffffffffffffffff16815260200191505060405180910390f35b610b1861406b565b604051808260020b815260200191505060405180910390f35b610b3961408f565b604051808273ffffffffffffffffffffffffffffffffffffffff16815260200191505060405180910390f35b610b6d6140b3565b604051808262ffffff16815260200191505060405180910390f35b610b906140d7565b6040518082815260200191505060405180910390f35b610bd560048036036020811015610bbc57600080fd5b81019080803560020b90602001909291905050506140dd565b60405180896fffffffffffffffffffffffffffffffff16815260200188600f0b81526020018781526020018681526020018560060b81526020018473ffffffffffffffffffffffffffffffffffffffff1681526020018363ffffffff16815260200182151581526020019850505050505050505060405180910390f35b610c9460048036036020811015610c6857600080fd5b81019080803573ffffffffffffffffffffffffffffffffffffffff169060200190929190505050614198565b005b7f000000000000000000000000000000000000000000000000000000000000000081565b600080610cc5614506565b6000861415610d3c576040517f08c379a00000000000000000000000000000000000000000000000000000000081526004018080602001828103825260028152602001807f415300000000000000000000000000000000000000000000000000000000000081525060200191505060405180910390fd5b6000806040518060e00160405290816000820160009054906101000a900473ffffffffffffffffffffffffffffffffffffffff1673ffffffffffffffffffffffffffffffffffffffff1673ffffffffffffffffffffffffffffffffffffffff1681526020016000820160149054906101000a900460020b60020b60020b81526020016000820160179054906101000a900461ffff1661ffff1661ffff1681526020016000820160199054906101000a900461ffff1661ffff1661ffff16815260200160008201601b9054906101000a900461ffff1661ffff1661ffff16815260200160008201601d9054906101000a900460ff1660ff1660ff16815260200160008201601e9054906101000a900460ff16151515158152505090508060c00151610ece576040517f08c379a00000000000000000000000000000000000000000000000000000000081526004018080602001828103825260038152602001807f4c4f4b000000000000000000000000000000000000000000000000000000000081525060200191505060405180910390fd5b87610f5657806000015173ffffffffffffffffffffffffffffffffffffffff168673ffffffffffffffffffffffffffffffffffffffff16118015610f51575073fffd8963efd1fc6a506488495d951d5263988d2673ffffffffffffffffffffffffffffffffffffffff168673ffffffffffffffffffffffffffffffffffffffff16105b610fc6565b806000015173ffffffffffffffffffffffffffffffffffffffff168673ffffffffffffffffffffffffffffffffffffffff16108015610fc557506401000276a373ffffffffffffffffffffffffffffffffffffffff168673ffffffffffffffffffffffffffffffffffffffff16115b5b611038576040517f08c379a00000000000000000000000000000000000000000000000000000000081526004018080602001828103825260038152602001807f53504c000000000000000000000000000000000000000000000000000000000081525060200191505060405180910390fd5b600080600001601e6101000a81548160ff02191690831515021790555060006040518060c001604052808a6110785760048460a0015160ff16901c61108b565b60108460a0015160ff168161108957fe5b065b60ff168152602001600460009054906101000a90046fffffffffffffffffffffffffffffffff166fffffffffffffffffffffffffffffffff1681526020016110d1614560565b63ffffffff168152602001600060060b8152602001600073ffffffffffffffffffffffffffffffffffffffff1681526020016000151581525090506000808913905060006040518060e001604052808b815260200160008152602001856000015173ffffffffffffffffffffffffffffffffffffffff168152602001856020015160020b81526020018c6111675760025461116b565b6001545b815260200160006fffffffffffffffffffffffffffffffff16815260200184602001516fffffffffffffffffffffffffffffffff1681525090505b60008160000151141580156111eb57508873ffffffffffffffffffffffffffffffffffffffff16816040015173ffffffffffffffffffffffffffffffffffffffff1614155b15611835576111f8618460565b8160400151816000019073ffffffffffffffffffffffffffffffffffffffff16908173ffffffffffffffffffffffffffffffffffffffff168152505061127082606001517f00000000000000000000000000000000000000000000000000000000000000008e6006614568909392919063ffffffff16565b826020018360400182151515158152508260020b60020b81525050507ffffffffffffffffffffffffffffffffffffffffffffffffffffffffffff2761860020b816020015160020b12156112f5577ffffffffffffffffffffffffffffffffffffffffffffffffffffffffffff27618816020019060020b908160020b81525050611361565b7ffffffffffffffffffffffffffffffffffffffffffffffffffffffffffff2761860000360020b816020015160020b1315611360577ffffffffffffffffffffffffffffffffffffffffffffffffffffffffffff27618600003816020019060020b908160020b815250505b5b61136e81602001516146c0565b816060019073ffffffffffffffffffffffffffffffffffffffff16908173ffffffffffffffffffffffffffffffffffffffff168152505061145e82604001518d6113ea578b73ffffffffffffffffffffffffffffffffffffffff16836060015173ffffffffffffffffffffffffffffffffffffffff161161141e565b8b73ffffffffffffffffffffffffffffffffffffffff16836060015173ffffffffffffffffffffffffffffffffffffffff16105b61142c57826060015161142e565b8b5b8460c0015185600001517f0000000000000000000000000000000000000000000000000000000000000000614afb565b85604001856080018660a0018760c0018481525084815250848152508473ffffffffffffffffffffffffffffffffffffffff1673ffffffffffffffffffffffffffffffffffffffff16815250505050508215611507576114c78160c00151826080015101614d57565b8260000181815103915081815250506114f96114e68260a00151614d57565b8360200151614d8d90919063ffffffff16565b826020018181525050611556565b6115148160a00151614d57565b82600001818151019150818152505061154c6115398260c00151836080015101614d57565b8360200151614db090919063ffffffff16565b8260200181815250505b6000846000015160ff1611156115c7576000846000015160ff168260c001518161157c57fe5b049050808260c0018181510391508181525050808360a001818151019150906fffffffffffffffffffffffffffffffff1690816fffffffffffffffffffffffffffffffff1681525050505b60008260c001516fffffffffffffffffffffffffffffffff16111561162c5761161c8160c001517001000000000000000000000000000000008460c001516fffffffffffffffffffffffffffffffff16614dd3565b8260800181815101915081815250505b806060015173ffffffffffffffffffffffffffffffffffffffff16826040015173ffffffffffffffffffffffffffffffffffffffff1614156117d4578060400151156117a6578360a00151611704576116ae846040015160008760200151886040015188602001518a606001516008614ead909695949392919063ffffffff16565b85606001866080018273ffffffffffffffffffffffffffffffffffffffff1673ffffffffffffffffffffffffffffffffffffffff168152508260060b60060b815250505060018460a00190151590811515815250505b600061175882602001518e61171b57600154611721565b84608001515b8f611730578560800151611734565b6002545b886080015189606001518a6040015160056150e0909695949392919063ffffffff16565b90508c15611767578060000390505b6117758360c001518261521c565b8360c001906fffffffffffffffffffffffffffffffff1690816fffffffffffffffffffffffffffffffff1681525050505b8b6117b55780602001516117be565b60018160200151035b826060019060020b908160020b8152505061182f565b806000015173ffffffffffffffffffffffffffffffffffffffff16826040015173ffffffffffffffffffffffffffffffffffffffff161461182e5761181c8260400151615375565b826060019060020b908160020b815250505b5b506111a6565b836020015160020b816060015160020b1461194b5760008061188386604001518660400151886020015188602001518a606001518b608001516008615771909695949392919063ffffffff16565b915091508260400151836060015183836000800160008060000160146000800160176000800160198891906101000a81548161ffff021916908361ffff1602179055508791906101000a81548161ffff021916908361ffff1602179055508691906101000a81548162ffffff021916908360020b62ffffff1602179055508591906101000a81548173ffffffffffffffffffffffffffffffffffffffff021916908373ffffffffffffffffffffffffffffffffffffffff160217905550505050505050611993565b80604001516000800160006101000a81548173ffffffffffffffffffffffffffffffffffffffff021916908373ffffffffffffffffffffffffffffffffffffffff1602179055505b8060c001516fffffffffffffffffffffffffffffffff1683602001516fffffffffffffffffffffffffffffffff1614611a04578060c00151600460006101000a8154816fffffffffffffffffffffffffffffffff02191690836fffffffffffffffffffffffffffffffff1602179055505b8a15611a9b57806080015160018190555060008160a001516fffffffffffffffffffffffffffffffff161115611a96578060a00151600360000160008282829054906101000a90046fffffffffffffffffffffffffffffffff160192506101000a8154816fffffffffffffffffffffffffffffffff02191690836fffffffffffffffffffffffffffffffff1602179055505b611b28565b806080015160028190555060008160a001516fffffffffffffffffffffffffffffffff161115611b27578060a00151600360000160108282829054906101000a90046fffffffffffffffffffffffffffffffff160192506101000a8154816fffffffffffffffffffffffffffffffff02191690836fffffffffffffffffffffffffffffffff1602179055505b5b8115158b151514611b4457806020015181600001518b03611b51565b80600001518a0381602001515b80965081975050508a15611cdf576000851215611b9757611b967f00000000000000000000000000000000000000000000000000000000000000008d876000036159a3565b5b6000611ba1615ba4565b90503373ffffffffffffffffffffffffffffffffffffffff1663fa461e3388888c8c6040518563ffffffff1660e01b815260040180858152602001848152602001806020018281038252848482818152602001925080828437600081840152601f19601f82011690508083019250505095505050505050600060405180830381600087803b158015611c3257600080fd5b505af1158015611c46573d6000803e3d6000fd5b50505050611c52615ba4565b611c658883615d4e90919063ffffffff16565b1115611cd9576040517f08c379a00000000000000000000000000000000000000000000000000000000081526004018080602001828103825260038152602001807f494941000000000000000000000000000000000000000000000000000000000081525060200191505060405180910390fd5b50611e5b565b6000861215611d1757611d167f00000000000000000000000000000000000000000000000000000000000000008d886000036159a3565b5b6000611d21615d68565b90503373ffffffffffffffffffffffffffffffffffffffff1663fa461e3388888c8c6040518563ffffffff1660e01b815260040180858152602001848152602001806020018281038252848482818152602001925080828437600081840152601f19601f82011690508083019250505095505050505050600060405180830381600087803b158015611db257600080fd5b505af1158015611dc6573d6000803e3d6000fd5b50505050611dd2615d68565b611de58783615d4e90919063ffffffff16565b1115611e59576040517f08c379a00000000000000000000000000000000000000000000000000000000081526004018080602001828103825260038152602001807f494941000000000000000000000000000000000000000000000000000000000081525060200191505060405180910390fd5b505b8b73ffffffffffffffffffffffffffffffffffffffff163373ffffffffffffffffffffffffffffffffffffffff167fc42079f94a6350d7e6235f29174924f928cc2ac818eb64fed8004e115fbcca67888885604001518660c001518760600151604051808681526020018581526020018473ffffffffffffffffffffffffffffffffffffffff168152602001836fffffffffffffffffffffffffffffffff1681526020018260020b81526020019550505050505060405180910390a3600160008001601e6101000a81548160ff02191690831515021790555050505050965096945050505050565b600460009054906101000a90046fffffffffffffffffffffffffffffffff1681565b60038060000160009054906101000a90046fffffffffffffffffffffffffffffffff16908060000160109054906101000a90046fffffffffffffffffffffffffffffffff16905082565b60088161ffff8110611fc057600080fd5b016000915090508060000160009054906101000a900463ffffffff16908060000160049054906101000a900460060b9080600001600b9054906101000a900473ffffffffffffffffffffffffffffffffffffffff169080600001601f9054906101000a900460ff16905084565b60008001601e9054906101000a900460ff166120b1576040517f08c379a00000000000000000000000000000000000000000000000000000000081526004018080602001828103825260038152602001807f4c4f4b000000000000000000000000000000000000000000000000000000000081525060200191505060405180910390fd5b600080600001601e6101000a81548160ff0219169083151502179055506120d6614506565b600080600001601b9054906101000a900461ffff169050600061210582846008615f129092919063ffffffff16565b90508060008001601b6101000a81548161ffff021916908361ffff1602179055508061ffff168261ffff161461217d577fac49e518f90a358f652e4400164f05a5d8f7e35e7747279bc3a93dbf584e125a8282604051808361ffff1681526020018261ffff1681526020019250505060405180910390a15b5050600160008001601e6101000a81548160ff02191690831515021790555050565b60008060000160009054906101000a900473ffffffffffffffffffffffffffffffffffffffff16908060000160149054906101000a900460020b908060000160179054906101000a900461ffff16908060000160199054906101000a900461ffff169080600001601b9054906101000a900461ffff169080600001601d9054906101000a900460ff169080600001601e9054906101000a900460ff16905087565b60008060008001601e9054906101000a900460ff166122c7576040517f08c379a00000000000000000000000000000000000000000000000000000000081526004018080602001828103825260038152602001807f4c4f4b000000000000000000000000000000000000000000000000000000000081525060200191505060405180910390fd5b600080600001601e6101000a81548160ff0219169083151502179055506000856fffffffffffffffffffffffffffffffff161161230357600080fd5b60008061236860405180608001604052808c73ffffffffffffffffffffffffffffffffffffffff1681526020018b60020b81526020018a60020b815260200161235d8a6fffffffffffffffffffffffffffffffff16616008565b600f0b815250616021565b9250925050819350809250600080600086111561238a57612387615ba4565b91505b600085111561239e5761239b615d68565b90505b3373ffffffffffffffffffffffffffffffffffffffff1663d348799787878b8b6040518563ffffffff1660e01b815260040180858152602001848152602001806020018281038252848482818152602001925080828437600081840152601f19601f82011690508083019250505095505050505050600060405180830381600087803b15801561242d57600080fd5b505af1158015612441573d6000803e3d6000fd5b5050505060008611156124de57612456615ba4565b6124698784615d4e90919063ffffffff16565b11156124dd576040517f08c379a00000000000000000000000000000000000000000000000000000000081526004018080602001828103825260028152602001807f4d3000000000000000000000000000000000000000000000000000000000000081525060200191505060405180910390fd5b5b6000851115612577576124ef615d68565b6125028683615d4e90919063ffffffff16565b1115612576576040517f08c379a00000000000000000000000000000000000000000000000000000000081526004018080602001828103825260028152602001807f4d3100000000000000000000000000000000000000000000000000000000000081525060200191505060405180910390fd5b5b8960020b8b60020b8d73ffffffffffffffffffffffffffffffffffffffff167f7a53080ba414158be7ec69b987b5fb7d07dee101fe85488f0853ae16239d0bde338d8b8b604051808573ffffffffffffffffffffffffffffffffffffffff168152602001846fffffffffffffffffffffffffffffffff16815260200183815260200182815260200194505050505060405180910390a450505050600160008001601e6101000a81548160ff021916908315150217905550965096945050505050565b60025481565b60008001601e9054906101000a900460ff166126c3576040517f08c379a00000000000000000000000000000000000000000000000000000000081526004018080602001828103825260038152602001807f4c4f4b000000000000000000000000000000000000000000000000000000000081525060200191505060405180910390fd5b600080600001601e6101000a81548160ff0219169083151502179055506126e8614506565b6000600460009054906101000a90046fffffffffffffffffffffffffffffffff1690506000816fffffffffffffffffffffffffffffffff1611612793576040517f08c379a00000000000000000000000000000000000000000000000000000000081526004018080602001828103825260018152602001807f4c0000000000000000000000000000000000000000000000000000000000000081525060200191505060405180910390fd5b60006127c8867f000000000000000000000000000000000000000000000000000000000000000062ffffff16620f4240616345565b905060006127ff867f000000000000000000000000000000000000000000000000000000000000000062ffffff16620f4240616345565b9050600061280b615ba4565b90506000612817615d68565b9050600089111561284e5761284d7f00000000000000000000000000000000000000000000000000000000000000008b8b6159a3565b5b6000881115612883576128827f00000000000000000000000000000000000000000000000000000000000000008b8a6159a3565b5b3373ffffffffffffffffffffffffffffffffffffffff1663e9cbafb085858a8a6040518563ffffffff1660e01b815260040180858152602001848152602001806020018281038252848482818152602001925080828437600081840152601f19601f82011690508083019250505095505050505050600060405180830381600087803b15801561291257600080fd5b505af1158015612926573d6000803e3d6000fd5b505050506000612934615ba4565b90506000612940615d68565b9050816129568786615d4e90919063ffffffff16565b11156129ca576040517f08c379a00000000000000000000000000000000000000000000000000000000081526004018080602001828103825260028152602001807f463000000000000000000000000000000000000000000000000000000000000081525060200191505060405180910390fd5b806129de8685615d4e90919063ffffffff16565b1115612a52576040517f08c379a00000000000000000000000000000000000000000000000000000000081526004018080602001828103825260028152602001807f463100000000000000000000000000000000000000000000000000000000000081525060200191505060405180910390fd5b60008483039050600084830390506000821115612b6a576000601060008001601d9054906101000a900460ff1660ff1681612a8957fe5b0690506000808260ff1614612aaa578160ff168481612aa457fe5b04612aad565b60005b90506000816fffffffffffffffffffffffffffffffff161115612b285780600360000160008282829054906101000a90046fffffffffffffffffffffffffffffffff160192506101000a8154816fffffffffffffffffffffffffffffffff02191690836fffffffffffffffffffffffffffffffff1602179055505b612b588185037001000000000000000000000000000000008d6fffffffffffffffffffffffffffffffff16614dd3565b60016000828254019250508190555050505b6000811115612c6e576000600460008001601d9054906101000a900460ff1660ff16901c90506000808260ff1614612bae578160ff168381612ba857fe5b04612bb1565b60005b90506000816fffffffffffffffffffffffffffffffff161115612c2c5780600360000160108282829054906101000a90046fffffffffffffffffffffffffffffffff160192506101000a8154816fffffffffffffffffffffffffffffffff02191690836fffffffffffffffffffffffffffffffff1602179055505b612c5c8184037001000000000000000000000000000000008d6fffffffffffffffffffffffffffffffff16614dd3565b60026000828254019250508190555050505b8d73ffffffffffffffffffffffffffffffffffffffff163373ffffffffffffffffffffffffffffffffffffffff167fbdbdb71d7860376ba52b25a5028beea23581364a40522f6bcfb86bb1f2dca6338f8f86866040518085815260200184815260200183815260200182815260200194505050505060405180910390a3505050505050505050600160008001601e6101000a81548160ff0219169083151502179055505050505050565b60008060008001601e9054906101000a900460ff16612d9f576040517f08c379a00000000000000000000000000000000000000000000000000000000081526004018080602001828103825260038152602001807f4c4f4b000000000000000000000000000000000000000000000000000000000081525060200191505060405180910390fd5b600080600001601e6101000a81548160ff0219169083151502179055506000612dd633888860076163a3909392919063ffffffff16565b90508060030160009054906101000a90046fffffffffffffffffffffffffffffffff166fffffffffffffffffffffffffffffffff16856fffffffffffffffffffffffffffffffff1611612e295784612e4b565b8060030160009054906101000a90046fffffffffffffffffffffffffffffffff165b92508060030160109054906101000a90046fffffffffffffffffffffffffffffffff166fffffffffffffffffffffffffffffffff16846fffffffffffffffffffffffffffffffff1611612e9e5783612ec0565b8060030160109054906101000a90046fffffffffffffffffffffffffffffffff165b91506000836fffffffffffffffffffffffffffffffff161115612f7757828160030160008282829054906101000a90046fffffffffffffffffffffffffffffffff160392506101000a8154816fffffffffffffffffffffffffffffffff02191690836fffffffffffffffffffffffffffffffff160217905550612f767f000000000000000000000000000000000000000000000000000000000000000089856fffffffffffffffffffffffffffffffff166159a3565b5b6000826fffffffffffffffffffffffffffffffff16111561302c57818160030160108282829054906101000a90046fffffffffffffffffffffffffffffffff160392506101000a8154816fffffffffffffffffffffffffffffffff02191690836fffffffffffffffffffffffffffffffff16021790555061302b7f000000000000000000000000000000000000000000000000000000000000000089846fffffffffffffffffffffffffffffffff166159a3565b5b8560020b8760020b3373ffffffffffffffffffffffffffffffffffffffff167f70935338e69775456a85ddef226c395fb668b63fa0115f5f20610b388e6ca9c08b8787604051808473ffffffffffffffffffffffffffffffffffffffff168152602001836fffffffffffffffffffffffffffffffff168152602001826fffffffffffffffffffffffffffffffff168152602001935050505060405180910390a450600160008001601e6101000a81548160ff0219169083151502179055509550959350505050565b60076020528060005260406000206000915090508060000160009054906101000a90046fffffffffffffffffffffffffffffffff16908060010154908060020154908060030160009054906101000a90046fffffffffffffffffffffffffffffffff16908060030160109054906101000a90046fffffffffffffffffffffffffffffffff16905085565b60066020528060005260406000206000915090505481565b7f000000000000000000000000000000000000000000000000000000000000000081565b60008001601e9054906101000a900460ff1661323e576040517f08c379a00000000000000000000000000000000000000000000000000000000081526004018080602001828103825260038152602001807f4c4f4b000000000000000000000000000000000000000000000000000000000081525060200191505060405180910390fd5b600080600001601e6101000a81548160ff0219169083151502179055507f000000000000000000000000000000000000000000000000000000000000000073ffffffffffffffffffffffffffffffffffffffff16638da5cb5b6040518163ffffffff1660e01b815260040160206040518083038186803b1580156132c157600080fd5b505afa1580156132d5573d6000803e3d6000fd5b505050506040513d60208110156132eb57600080fd5b810190808051906020019092919050505073ffffffffffffffffffffffffffffffffffffffff163373ffffffffffffffffffffffffffffffffffffffff161461333357600080fd5b60008260ff161480613359575060048260ff16101580156133585750600a8260ff1611155b5b8015613387575060008160ff161480613386575060048160ff16101580156133855750600a8160ff1611155b5b5b61339057600080fd5b600080600001601d9054906101000a900460ff16905060048260ff16901b830160008001601d6101000a81548160ff021916908360ff1602179055507f973d8d92bb299f4af6ce49b52a8adb85ae46b9f214c4c4fc06ac77401237b13360108260ff16816133fa57fe5b0660048360ff16901c8585604051808560ff1681526020018460ff1681526020018360ff1681526020018260ff16815260200194505050505060405180910390a150600160008001601e6101000a81548160ff0219169083151502179055505050565b60008060008001601e9054906101000a900460ff166134e4576040517f08c379a00000000000000000000000000000000000000000000000000000000081526004018080602001828103825260038152602001807f4c4f4b000000000000000000000000000000000000000000000000000000000081525060200191505060405180910390fd5b600080600001601e6101000a81548160ff0219169083151502179055507f000000000000000000000000000000000000000000000000000000000000000073ffffffffffffffffffffffffffffffffffffffff16638da5cb5b6040518163ffffffff1660e01b815260040160206040518083038186803b15801561356757600080fd5b505afa15801561357b573d6000803e3d6000fd5b505050506040513d602081101561359157600080fd5b810190808051906020019092919050505073ffffffffffffffffffffffffffffffffffffffff163373ffffffffffffffffffffffffffffffffffffffff16146135d957600080fd5b600360000160009054906101000a90046fffffffffffffffffffffffffffffffff166fffffffffffffffffffffffffffffffff16846fffffffffffffffffffffffffffffffff161161362b578361364e565b600360000160009054906101000a90046fffffffffffffffffffffffffffffffff165b9150600360000160109054906101000a90046fffffffffffffffffffffffffffffffff166fffffffffffffffffffffffffffffffff16836fffffffffffffffffffffffffffffffff16116136a257826136c5565b600360000160109054906101000a90046fffffffffffffffffffffffffffffffff165b90506000826fffffffffffffffffffffffffffffffff1611156137d457600360000160009054906101000a90046fffffffffffffffffffffffffffffffff166fffffffffffffffffffffffffffffffff16826fffffffffffffffffffffffffffffffff161415613739578180600190039250505b81600360000160008282829054906101000a90046fffffffffffffffffffffffffffffffff160392506101000a8154816fffffffffffffffffffffffffffffffff02191690836fffffffffffffffffffffffffffffffff1602179055506137d37f000000000000000000000000000000000000000000000000000000000000000086846fffffffffffffffffffffffffffffffff166159a3565b5b6000816fffffffffffffffffffffffffffffffff1611156138e157600360000160109054906101000a90046fffffffffffffffffffffffffffffffff166fffffffffffffffffffffffffffffffff16816fffffffffffffffffffffffffffffffff161415613846578080600190039150505b80600360000160108282829054906101000a90046fffffffffffffffffffffffffffffffff160392506101000a8154816fffffffffffffffffffffffffffffffff02191690836fffffffffffffffffffffffffffffffff1602179055506138e07f000000000000000000000000000000000000000000000000000000000000000086836fffffffffffffffffffffffffffffffff166159a3565b5b8473ffffffffffffffffffffffffffffffffffffffff163373ffffffffffffffffffffffffffffffffffffffff167f596b573906218d3411850b26a6b437d6c4522fdb43d2d2386263f86d50b8b151848460405180836fffffffffffffffffffffffffffffffff168152602001826fffffffffffffffffffffffffffffffff1681526020019250505060405180910390a3600160008001601e6101000a81548160ff021916908315150217905550935093915050565b6060806139a2614506565b613a5b6139ad614560565b858580806020026020016040519081016040528093929190818152602001838360200280828437600081840152601f19601f820116905080830192505050505050506000800160149054906101000a900460020b6000800160179054906101000a900461ffff16600460009054906101000a90046fffffffffffffffffffffffffffffffff166000800160199054906101000a900461ffff16600861641c909695949392919063ffffffff16565b915091509250929050565b60008060008001601e9054906101000a900460ff16613aed576040517f08c379a00000000000000000000000000000000000000000000000000000000081526004018080602001828103825260038152602001807f4c4f4b000000000000000000000000000000000000000000000000000000000081525060200191505060405180910390fd5b600080600001601e6101000a81548160ff0219169083151502179055506000806000613b7460405180608001604052803373ffffffffffffffffffffffffffffffffffffffff1681526020018a60020b81526020018960020b8152602001613b66896fffffffffffffffffffffffffffffffff16616008565b600003600f0b815250616021565b9250925092508160000394508060000393506000851180613b955750600084115b15613c5d57848360030160009054906101000a90046fffffffffffffffffffffffffffffffff1601848460030160109054906101000a90046fffffffffffffffffffffffffffffffff16018460030160008660030160108491906101000a8154816fffffffffffffffffffffffffffffffff02191690836fffffffffffffffffffffffffffffffff1602179055508391906101000a8154816fffffffffffffffffffffffffffffffff02191690836fffffffffffffffffffffffffffffffff16021790555050505b8660020b8860020b3373ffffffffffffffffffffffffffffffffffffffff167f0c396cd989a39f4459b5fa1aed6a9a8dcdbc45908acfd67e028cd568da98982c89898960405180846fffffffffffffffffffffffffffffffff168152602001838152602001828152602001935050505060405180910390a4505050600160008001601e6101000a81548160ff021916908315150217905550935093915050565b6000806000613d0a614506565b613d1485856165d7565b6000806000806000806000600560008d60020b60020b815260200190815260200160002090506000600560008d60020b60020b8152602001908152602001600020905060008260030160009054906101000a900460060b8360030160079054906101000a900473ffffffffffffffffffffffffffffffffffffffff1684600301601b9054906101000a900463ffffffff1685600301601f9054906101000a900460ff16809450819850829a50839c505050505080613dd157600080fd5b60008260030160009054906101000a900460060b8360030160079054906101000a900473ffffffffffffffffffffffffffffffffffffffff1684600301601b9054906101000a900463ffffffff1685600301601f9054906101000a900460ff16809450819850829a50839c505050505080613e4b57600080fd5b505050506000806040518060e00160405290816000820160009054906101000a900473ffffffffffffffffffffffffffffffffffffffff1673ffffffffffffffffffffffffffffffffffffffff1673ffffffffffffffffffffffffffffffffffffffff1681526020016000820160149054906101000a900460020b60020b60020b81526020016000820160179054906101000a900461ffff1661ffff1661ffff1681526020016000820160199054906101000a900461ffff1661ffff1661ffff16815260200160008201601b9054906101000a900461ffff1661ffff1661ffff16815260200160008201601d9054906101000a900460ff1660ff1660ff16815260200160008201601e9054906101000a900460ff16151515158152505090508b60020b816020015160020b1215613f975785870384860383850399509950995050505050505050614040565b8a60020b816020015160020b1215614029576000613fb3614560565b905060008061400183600086602001518760400151600460009054906101000a90046fffffffffffffffffffffffffffffffff1689606001516008614ead909695949392919063ffffffff16565b91509150888a830303878983030386888603039c509c509c5050505050505050505050614040565b868603858503848403995099509950505050505050505b9250925092565b7f000000000000000000000000000000000000000000000000000000000000000081565b7f000000000000000000000000000000000000000000000000000000000000000081565b7f000000000000000000000000000000000000000000000000000000000000000081565b7f000000000000000000000000000000000000000000000000000000000000000081565b60015481565b60056020528060005260406000206000915090508060000160009054906101000a90046fffffffffffffffffffffffffffffffff16908060000160109054906101000a9004600f0b908060010154908060020154908060030160009054906101000a900460060b908060030160079054906101000a900473ffffffffffffffffffffffffffffffffffffffff169080600301601b9054906101000a900463ffffffff169080600301601f9054906101000a900460ff16905088565b60008060000160009054906101000a900473ffffffffffffffffffffffffffffffffffffffff1673ffffffffffffffffffffffffffffffffffffffff1614614248576040517f08c379a00000000000000000000000000000000000000000000000000000000081526004018080602001828103825260028152602001807f414900000000000000000000000000000000000000000000000000000000000081525060200191505060405180910390fd5b600061425382615375565b9050600080614273614263614560565b600861679190919063ffffffff16565b915091506040518060e001604052808573ffffffffffffffffffffffffffffffffffffffff1681526020018460020b8152602001600061ffff1681526020018361ffff1681526020018261ffff168152602001600060ff168152602001600115158152506000808201518160000160006101000a81548173ffffffffffffffffffffffffffffffffffffffff021916908373ffffffffffffffffffffffffffffffffffffffff16021790555060208201518160000160146101000a81548162ffffff021916908360020b62ffffff16021790555060408201518160000160176101000a81548161ffff021916908361ffff16021790555060608201518160000160196101000a81548161ffff021916908361ffff160217905550608082015181600001601b6101000a81548161ffff021916908361ffff16021790555060a082015181600001601d6101000a81548160ff021916908360ff16021790555060c082015181600001601e6101000a81548160ff0219169083151502179055509050507f98636036cb66a9c19a37435efc1e90142190214e8abeb821bdba3f2990dd4c958484604051808373ffffffffffffffffffffffffffffffffffffffff1681526020018260020b81526020019250505060405180910390a150505050565b600080828360020b7ffffffffffffffffffffffffffffffffffffffffffffffffffffffffffff2761860020b8161448557fe5b050290506000838460020b7ffffffffffffffffffffffffffffffffffffffffffffffffffffffffffff2761860000360020b816144be57fe5b05029050600060018560020b84840360020b816144d757fe5b050190508062ffffff166fffffffffffffffffffffffffffffffff8016816144fb57fe5b049350505050919050565b7f000000000000000000000000000000000000000000000000000000000000000073ffffffffffffffffffffffffffffffffffffffff163073ffffffffffffffffffffffffffffffffffffffff161461455e57600080fd5b565b600042905090565b60008060008460020b8660020b8161457c57fe5b05905060008660020b1280156145a5575060008560020b8760020b8161459e57fe5b0760020b14155b156145b4578080600190039150505b8315614638576000806145c6836168b7565b9150915060008160ff166001901b60018360ff166001901b030190506000818b60008660010b60010b815260200190815260200160002054169050600081141595508561461a57888360ff1686030261462d565b88614624826168da565b840360ff168603025b9650505050506146b6565b600080614647600184016168b7565b91509150600060018260ff166001901b031990506000818b60008660010b60010b815260200190815260200160002054169050600081141595508561469957888360ff0360ff166001870101026146af565b88836146a4836169b5565b0360ff166001870101025b9650505050505b5094509492505050565b60008060008360020b126146d7578260020b6146df565b8260020b6000035b90507ffffffffffffffffffffffffffffffffffffffffffffffffffffffffffff2761860000360020b81111561477d576040517f08c379a00000000000000000000000000000000000000000000000000000000081526004018080602001828103825260018152602001807f540000000000000000000000000000000000000000000000000000000000000081525060200191505060405180910390fd5b6000806001831614156147a1577001000000000000000000000000000000006147b3565b6ffffcb933bd6fad37aa2d162d1a5940015b70ffffffffffffffffffffffffffffffffff169050600060028316146147ed5760806ffff97272373d413259a46990580e213a8202901c90505b600060048316146148125760806ffff2e50f5f656932ef12357cf3c7fdcc8202901c90505b600060088316146148375760806fffe5caca7e10e4e61c3624eaa0941cd08202901c90505b6000601083161461485c5760806fffcb9843d60f6159c9db58835c9266448202901c90505b600060208316146148815760806fff973b41fa98c081472e6896dfb254c08202901c90505b600060408316146148a65760806fff2ea16466c96a3843ec78b326b528618202901c90505b600060808316146148cb5760806ffe5dee046a99a2a811c461f1969c30538202901c90505b60006101008316146148f15760806ffcbe86c7900a88aedcffc83b479aa3a48202901c90505b60006102008316146149175760806ff987a7253ac413176f2b074cf7815e548202901c90505b600061040083161461493d5760806ff3392b0822b70005940c7a398e4b70f38202901c90505b60006108008316146149635760806fe7159475a2c29b7443b29c7fa6e889d98202901c90505b60006110008316146149895760806fd097f3bdfd2022b8845ad8f792aa58258202901c90505b60006120008316146149af5760806fa9f746462d870fdf8a65dc1f90e061e58202901c90505b60006140008316146149d55760806f70d869a156d2a1b890bb3df62baf32f78202901c90505b60006180008316146149fb5760806f31be135f97d08fd981231505542fcfa68202901c90505b600062010000831614614a225760806f09aa508b5b7a84e1c677de54f3e99bc98202901c90505b600062020000831614614a485760806e5d6af8dedb81196699c329225ee6048202901c90505b600062040000831614614a6d5760806d2216e584f5fa1ea926041bedfe988202901c90505b600062080000831614614a905760806b048a170391f7dc42444e8fa28202901c90505b60008460020b1315614ac957807fffffffffffffffffffffffffffffffffffffffffffffffffffffffffffffffff81614ac557fe5b0490505b60006401000000008281614ad957fe5b0614614ae6576001614ae9565b60005b60ff16602082901c0192505050919050565b60008060008060008873ffffffffffffffffffffffffffffffffffffffff168a73ffffffffffffffffffffffffffffffffffffffff161015905060008088121590508015614baa576000614b5d8989620f42400362ffffff16620f4240614dd3565b905082614b7657614b718c8c8c6001616adc565b614b84565b614b838b8d8c6001616bb6565b5b9550858110614b95578a9650614ba4565b614ba18c8b8386616cec565b96505b50614bf6565b81614bc157614bbc8b8b8b6000616bb6565b614bcf565b614bce8a8c8b6000616adc565b5b9350838860000310614be357899550614bf5565b614bf28b8a8a60000385616d5e565b95505b5b60008673ffffffffffffffffffffffffffffffffffffffff168b73ffffffffffffffffffffffffffffffffffffffff161490508215614c7d57808015614c395750815b614c4f57614c4a878d8c6001616bb6565b614c51565b855b9550808015614c5e575081155b614c7457614c6f878d8c6000616adc565b614c76565b845b9450614cc7565b808015614c875750815b614c9d57614c988c888c6001616adc565b614c9f565b855b9550808015614cac575081155b614cc257614cbd8c888c6000616bb6565b614cc4565b845b94505b81158015614cd757508860000385115b15614ce3578860000394505b818015614d1c57508a73ffffffffffffffffffffffffffffffffffffffff168773ffffffffffffffffffffffffffffffffffffffff1614155b15614d2b578589039350614d48565b614d45868962ffffff168a620f42400362ffffff16616345565b93505b50505095509550955095915050565b60007f80000000000000000000000000000000000000000000000000000000000000008210614d8557600080fd5b819050919050565b6000808212151515838385039250821315151514614daa57600080fd5b92915050565b6000808212151515838385019250821215151514614dcd57600080fd5b92915050565b600080600080198587098587029250828110838203039150506000811415614e0e5760008411614e0257600080fd5b83820492505050614ea6565b808411614e1a57600080fd5b600084868809905082811182039150808303925060008586600003169050808604955080840493506001818260000304019050808302841793506000600287600302189050808702600203810290508087026002038102905080870260020381029050808702600203810290508087026002038102905080870260020381029050808502955050505050505b9392505050565b60008060008763ffffffff161415614fce576000898661ffff1661ffff8110614ed257fe5b016040518060800160405290816000820160009054906101000a900463ffffffff1663ffffffff1663ffffffff1681526020016000820160049054906101000a900460060b60060b60060b815260200160008201600b9054906101000a900473ffffffffffffffffffffffffffffffffffffffff1673ffffffffffffffffffffffffffffffffffffffff1673ffffffffffffffffffffffffffffffffffffffff16815260200160008201601f9054906101000a900460ff16151515158152505090508863ffffffff16816000015163ffffffff1614614fba57614fb7818a8988616dd0565b90505b8060200151816040015192509250506150d4565b60008789039050600080614fe78c8c858c8c8c8c616ebb565b91509150816000015163ffffffff168363ffffffff1614156150195781602001518260400151945094505050506150d4565b806000015163ffffffff168363ffffffff1614156150475780602001518160400151945094505050506150d4565b60008260000151826000015103905060008360000151850390508063ffffffff168263ffffffff16856020015185602001510360060b8161508457fe5b05028460200151018263ffffffff168263ffffffff16866040015186604001510373ffffffffffffffffffffffffffffffffffffffff1602816150c357fe5b048560400151019650965050505050505b97509795505050505050565b6000808860008960020b60020b815260200190815260200160002090508060010154870381600101819055508060020154860381600201819055508060030160079054906101000a900473ffffffffffffffffffffffffffffffffffffffff1685038160030160076101000a81548173ffffffffffffffffffffffffffffffffffffffff021916908373ffffffffffffffffffffffffffffffffffffffff1602179055508060030160009054906101000a900460060b84038160030160006101000a81548166ffffffffffffff021916908360060b66ffffffffffffff16021790555080600301601b9054906101000a900463ffffffff16830381600301601b6101000a81548163ffffffff021916908363ffffffff1602179055508060000160109054906101000a9004600f0b915050979650505050505050565b60008082600f0b12156152cf57826fffffffffffffffffffffffffffffffff168260000384039150816fffffffffffffffffffffffffffffffff16106152ca576040517f08c379a00000000000000000000000000000000000000000000000000000000081526004018080602001828103825260028152602001807f4c5300000000000000000000000000000000000000000000000000000000000081525060200191505060405180910390fd5b61536f565b826fffffffffffffffffffffffffffffffff168284019150816fffffffffffffffffffffffffffffffff16101561536e576040517f08c379a00000000000000000000000000000000000000000000000000000000081526004018080602001828103825260028152602001807f4c4100000000000000000000000000000000000000000000000000000000000081525060200191505060405180910390fd5b5b92915050565b60006401000276a373ffffffffffffffffffffffffffffffffffffffff168273ffffffffffffffffffffffffffffffffffffffff16101580156153f7575073fffd8963efd1fc6a506488495d951d5263988d2673ffffffffffffffffffffffffffffffffffffffff168273ffffffffffffffffffffffffffffffffffffffff16105b615469576040517f08c379a00000000000000000000000000000000000000000000000000000000081526004018080602001828103825260018152602001807f520000000000000000000000000000000000000000000000000000000000000081525060200191505060405180910390fd5b600060208373ffffffffffffffffffffffffffffffffffffffff16901b9050600081905060006fffffffffffffffffffffffffffffffff821160071b808217915082811c92505067ffffffffffffffff821160061b808217915082811c92505063ffffffff821160051b808217915082811c92505061ffff821160041b808217915082811c92505060ff821160031b808217915082811c925050600f821160021b808217915082811c9250506003821160011b808217915082811c925050600182118082179150506080811061554757607f810383901c9150615551565b80607f0383901b91505b6000604060808303901b9050828302607f1c92508260801c80603f1b8217915083811c935050828302607f1c92508260801c80603e1b8217915083811c935050828302607f1c92508260801c80603d1b8217915083811c935050828302607f1c92508260801c80603c1b8217915083811c935050828302607f1c92508260801c80603b1b8217915083811c935050828302607f1c92508260801c80603a1b8217915083811c935050828302607f1c92508260801c8060391b8217915083811c935050828302607f1c92508260801c8060381b8217915083811c935050828302607f1c92508260801c8060371b8217915083811c935050828302607f1c92508260801c8060361b8217915083811c935050828302607f1c92508260801c8060351b8217915083811c935050828302607f1c92508260801c8060341b8217915083811c935050828302607f1c92508260801c8060331b8217915083811c935050828302607f1c92508260801c8060321b82179150506000693627a301d71055774c8582029050600060806f028f6481ab7f045a5af012a19d003aaa8303901d9050600060806fdb2df09e81959a81455e260799a0632f8401901d90508060020b8260020b14615761578873ffffffffffffffffffffffffffffffffffffffff16615738826146c0565b73ffffffffffffffffffffffffffffffffffffffff16111561575a578161575c565b805b615763565b815b975050505050505050919050565b6000806000898961ffff1661ffff811061578757fe5b016040518060800160405290816000820160009054906101000a900463ffffffff1663ffffffff1663ffffffff1681526020016000820160049054906101000a900460060b60060b60060b815260200160008201600b9054906101000a900473ffffffffffffffffffffffffffffffffffffffff1673ffffffffffffffffffffffffffffffffffffffff1673ffffffffffffffffffffffffffffffffffffffff16815260200160008201601f9054906101000a900460ff16151515158152505090508763ffffffff16816000015163ffffffff16141561586d5788859250925050615997565b8461ffff168461ffff1611801561588e57506001850361ffff168961ffff16145b1561589b5783915061589f565b8491505b8161ffff1660018a0161ffff16816158b357fe5b0692506158c281898989616dd0565b8a8461ffff1661ffff81106158d357fe5b0160008201518160000160006101000a81548163ffffffff021916908363ffffffff16021790555060208201518160000160046101000a81548166ffffffffffffff021916908360060b66ffffffffffffff160217905550604082015181600001600b6101000a81548173ffffffffffffffffffffffffffffffffffffffff021916908373ffffffffffffffffffffffffffffffffffffffff160217905550606082015181600001601f6101000a81548160ff021916908315150217905550905050505b97509795505050505050565b6000808473ffffffffffffffffffffffffffffffffffffffff1663a9059cbb60e01b8585604051602401808373ffffffffffffffffffffffffffffffffffffffff16815260200182815260200192505050604051602081830303815290604052907bffffffffffffffffffffffffffffffffffffffffffffffffffffffff19166020820180517bffffffffffffffffffffffffffffffffffffffffffffffffffffffff83818316178352505050506040518082805190602001908083835b60208310615a845780518252602082019150602081019050602083039250615a61565b6001836020036101000a0380198251168184511680821785525050505050509050019150506000604051808303816000865af19150503d8060008114615ae6576040519150601f19603f3d011682016040523d82523d6000602084013e615aeb565b606091505b5091509150818015615b2b5750600081511480615b2a5750808060200190516020811015615b1857600080fd5b81019080805190602001909291905050505b5b615b9d576040517f08c379a00000000000000000000000000000000000000000000000000000000081526004018080602001828103825260028152602001807f544600000000000000000000000000000000000000000000000000000000000081525060200191505060405180910390fd5b5050505050565b60008060007f000000000000000000000000000000000000000000000000000000000000000073ffffffffffffffffffffffffffffffffffffffff166370a0823160e01b30604051602401808273ffffffffffffffffffffffffffffffffffffffff168152602001915050604051602081830303815290604052907bffffffffffffffffffffffffffffffffffffffffffffffffffffffff19166020820180517bffffffffffffffffffffffffffffffffffffffffffffffffffffffff83818316178352505050506040518082805190602001908083835b60208310615c9f5780518252602082019150602081019050602083039250615c7c565b6001836020036101000a038019825116818451168082178552505050505050905001915050600060405180830381855afa9150503d8060008114615cff576040519150601f19603f3d011682016040523d82523d6000602084013e615d04565b606091505b5091509150818015615d1857506020815110155b615d2157600080fd5b808060200190516020811015615d3657600080fd5b81019080805190602001909291905050509250505090565b6000828284019150811015615d6257600080fd5b92915050565b60008060007f000000000000000000000000000000000000000000000000000000000000000073ffffffffffffffffffffffffffffffffffffffff166370a0823160e01b30604051602401808273ffffffffffffffffffffffffffffffffffffffff168152602001915050604051602081830303815290604052907bffffffffffffffffffffffffffffffffffffffffffffffffffffffff19166020820180517bffffffffffffffffffffffffffffffffffffffffffffffffffffffff83818316178352505050506040518082805190602001908083835b60208310615e635780518252602082019150602081019050602083039250615e40565b6001836020036101000a038019825116818451168082178552505050505050905001915050600060405180830381855afa9150503d8060008114615ec3576040519150601f19603f3d011682016040523d82523d6000602084013e615ec8565b606091505b5091509150818015615edc57506020815110155b615ee557600080fd5b808060200190516020811015615efa57600080fd5b81019080805190602001909291905050509250505090565b6000808361ffff1611615f8d576040517f08c379a00000000000000000000000000000000000000000000000000000000081526004018080602001828103825260018152602001807f490000000000000000000000000000000000000000000000000000000000000081525060200191505060405180910390fd5b8261ffff168261ffff1611615fa457829050616001565b60008390505b8261ffff168161ffff161015615ffc576001858261ffff1661ffff8110615fcd57fe5b0160000160006101000a81548163ffffffff021916908363ffffffff1602179055508080600101915050615faa565b508190505b9392505050565b60008182915081600f0b1461601c57600080fd5b919050565b600080600061602e614506565b616040846020015185604001516165d7565b6000806040518060e00160405290816000820160009054906101000a900473ffffffffffffffffffffffffffffffffffffffff1673ffffffffffffffffffffffffffffffffffffffff1673ffffffffffffffffffffffffffffffffffffffff1681526020016000820160149054906101000a900460020b60020b60020b81526020016000820160179054906101000a900461ffff1661ffff1661ffff1681526020016000820160199054906101000a900461ffff1661ffff1661ffff16815260200160008201601b9054906101000a900461ffff1661ffff1661ffff16815260200160008201601d9054906101000a900460ff1660ff1660ff16815260200160008201601e9054906101000a900460ff161515151581525050905061617c85600001518660200151876040015188606001518560200151617245565b935060008560600151600f0b1461633d57846020015160020b816020015160020b12156161d1576161ca6161b386602001516146c0565b6161c087604001516146c0565b876060015161749e565b925061633c565b846040015160020b816020015160020b1215616311576000600460009054906101000a90046fffffffffffffffffffffffffffffffff16905061623f826040015161621a614560565b846020015184866060015187608001516008615771909695949392919063ffffffff16565b6000800160176000800160198491906101000a81548161ffff021916908361ffff1602179055508391906101000a81548161ffff021916908361ffff16021790555050506162a2826000015161629888604001516146c0565b886060015161749e565b93506162c36162b487602001516146c0565b836000015188606001516174e9565b92506162d381876060015161521c565b600460006101000a8154816fffffffffffffffffffffffffffffffff02191690836fffffffffffffffffffffffffffffffff1602179055505061633b565b61633861632186602001516146c0565b61632e87604001516146c0565b87606001516174e9565b91505b5b5b509193909250565b6000616352848484614dd3565b90506000828061635e57fe5b848609111561639c577fffffffffffffffffffffffffffffffffffffffffffffffffffffffffffffffff811061639357600080fd5b80806001019150505b9392505050565b6000846000858585604051602001808473ffffffffffffffffffffffffffffffffffffffff1660601b81526014018360020b60e81b81526003018260020b60e81b815260030193505050506040516020818303038152906040528051906020012081526020019081526020016000209050949350505050565b60608060008361ffff1611616499576040517f08c379a00000000000000000000000000000000000000000000000000000000081526004018080602001828103825260018152602001807f490000000000000000000000000000000000000000000000000000000000000081525060200191505060405180910390fd5b865167ffffffffffffffff811180156164b157600080fd5b506040519080825280602002602001820160405280156164e05781602001602082028036833780820191505090505b509150865167ffffffffffffffff811180156164fb57600080fd5b5060405190808252806020026020018201604052801561652a5781602001602082028036833780820191505090505b50905060005b87518110156165ca5761655b8a8a8a848151811061654a57fe5b60200260200101518a8a8a8a614ead565b84838151811061656757fe5b6020026020010184848151811061657a57fe5b602002602001018273ffffffffffffffffffffffffffffffffffffffff1673ffffffffffffffffffffffffffffffffffffffff168152508260060b60060b81525050508080600101915050616530565b5097509795505050505050565b8060020b8260020b12616652576040517f08c379a00000000000000000000000000000000000000000000000000000000081526004018080602001828103825260038152602001807f544c55000000000000000000000000000000000000000000000000000000000081525060200191505060405180910390fd5b7ffffffffffffffffffffffffffffffffffffffffffffffffffffffffffff2761860020b8260020b12156166ee576040517f08c379a00000000000000000000000000000000000000000000000000000000081526004018080602001828103825260038152602001807f544c4d000000000000000000000000000000000000000000000000000000000081525060200191505060405180910390fd5b7ffffffffffffffffffffffffffffffffffffffffffffffffffffffffffff2761860000360020b8160020b131561678d576040517f08c379a00000000000000000000000000000000000000000000000000000000081526004018080602001828103825260038152602001807f54554d000000000000000000000000000000000000000000000000000000000081525060200191505060405180910390fd5b5050565b60008060405180608001604052808463ffffffff168152602001600060060b8152602001600073ffffffffffffffffffffffffffffffffffffffff1681526020016001151581525084600061ffff81106167e757fe5b0160008201518160000160006101000a81548163ffffffff021916908363ffffffff16021790555060208201518160000160046101000a81548166ffffffffffffff021916908360060b66ffffffffffffff160217905550604082015181600001600b6101000a81548173ffffffffffffffffffffffffffffffffffffffff021916908373ffffffffffffffffffffffffffffffffffffffff160217905550606082015181600001601f6101000a81548160ff021916908315150217905550905050600180915091509250929050565b60008060088360020b901d91506101008360020b816168d257fe5b079050915091565b60008082116168e857600080fd5b700100000000000000000000000000000000821061690e57608082901c91506080810190505b68010000000000000000821061692c57604082901c91506040810190505b640100000000821061694657602082901c91506020810190505b62010000821061695e57601082901c91506010810190505b610100821061697557600882901c91506008810190505b6010821061698b57600482901c91506004810190505b600482106169a157600282901c91506002810190505b600282106169b0576001810190505b919050565b60008082116169c357600080fd5b60ff905060006fffffffffffffffffffffffffffffffff8016831611156169ef576080810390506169f7565b608082901c91505b600067ffffffffffffffff801683161115616a1757604081039050616a1f565b604082901c91505b600063ffffffff801683161115616a3b57602081039050616a43565b602082901c91505b600061ffff801683161115616a5d57601081039050616a65565b601082901c91505b600060ff801683161115616a7e57600881039050616a86565b600882901c91505b6000600f83161115616a9d57600481039050616aa5565b600482901c91505b6000600383161115616abc57600281039050616ac4565b600282901c91505b6000600183161115616ad7576001810390505b919050565b60008373ffffffffffffffffffffffffffffffffffffffff168573ffffffffffffffffffffffffffffffffffffffff161115616b1d57838580955081965050505b81616b6957616b64836fffffffffffffffffffffffffffffffff1686860373ffffffffffffffffffffffffffffffffffffffff166c01000000000000000000000000614dd3565b616bac565b616bab836fffffffffffffffffffffffffffffffff1686860373ffffffffffffffffffffffffffffffffffffffff166c01000000000000000000000000616345565b5b9050949350505050565b60008373ffffffffffffffffffffffffffffffffffffffff168573ffffffffffffffffffffffffffffffffffffffff161115616bf757838580955081965050505b6000606060ff16846fffffffffffffffffffffffffffffffff16901b9050600086860373ffffffffffffffffffffffffffffffffffffffff16905060008773ffffffffffffffffffffffffffffffffffffffff1611616c5557600080fd5b83616c9f578673ffffffffffffffffffffffffffffffffffffffff16616c9283838973ffffffffffffffffffffffffffffffffffffffff16614dd3565b81616c9957fe5b04616ce0565b616cdf616cc383838973ffffffffffffffffffffffffffffffffffffffff16616345565b8873ffffffffffffffffffffffffffffffffffffffff16617534565b5b92505050949350505050565b6000808573ffffffffffffffffffffffffffffffffffffffff1611616d1057600080fd5b6000846fffffffffffffffffffffffffffffffff1611616d2f57600080fd5b81616d4657616d418585856001617547565b616d54565b616d5385858560016176b9565b5b9050949350505050565b6000808573ffffffffffffffffffffffffffffffffffffffff1611616d8257600080fd5b6000846fffffffffffffffffffffffffffffffff1611616da157600080fd5b81616db857616db385858560006176b9565b616dc6565b616dc58585856000617547565b5b9050949350505050565b616dd86184ce565b600085600001518503905060405180608001604052808663ffffffff1681526020018263ffffffff168660020b0288602001510160060b81526020016000856fffffffffffffffffffffffffffffffff1611616e35576001616e37565b845b6fffffffffffffffffffffffffffffffff1660808463ffffffff1673ffffffffffffffffffffffffffffffffffffffff16901b73ffffffffffffffffffffffffffffffffffffffff1681616e8757fe5b0488604001510173ffffffffffffffffffffffffffffffffffffffff16815260200160011515815250915050949350505050565b616ec36184ce565b616ecb6184ce565b888561ffff1661ffff8110616edc57fe5b016040518060800160405290816000820160009054906101000a900463ffffffff1663ffffffff1663ffffffff1681526020016000820160049054906101000a900460060b60060b60060b815260200160008201600b9054906101000a900473ffffffffffffffffffffffffffffffffffffffff1673ffffffffffffffffffffffffffffffffffffffff1673ffffffffffffffffffffffffffffffffffffffff16815260200160008201601f9054906101000a900460ff1615151515815250509150616fad88836000015189617843565b15616fe5578663ffffffff16826000015163ffffffff161415616fcf57617239565b81616fdc83898988616dd0565b91509150617239565b888361ffff166001870161ffff1681616ffa57fe5b0661ffff1661ffff811061700a57fe5b016040518060800160405290816000820160009054906101000a900463ffffffff1663ffffffff1663ffffffff1681526020016000820160049054906101000a900460060b60060b60060b815260200160008201600b9054906101000a900473ffffffffffffffffffffffffffffffffffffffff1673ffffffffffffffffffffffffffffffffffffffff1673ffffffffffffffffffffffffffffffffffffffff16815260200160008201601f9054906101000a900460ff161515151581525050915081606001516171a65788600061ffff81106170e357fe5b016040518060800160405290816000820160009054906101000a900463ffffffff1663ffffffff1663ffffffff1681526020016000820160049054906101000a900460060b60060b60060b815260200160008201600b9054906101000a900473ffffffffffffffffffffffffffffffffffffffff1673ffffffffffffffffffffffffffffffffffffffff1673ffffffffffffffffffffffffffffffffffffffff16815260200160008201601f9054906101000a900460ff16151515158152505091505b6171b588836000015189617843565b617227576040517f08c379a00000000000000000000000000000000000000000000000000000000081526004018080602001828103825260038152602001807f4f4c44000000000000000000000000000000000000000000000000000000000081525060200191505060405180910390fd5b617234898989888761790b565b915091505b97509795505050505050565b600061725f86868660076163a3909392919063ffffffff16565b90506000600154905060006002549050600080600087600f0b14617412576000617287614560565b90506000806172fe8360008060000160149054906101000a900460020b6000800160179054906101000a900461ffff16600460009054906101000a90046fffffffffffffffffffffffffffffffff166000800160199054906101000a900461ffff166008614ead909695949392919063ffffffff16565b915091506173498c8a8c8a8a86888a60007f00000000000000000000000000000000000000000000000000000000000000006005617b8e909a9998979695949392919063ffffffff16565b94506173928b8a8c8a8a86888a60017f00000000000000000000000000000000000000000000000000000000000000006005617b8e909a9998979695949392919063ffffffff16565b935084156173d1576173d08c7f00000000000000000000000000000000000000000000000000000000000000006006617e909092919063ffffffff16565b5b831561740e5761740d8b7f00000000000000000000000000000000000000000000000000000000000000006006617e909092919063ffffffff16565b5b5050505b6000806174318b8b8a89896005617f089095949392919063ffffffff16565b9150915061744c8983838a617fcf909392919063ffffffff16565b600089600f0b121561748f578315617473576174728b600561835390919063ffffffff16565b5b821561748e5761748d8a600561835390919063ffffffff16565b5b5b50505050505095945050505050565b60008082600f0b126174c4576174bf6174ba8585856001616bb6565b614d57565b6174e0565b6174dc6174d78585856000036000616bb6565b614d57565b6000035b90509392505050565b60008082600f0b1261750f5761750a6175058585856001616adc565b614d57565b61752b565b6175276175228585856000036000616adc565b614d57565b6000035b90509392505050565b6000808284061182840401905092915050565b600081156175fd57600073ffffffffffffffffffffffffffffffffffffffff801684111561759e57617599846c01000000000000000000000000876fffffffffffffffffffffffffffffffff16614dd3565b6175c2565b846fffffffffffffffffffffffffffffffff16606060ff1685901b816175c057fe5b045b90506175f56175f0828873ffffffffffffffffffffffffffffffffffffffff16615d4e90919063ffffffff16565b618434565b9150506176b1565b600073ffffffffffffffffffffffffffffffffffffffff801684111561764c57617647846c01000000000000000000000000876fffffffffffffffffffffffffffffffff16616345565b617670565b61766f606060ff1685901b866fffffffffffffffffffffffffffffffff16617534565b5b9050808673ffffffffffffffffffffffffffffffffffffffff161161769457600080fd5b808673ffffffffffffffffffffffffffffffffffffffff16039150505b949350505050565b6000808314156176cb5784905061783b565b6000606060ff16856fffffffffffffffffffffffffffffffff16901b905082156177b25760008673ffffffffffffffffffffffffffffffffffffffff16858873ffffffffffffffffffffffffffffffffffffffff1687029250828161772c57fe5b04141561776e576000818301905082811061776c57617762838973ffffffffffffffffffffffffffffffffffffffff1683616345565b935050505061783b565b505b6177a9826177a4878a73ffffffffffffffffffffffffffffffffffffffff16868161779557fe5b04615d4e90919063ffffffff16565b617534565b9250505061783b565b60008673ffffffffffffffffffffffffffffffffffffffff16858873ffffffffffffffffffffffffffffffffffffffff168702925082816177ef57fe5b041480156177fc57508082115b61780557600080fd5b60008183039050617835617830848a73ffffffffffffffffffffffffffffffffffffffff1684616345565b618434565b93505050505b949350505050565b60008363ffffffff168363ffffffff161115801561786d57508363ffffffff168263ffffffff1611155b15617889578163ffffffff168363ffffffff1611159050617904565b60008463ffffffff168463ffffffff16116178b1576401000000008463ffffffff16016178b9565b8363ffffffff165b64ffffffffff16905060008563ffffffff168463ffffffff16116178ea576401000000008463ffffffff16016178f2565b8363ffffffff165b64ffffffffff16905080821115925050505b9392505050565b6179136184ce565b61791b6184ce565b60008361ffff166001860161ffff168161793157fe5b0661ffff169050600060018561ffff16830103905060005b600115617b815760028284018161795c57fe5b049050898661ffff16828161796d57fe5b0661ffff811061797957fe5b016040518060800160405290816000820160009054906101000a900463ffffffff1663ffffffff1663ffffffff1681526020016000820160049054906101000a900460060b60060b60060b815260200160008201600b9054906101000a900473ffffffffffffffffffffffffffffffffffffffff1673ffffffffffffffffffffffffffffffffffffffff1673ffffffffffffffffffffffffffffffffffffffff16815260200160008201601f9054906101000a900460ff16151515158152505094508460600151617a4f57600181019250617949565b898661ffff166001830181617a6057fe5b0661ffff8110617a6c57fe5b016040518060800160405290816000820160009054906101000a900463ffffffff1663ffffffff1663ffffffff1681526020016000820160049054906101000a900460060b60060b60060b815260200160008201600b9054906101000a900473ffffffffffffffffffffffffffffffffffffffff1673ffffffffffffffffffffffffffffffffffffffff1673ffffffffffffffffffffffffffffffffffffffff16815260200160008201601f9054906101000a900460ff16151515158152505093506000617b3f8a87600001518b617843565b9050808015617b595750617b588a8a8760000151617843565b5b15617b645750617b81565b80617b7457600182039250617b7b565b6001820193505b50617949565b5050509550959350505050565b6000808c60008d60020b60020b8152602001908152602001600020905060008160000160009054906101000a90046fffffffffffffffffffffffffffffffff1690506000617bdc828d61521c565b9050846fffffffffffffffffffffffffffffffff16816fffffffffffffffffffffffffffffffff161115617c78576040517f08c379a00000000000000000000000000000000000000000000000000000000081526004018080602001828103825260028152602001807f4c4f00000000000000000000000000000000000000000000000000000000000081525060200191505060405180910390fd5b6000826fffffffffffffffffffffffffffffffff161415156000826fffffffffffffffffffffffffffffffff16141515141593506000826fffffffffffffffffffffffffffffffff161415617d97578c60020b8e60020b13617d79578a8360010181905550898360020181905550888360030160076101000a81548173ffffffffffffffffffffffffffffffffffffffff021916908373ffffffffffffffffffffffffffffffffffffffff160217905550878360030160006101000a81548166ffffffffffffff021916908360060b66ffffffffffffff1602179055508683600301601b6101000a81548163ffffffff021916908363ffffffff1602179055505b600183600301601f6101000a81548160ff0219169083151502179055505b808360000160006101000a8154816fffffffffffffffffffffffffffffffff02191690836fffffffffffffffffffffffffffffffff16021790555085617e0e57617e09617e048d600f0b8560000160109054906101000a9004600f0b600f0b614db090919063ffffffff16565b616008565b617e41565b617e40617e3b8d600f0b8560000160109054906101000a9004600f0b600f0b614d8d90919063ffffffff16565b616008565b5b8360000160106101000a8154816fffffffffffffffffffffffffffffffff0219169083600f0b6fffffffffffffffffffffffffffffffff1602179055505050509b9a5050505050505050505050565b60008160020b8360020b81617ea157fe5b0760020b14617eaf57600080fd5b600080617eca8360020b8560020b81617ec457fe5b056168b7565b9150915060008160ff166001901b9050808660008560010b60010b815260200190815260200160002060008282541892505081905550505050505050565b60008060008860008960020b60020b8152602001908152602001600020905060008960008960020b60020b815260200190815260200160002090506000808a60020b8960020b12617f66578360010154915083600201549050617f79565b8360010154880391508360020154870390505b6000808b60020b8b60020b1215617f9d578460010154915084600201549050617fb0565b84600101548a0391508460020154890390505b81848b0303975080838a03039650505050505050965096945050505050565b6000846040518060a00160405290816000820160009054906101000a90046fffffffffffffffffffffffffffffffff166fffffffffffffffffffffffffffffffff166fffffffffffffffffffffffffffffffff16815260200160018201548152602001600282015481526020016003820160009054906101000a90046fffffffffffffffffffffffffffffffff166fffffffffffffffffffffffffffffffff166fffffffffffffffffffffffffffffffff1681526020016003820160109054906101000a90046fffffffffffffffffffffffffffffffff166fffffffffffffffffffffffffffffffff166fffffffffffffffffffffffffffffffff1681525050905060008085600f0b141561817657600082600001516fffffffffffffffffffffffffffffffff161161816a576040517f08c379a00000000000000000000000000000000000000000000000000000000081526004018080602001828103825260028152602001807f4e5000000000000000000000000000000000000000000000000000000000000081525060200191505060405180910390fd5b81600001519050618187565b61818482600001518661521c565b90505b60006181c18360200151860384600001516fffffffffffffffffffffffffffffffff16700100000000000000000000000000000000614dd3565b905060006181fd8460400151860385600001516fffffffffffffffffffffffffffffffff16700100000000000000000000000000000000614dd3565b9050600087600f0b1461824657828860000160006101000a8154816fffffffffffffffffffffffffffffffff02191690836fffffffffffffffffffffffffffffffff1602179055505b8588600101819055508488600201819055506000826fffffffffffffffffffffffffffffffff16118061828b57506000816fffffffffffffffffffffffffffffffff16115b1561834957818860030160008282829054906101000a90046fffffffffffffffffffffffffffffffff160192506101000a8154816fffffffffffffffffffffffffffffffff02191690836fffffffffffffffffffffffffffffffff160217905550808860030160108282829054906101000a90046fffffffffffffffffffffffffffffffff160192506101000a8154816fffffffffffffffffffffffffffffffff02191690836fffffffffffffffffffffffffffffffff1602179055505b5050505050505050565b8160008260020b60020b8152602001908152602001600020600080820160006101000a8154906fffffffffffffffffffffffffffffffff02191690556000820160106101000a8154906fffffffffffffffffffffffffffffffff0219169055600182016000905560028201600090556003820160006101000a81549066ffffffffffffff02191690556003820160076101000a81549073ffffffffffffffffffffffffffffffffffffffff021916905560038201601b6101000a81549063ffffffff021916905560038201601f6101000a81549060ff021916905550505050565b6000818291508173ffffffffffffffffffffffffffffffffffffffff161461845b57600080fd5b919050565b6040518060e00160405280600073ffffffffffffffffffffffffffffffffffffffff168152602001600060020b8152602001600015158152602001600073ffffffffffffffffffffffffffffffffffffffff1681526020016000815260200160008152602001600081525090565b6040518060800160405280600063ffffffff168152602001600060060b8152602001600073ffffffffffffffffffffffffffffffffffffffff168152602001600015158152509056fea2646970667358221220a469d9a1ecf67201c27bfe5a3513ab9005ba780ef03393a502380778f071042e64736f6c63430007060033a2646970667358221220f8ddaf2563e2c1b6cf3d1b4a1d3cd7568b4cc06b9feca5329257823870b90caf64736f6c63430007060033",
  "immutableReferences": {
    "38": [
      {
        "length": 32,
        "start": 2836
      }
    ]
  },
  "source": "// SPDX-License-Identifier: BUSL-1.1\r\npragma solidity =0.7.6;\r\n\r\nimport './interfaces/IUniswapV3Factory.sol';\r\n\r\nimport './UniswapV3PoolDeployer.sol';\r\nimport './NoDelegateCall.sol';\r\n\r\nimport './UniswapV3Pool.sol';\r\n\r\n/// @title Canonical Uniswap V3 factory\r\n/// @notice Deploys Uniswap V3 pools and manages ownership and control over pool protocol fees\r\ncontract UniswapV3Factory is IUniswapV3Factory, UniswapV3PoolDeployer, NoDelegateCall {\r\n    /// @inheritdoc IUniswapV3Factory\r\n    address public override owner;\r\n\r\n    /// @inheritdoc IUniswapV3Factory\r\n    mapping(uint24 => int24) public override feeAmountTickSpacing;\r\n    /// @inheritdoc IUniswapV3Factory\r\n    mapping(address => mapping(address => mapping(uint24 => address))) public override getPool;\r\n\r\n    constructor() {\r\n        owner = msg.sender;\r\n        emit OwnerChanged(address(0), msg.sender);\r\n\r\n        feeAmountTickSpacing[500] = 10;\r\n        emit FeeAmountEnabled(500, 10);\r\n        feeAmountTickSpacing[3000] = 60;\r\n        emit FeeAmountEnabled(3000, 60);\r\n        feeAmountTickSpacing[10000] = 200;\r\n        emit FeeAmountEnabled(10000, 200);\r\n    }\r\n\r\n    /// @inheritdoc IUniswapV3Factory\r\n    function createPool(\r\n        address tokenA,\r\n        address tokenB,\r\n        uint24 fee\r\n    ) external override noDelegateCall returns (address pool) {\r\n        require(tokenA != tokenB);\r\n        (address token0, address token1) = tokenA < tokenB ? (tokenA, tokenB) : (tokenB, tokenA);\r\n        require(token0 != address(0));\r\n        int24 tickSpacing = feeAmountTickSpacing[fee];\r\n        require(tickSpacing != 0);\r\n        require(getPool[token0][token1][fee] == address(0));\r\n        pool = deploy(address(this), token0, token1, fee, tickSpacing);\r\n        getPool[token0][token1][fee] = pool;\r\n        // populate mapping in the reverse direction, deliberate choice to avoid the cost of comparing addresses\r\n        getPool[token1][token0][fee] = pool;\r\n        emit PoolCreated(token0, token1, fee, tickSpacing, pool);\r\n    }\r\n\r\n    /// @inheritdoc IUniswapV3Factory\r\n    function setOwner(address _owner) external override {\r\n        require(msg.sender == owner);\r\n        emit OwnerChanged(owner, _owner);\r\n        owner = _owner;\r\n    }\r\n\r\n    /// @inheritdoc IUniswapV3Factory\r\n    function enableFeeAmount(uint24 fee, int24 tickSpacing) public override {\r\n        require(msg.sender == owner);\r\n        require(fee < 1000000);\r\n        // tick spacing is capped at 16384 to prevent the situation where tickSpacing is so large that\r\n        // TickBitmap#nextInitializedTickWithinOneWord overflows int24 container from a valid tick\r\n        // 16384 ticks represents a >5x price change with ticks of 1 bips\r\n        require(tickSpacing > 0 && tickSpacing < 16384);\r\n        require(feeAmountTickSpacing[fee] == 0);\r\n\r\n        feeAmountTickSpacing[fee] = tickSpacing;\r\n        emit FeeAmountEnabled(fee, tickSpacing);\r\n    }\r\n}",
  "sourcePath": "C:\\Users\\Numan\\Desktop\\Uniswap v3\\contracts\\UniswapV3Factory.sol",
  "compiler": {
    "name": "solc",
    "version": "0.7.6+commit.7338295f.Emscripten.clang"
  },
  "schemaVersion": "3.4.4",
  "updatedAt": "2022-08-13T07:28:44.520Z",
  "devdoc": {
    "kind": "dev",
    "methods": {
      "createPool(address,address,uint24)": {
        "details": "tokenA and tokenB may be passed in either order: token0/token1 or token1/token0. tickSpacing is retrieved from the fee. The call will revert if the pool already exists, the fee is invalid, or the token arguments are invalid.",
        "params": {
          "fee": "The desired fee for the pool",
          "tokenA": "One of the two tokens in the desired pool",
          "tokenB": "The other of the two tokens in the desired pool"
        },
        "returns": {
          "pool": "The address of the newly created pool"
        }
      },
      "enableFeeAmount(uint24,int24)": {
        "details": "Fee amounts may never be removed once enabled",
        "params": {
          "fee": "The fee amount to enable, denominated in hundredths of a bip (i.e. 1e-6)",
          "tickSpacing": "The spacing between ticks to be enforced for all pools created with the given fee amount"
        }
      },
      "setOwner(address)": {
        "details": "Must be called by the current owner",
        "params": {
          "_owner": "The new owner of the factory"
        }
      }
    },
    "stateVariables": {
      "feeAmountTickSpacing": {
        "details": "A fee amount can never be removed, so this value should be hard coded or cached in the calling context",
        "params": {
          "fee": "The enabled fee, denominated in hundredths of a bip. Returns 0 in case of unenabled fee"
        },
        "return": "The tick spacing"
      },
      "getPool": {
        "details": "tokenA and tokenB may be passed in either token0/token1 or token1/token0 order",
        "params": {
          "fee": "The fee collected upon every swap in the pool, denominated in hundredths of a bip",
          "tokenA": "The contract address of either token0 or token1",
          "tokenB": "The contract address of the other token"
        },
        "return": "pool The pool address"
      },
      "owner": {
        "details": "Can be changed by the current owner via setOwner",
        "return": "The address of the factory owner"
      }
    },
    "title": "Canonical Uniswap V3 factory",
    "version": 1
  },
  "userdoc": {
    "events": {
      "FeeAmountEnabled(uint24,int24)": {
        "notice": "Emitted when a new fee amount is enabled for pool creation via the factory"
      },
      "OwnerChanged(address,address)": {
        "notice": "Emitted when the owner of the factory is changed"
      },
      "PoolCreated(address,address,uint24,int24,address)": {
        "notice": "Emitted when a pool is created"
      }
    },
    "kind": "user",
    "methods": {
      "createPool(address,address,uint24)": {
        "notice": "Creates a pool for the given two tokens and fee"
      },
      "enableFeeAmount(uint24,int24)": {
        "notice": "Enables a fee amount with the given tickSpacing"
      },
      "feeAmountTickSpacing(uint24)": {
        "notice": "Returns the tick spacing for a given fee amount, if enabled, or 0 if not enabled"
      },
      "getPool(address,address,uint24)": {
        "notice": "Returns the pool address for a given pair of tokens and a fee, or address 0 if it does not exist"
      },
      "owner()": {
        "notice": "Returns the current owner of the factory"
      },
      "parameters()": {
        "notice": "Get the parameters to be used in constructing the pool, set transiently during pool creation."
      },
      "setOwner(address)": {
        "notice": "Updates the owner of the factory"
      }
    },
    "notice": "Deploys Uniswap V3 pools and manages ownership and control over pool protocol fees",
    "version": 1
  }
}