{
  "contractName": "UniswapV3PoolDeployer",
  "abi": [
    {
      "inputs": [],
      "name": "parameters",
      "outputs": [
        {
          "internalType": "address",
          "name": "factory",
          "type": "address"
        },
        {
          "internalType": "address",
          "name": "token0",
          "type": "address"
        },
        {
          "internalType": "address",
          "name": "token1",
          "type": "address"
        },
        {
          "internalType": "uint24",
          "name": "fee",
          "type": "uint24"
        },
        {
          "internalType": "int24",
          "name": "tickSpacing",
          "type": "int24"
        }
      ],
      "stateMutability": "view",
      "type": "function"
    }
  ],
  "bytecode": "0x608060405234801561001057600080fd5b5061018a806100206000396000f3fe608060405234801561001057600080fd5b506004361061002b5760003560e01c80638903573014610030575b600080fd5b6100386100b4565b604051808673ffffffffffffffffffffffffffffffffffffffff1681526020018573ffffffffffffffffffffffffffffffffffffffff1681526020018473ffffffffffffffffffffffffffffffffffffffff1681526020018362ffffff1681526020018260020b81526020019550505050505060405180910390f35b60008060000160009054906101000a900473ffffffffffffffffffffffffffffffffffffffff16908060010160009054906101000a900473ffffffffffffffffffffffffffffffffffffffff16908060020160009054906101000a900473ffffffffffffffffffffffffffffffffffffffff16908060020160149054906101000a900462ffffff16908060020160179054906101000a900460020b90508556fea26469706673582212205ad6abff9ddd5292e9c3d088775d1abfe43d0b6472bdbb109c84532bf81ee0e564736f6c63430007060033",
  "immutableReferences": {},
  "source": "// SPDX-License-Identifier: BUSL-1.1\r\npragma solidity =0.7.6;\r\n\r\nimport './interfaces/IUniswapV3PoolDeployer.sol';\r\n\r\nimport './UniswapV3Pool.sol';\r\n\r\ncontract UniswapV3PoolDeployer is IUniswapV3PoolDeployer {\r\n    struct Parameters {\r\n        address factory;\r\n        address token0;\r\n        address token1;\r\n        uint24 fee;\r\n        int24 tickSpacing;\r\n    }\r\n\r\n    /// @inheritdoc IUniswapV3PoolDeployer\r\n    Parameters public override parameters;\r\n\r\n    /// @dev Deploys a pool with the given parameters by transiently setting the parameters storage slot and then\r\n    /// clearing it after deploying the pool.\r\n    /// @param factory The contract address of the Uniswap V3 factory\r\n    /// @param token0 The first token of the pool by address sort order\r\n    /// @param token1 The second token of the pool by address sort order\r\n    /// @param fee The fee collected upon every swap in the pool, denominated in hundredths of a bip\r\n    /// @param tickSpacing The spacing between usable ticks\r\n    function deploy(\r\n        address factory,\r\n        address token0,\r\n        address token1,\r\n        uint24 fee,\r\n        int24 tickSpacing\r\n    ) internal returns (address pool) {\r\n        parameters = Parameters({factory: factory, token0: token0, token1: token1, fee: fee, tickSpacing: tickSpacing});\r\n        pool = address(new UniswapV3Pool{salt: keccak256(abi.encode(token0, token1, fee))}());\r\n        delete parameters;\r\n    }\r\n}",
  "sourcePath": "C:\\Users\\Numan\\Desktop\\Uniswap v3\\contracts\\UniswapV3PoolDeployer.sol",
  "compiler": {
    "name": "solc",
    "version": "0.7.6+commit.7338295f.Emscripten.clang"
  },
  "schemaVersion": "3.4.4",
  "updatedAt": "2022-08-13T07:28:44.699Z",
  "devdoc": {
    "kind": "dev",
    "methods": {},
    "stateVariables": {
      "parameters": {
        "details": "Called by the pool constructor to fetch the parameters of the pool Returns factory The factory address Returns token0 The first token of the pool by address sort order Returns token1 The second token of the pool by address sort order Returns fee The fee collected upon every swap in the pool, denominated in hundredths of a bip Returns tickSpacing The minimum number of ticks between initialized ticks"
      }
    },
    "version": 1
  },
  "userdoc": {
    "kind": "user",
    "methods": {
      "parameters()": {
        "notice": "Get the parameters to be used in constructing the pool, set transiently during pool creation."
      }
    },
    "version": 1
  }
}