{
  "contractName": "UniswapV3Pool",
  "abi": [
    {
      "inputs": [],
      "stateMutability": "nonpayable",
      "type": "constructor"
    },
    {
      "anonymous": false,
      "inputs": [
        {
          "indexed": true,
          "internalType": "address",
          "name": "owner",
          "type": "address"
        },
        {
          "indexed": true,
          "internalType": "int24",
          "name": "tickLower",
          "type": "int24"
        },
        {
          "indexed": true,
          "internalType": "int24",
          "name": "tickUpper",
          "type": "int24"
        },
        {
          "indexed": false,
          "internalType": "uint128",
          "name": "amount",
          "type": "uint128"
        },
        {
          "indexed": false,
          "internalType": "uint256",
          "name": "amount0",
          "type": "uint256"
        },
        {
          "indexed": false,
          "internalType": "uint256",
          "name": "amount1",
          "type": "uint256"
        }
      ],
      "name": "Burn",
      "type": "event"
    },
    {
      "anonymous": false,
      "inputs": [
        {
          "indexed": true,
          "internalType": "address",
          "name": "owner",
          "type": "address"
        },
        {
          "indexed": false,
          "internalType": "address",
          "name": "recipient",
          "type": "address"
        },
        {
          "indexed": true,
          "internalType": "int24",
          "name": "tickLower",
          "type": "int24"
        },
        {
          "indexed": true,
          "internalType": "int24",
          "name": "tickUpper",
          "type": "int24"
        },
        {
          "indexed": false,
          "internalType": "uint128",
          "name": "amount0",
          "type": "uint128"
        },
        {
          "indexed": false,
          "internalType": "uint128",
          "name": "amount1",
          "type": "uint128"
        }
      ],
      "name": "Collect",
      "type": "event"
    },
    {
      "anonymous": false,
      "inputs": [
        {
          "indexed": true,
          "internalType": "address",
          "name": "sender",
          "type": "address"
        },
        {
          "indexed": true,
          "internalType": "address",
          "name": "recipient",
          "type": "address"
        },
        {
          "indexed": false,
          "internalType": "uint128",
          "name": "amount0",
          "type": "uint128"
        },
        {
          "indexed": false,
          "internalType": "uint128",
          "name": "amount1",
          "type": "uint128"
        }
      ],
      "name": "CollectProtocol",
      "type": "event"
    },
    {
      "anonymous": false,
      "inputs": [
        {
          "indexed": true,
          "internalType": "address",
          "name": "sender",
          "type": "address"
        },
        {
          "indexed": true,
          "internalType": "address",
          "name": "recipient",
          "type": "address"
        },
        {
          "indexed": false,
          "internalType": "uint256",
          "name": "amount0",
          "type": "uint256"
        },
        {
          "indexed": false,
          "internalType": "uint256",
          "name": "amount1",
          "type": "uint256"
        },
        {
          "indexed": false,
          "internalType": "uint256",
          "name": "paid0",
          "type": "uint256"
        },
        {
          "indexed": false,
          "internalType": "uint256",
          "name": "paid1",
          "type": "uint256"
        }
      ],
      "name": "Flash",
      "type": "event"
    },
    {
      "anonymous": false,
      "inputs": [
        {
          "indexed": false,
          "internalType": "uint16",
          "name": "observationCardinalityNextOld",
          "type": "uint16"
        },
        {
          "indexed": false,
          "internalType": "uint16",
          "name": "observationCardinalityNextNew",
          "type": "uint16"
        }
      ],
      "name": "IncreaseObservationCardinalityNext",
      "type": "event"
    },
    {
      "anonymous": false,
      "inputs": [
        {
          "indexed": false,
          "internalType": "uint160",
          "name": "sqrtPriceX96",
          "type": "uint160"
        },
        {
          "indexed": false,
          "internalType": "int24",
          "name": "tick",
          "type": "int24"
        }
      ],
      "name": "Initialize",
      "type": "event"
    },
    {
      "anonymous": false,
      "inputs": [
        {
          "indexed": false,
          "internalType": "address",
          "name": "sender",
          "type": "address"
        },
        {
          "indexed": true,
          "internalType": "address",
          "name": "owner",
          "type": "address"
        },
        {
          "indexed": true,
          "internalType": "int24",
          "name": "tickLower",
          "type": "int24"
        },
        {
          "indexed": true,
          "internalType": "int24",
          "name": "tickUpper",
          "type": "int24"
        },
        {
          "indexed": false,
          "internalType": "uint128",
          "name": "amount",
          "type": "uint128"
        },
        {
          "indexed": false,
          "internalType": "uint256",
          "name": "amount0",
          "type": "uint256"
        },
        {
          "indexed": false,
          "internalType": "uint256",
          "name": "amount1",
          "type": "uint256"
        }
      ],
      "name": "Mint",
      "type": "event"
    },
    {
      "anonymous": false,
      "inputs": [
        {
          "indexed": false,
          "internalType": "uint8",
          "name": "feeProtocol0Old",
          "type": "uint8"
        },
        {
          "indexed": false,
          "internalType": "uint8",
          "name": "feeProtocol1Old",
          "type": "uint8"
        },
        {
          "indexed": false,
          "internalType": "uint8",
          "name": "feeProtocol0New",
          "type": "uint8"
        },
        {
          "indexed": false,
          "internalType": "uint8",
          "name": "feeProtocol1New",
          "type": "uint8"
        }
      ],
      "name": "SetFeeProtocol",
      "type": "event"
    },
    {
      "anonymous": false,
      "inputs": [
        {
          "indexed": true,
          "internalType": "address",
          "name": "sender",
          "type": "address"
        },
        {
          "indexed": true,
          "internalType": "address",
          "name": "recipient",
          "type": "address"
        },
        {
          "indexed": false,
          "internalType": "int256",
          "name": "amount0",
          "type": "int256"
        },
        {
          "indexed": false,
          "internalType": "int256",
          "name": "amount1",
          "type": "int256"
        },
        {
          "indexed": false,
          "internalType": "uint160",
          "name": "sqrtPriceX96",
          "type": "uint160"
        },
        {
          "indexed": false,
          "internalType": "uint128",
          "name": "liquidity",
          "type": "uint128"
        },
        {
          "indexed": false,
          "internalType": "int24",
          "name": "tick",
          "type": "int24"
        }
      ],
      "name": "Swap",
      "type": "event"
    },
    {
      "inputs": [],
      "name": "factory",
      "outputs": [
        {
          "internalType": "address",
          "name": "",
          "type": "address"
        }
      ],
      "stateMutability": "view",
      "type": "function"
    },
    {
      "inputs": [],
      "name": "fee",
      "outputs": [
        {
          "internalType": "uint24",
          "name": "",
          "type": "uint24"
        }
      ],
      "stateMutability": "view",
      "type": "function"
    },
    {
      "inputs": [],
      "name": "feeGrowthGlobal0X128",
      "outputs": [
        {
          "internalType": "uint256",
          "name": "",
          "type": "uint256"
        }
      ],
      "stateMutability": "view",
      "type": "function"
    },
    {
      "inputs": [],
      "name": "feeGrowthGlobal1X128",
      "outputs": [
        {
          "internalType": "uint256",
          "name": "",
          "type": "uint256"
        }
      ],
      "stateMutability": "view",
      "type": "function"
    },
    {
      "inputs": [],
      "name": "liquidity",
      "outputs": [
        {
          "internalType": "uint128",
          "name": "",
          "type": "uint128"
        }
      ],
      "stateMutability": "view",
      "type": "function"
    },
    {
      "inputs": [],
      "name": "maxLiquidityPerTick",
      "outputs": [
        {
          "internalType": "uint128",
          "name": "",
          "type": "uint128"
        }
      ],
      "stateMutability": "view",
      "type": "function"
    },
    {
      "inputs": [
        {
          "internalType": "uint256",
          "name": "",
          "type": "uint256"
        }
      ],
      "name": "observations",
      "outputs": [
        {
          "internalType": "uint32",
          "name": "blockTimestamp",
          "type": "uint32"
        },
        {
          "internalType": "int56",
          "name": "tickCumulative",
          "type": "int56"
        },
        {
          "internalType": "uint160",
          "name": "secondsPerLiquidityCumulativeX128",
          "type": "uint160"
        },
        {
          "internalType": "bool",
          "name": "initialized",
          "type": "bool"
        }
      ],
      "stateMutability": "view",
      "type": "function"
    },
    {
      "inputs": [
        {
          "internalType": "bytes32",
          "name": "",
          "type": "bytes32"
        }
      ],
      "name": "positions",
      "outputs": [
        {
          "internalType": "uint128",
          "name": "liquidity",
          "type": "uint128"
        },
        {
          "internalType": "uint256",
          "name": "feeGrowthInside0LastX128",
          "type": "uint256"
        },
        {
          "internalType": "uint256",
          "name": "feeGrowthInside1LastX128",
          "type": "uint256"
        },
        {
          "internalType": "uint128",
          "name": "tokensOwed0",
          "type": "uint128"
        },
        {
          "internalType": "uint128",
          "name": "tokensOwed1",
          "type": "uint128"
        }
      ],
      "stateMutability": "view",
      "type": "function"
    },
    {
      "inputs": [],
      "name": "protocolFees",
      "outputs": [
        {
          "internalType": "uint128",
          "name": "token0",
          "type": "uint128"
        },
        {
          "internalType": "uint128",
          "name": "token1",
          "type": "uint128"
        }
      ],
      "stateMutability": "view",
      "type": "function"
    },
    {
      "inputs": [],
      "name": "slot0",
      "outputs": [
        {
          "internalType": "uint160",
          "name": "sqrtPriceX96",
          "type": "uint160"
        },
        {
          "internalType": "int24",
          "name": "tick",
          "type": "int24"
        },
        {
          "internalType": "uint16",
          "name": "observationIndex",
          "type": "uint16"
        },
        {
          "internalType": "uint16",
          "name": "observationCardinality",
          "type": "uint16"
        },
        {
          "internalType": "uint16",
          "name": "observationCardinalityNext",
          "type": "uint16"
        },
        {
          "internalType": "uint8",
          "name": "feeProtocol",
          "type": "uint8"
        },
        {
          "internalType": "bool",
          "name": "unlocked",
          "type": "bool"
        }
      ],
      "stateMutability": "view",
      "type": "function"
    },
    {
      "inputs": [
        {
          "internalType": "int16",
          "name": "",
          "type": "int16"
        }
      ],
      "name": "tickBitmap",
      "outputs": [
        {
          "internalType": "uint256",
          "name": "",
          "type": "uint256"
        }
      ],
      "stateMutability": "view",
      "type": "function"
    },
    {
      "inputs": [],
      "name": "tickSpacing",
      "outputs": [
        {
          "internalType": "int24",
          "name": "",
          "type": "int24"
        }
      ],
      "stateMutability": "view",
      "type": "function"
    },
    {
      "inputs": [
        {
          "internalType": "int24",
          "name": "",
          "type": "int24"
        }
      ],
      "name": "ticks",
      "outputs": [
        {
          "internalType": "uint128",
          "name": "liquidityGross",
          "type": "uint128"
        },
        {
          "internalType": "int128",
          "name": "liquidityNet",
          "type": "int128"
        },
        {
          "internalType": "uint256",
          "name": "feeGrowthOutside0X128",
          "type": "uint256"
        },
        {
          "internalType": "uint256",
          "name": "feeGrowthOutside1X128",
          "type": "uint256"
        },
        {
          "internalType": "int56",
          "name": "tickCumulativeOutside",
          "type": "int56"
        },
        {
          "internalType": "uint160",
          "name": "secondsPerLiquidityOutsideX128",
          "type": "uint160"
        },
        {
          "internalType": "uint32",
          "name": "secondsOutside",
          "type": "uint32"
        },
        {
          "internalType": "bool",
          "name": "initialized",
          "type": "bool"
        }
      ],
      "stateMutability": "view",
      "type": "function"
    },
    {
      "inputs": [],
      "name": "token0",
      "outputs": [
        {
          "internalType": "address",
          "name": "",
          "type": "address"
        }
      ],
      "stateMutability": "view",
      "type": "function"
    },
    {
      "inputs": [],
      "name": "token1",
      "outputs": [
        {
          "internalType": "address",
          "name": "",
          "type": "address"
        }
      ],
      "stateMutability": "view",
      "type": "function"
    },
    {
      "inputs": [
        {
          "internalType": "int24",
          "name": "tickLower",
          "type": "int24"
        },
        {
          "internalType": "int24",
          "name": "tickUpper",
          "type": "int24"
        }
      ],
      "name": "snapshotCumulativesInside",
      "outputs": [
        {
          "internalType": "int56",
          "name": "tickCumulativeInside",
          "type": "int56"
        },
        {
          "internalType": "uint160",
          "name": "secondsPerLiquidityInsideX128",
          "type": "uint160"
        },
        {
          "internalType": "uint32",
          "name": "secondsInside",
          "type": "uint32"
        }
      ],
      "stateMutability": "view",
      "type": "function"
    },
    {
      "inputs": [
        {
          "internalType": "uint32[]",
          "name": "secondsAgos",
          "type": "uint32[]"
        }
      ],
      "name": "observe",
      "outputs": [
        {
          "internalType": "int56[]",
          "name": "tickCumulatives",
          "type": "int56[]"
        },
        {
          "internalType": "uint160[]",
          "name": "secondsPerLiquidityCumulativeX128s",
          "type": "uint160[]"
        }
      ],
      "stateMutability": "view",
      "type": "function"
    },
    {
      "inputs": [
        {
          "internalType": "uint16",
          "name": "observationCardinalityNext",
          "type": "uint16"
        }
      ],
      "name": "increaseObservationCardinalityNext",
      "outputs": [],
      "stateMutability": "nonpayable",
      "type": "function"
    },
    {
      "inputs": [
        {
          "internalType": "uint160",
          "name": "sqrtPriceX96",
          "type": "uint160"
        }
      ],
      "name": "initialize",
      "outputs": [],
      "stateMutability": "nonpayable",
      "type": "function"
    },
    {
      "inputs": [
        {
          "internalType": "address",
          "name": "recipient",
          "type": "address"
        },
        {
          "internalType": "int24",
          "name": "tickLower",
          "type": "int24"
        },
        {
          "internalType": "int24",
          "name": "tickUpper",
          "type": "int24"
        },
        {
          "internalType": "uint128",
          "name": "amount",
          "type": "uint128"
        },
        {
          "internalType": "bytes",
          "name": "data",
          "type": "bytes"
        }
      ],
      "name": "mint",
      "outputs": [
        {
          "internalType": "uint256",
          "name": "amount0",
          "type": "uint256"
        },
        {
          "internalType": "uint256",
          "name": "amount1",
          "type": "uint256"
        }
      ],
      "stateMutability": "nonpayable",
      "type": "function"
    },
    {
      "inputs": [
        {
          "internalType": "address",
          "name": "recipient",
          "type": "address"
        },
        {
          "internalType": "int24",
          "name": "tickLower",
          "type": "int24"
        },
        {
          "internalType": "int24",
          "name": "tickUpper",
          "type": "int24"
        },
        {
          "internalType": "uint128",
          "name": "amount0Requested",
          "type": "uint128"
        },
        {
          "internalType": "uint128",
          "name": "amount1Requested",
          "type": "uint128"
        }
      ],
      "name": "collect",
      "outputs": [
        {
          "internalType": "uint128",
          "name": "amount0",
          "type": "uint128"
        },
        {
          "internalType": "uint128",
          "name": "amount1",
          "type": "uint128"
        }
      ],
      "stateMutability": "nonpayable",
      "type": "function"
    },
    {
      "inputs": [
        {
          "internalType": "int24",
          "name": "tickLower",
          "type": "int24"
        },
        {
          "internalType": "int24",
          "name": "tickUpper",
          "type": "int24"
        },
        {
          "internalType": "uint128",
          "name": "amount",
          "type": "uint128"
        }
      ],
      "name": "burn",
      "outputs": [
        {
          "internalType": "uint256",
          "name": "amount0",
          "type": "uint256"
        },
        {
          "internalType": "uint256",
          "name": "amount1",
          "type": "uint256"
        }
      ],
      "stateMutability": "nonpayable",
      "type": "function"
    },
    {
      "inputs": [
        {
          "internalType": "address",
          "name": "recipient",
          "type": "address"
        },
        {
          "internalType": "bool",
          "name": "zeroForOne",
          "type": "bool"
        },
        {
          "internalType": "int256",
          "name": "amountSpecified",
          "type": "int256"
        },
        {
          "internalType": "uint160",
          "name": "sqrtPriceLimitX96",
          "type": "uint160"
        },
        {
          "internalType": "bytes",
          "name": "data",
          "type": "bytes"
        }
      ],
      "name": "swap",
      "outputs": [
        {
          "internalType": "int256",
          "name": "amount0",
          "type": "int256"
        },
        {
          "internalType": "int256",
          "name": "amount1",
          "type": "int256"
        }
      ],
      "stateMutability": "nonpayable",
      "type": "function"
    },
    {
      "inputs": [
        {
          "internalType": "address",
          "name": "recipient",
          "type": "address"
        },
        {
          "internalType": "uint256",
          "name": "amount0",
          "type": "uint256"
        },
        {
          "internalType": "uint256",
          "name": "amount1",
          "type": "uint256"
        },
        {
          "internalType": "bytes",
          "name": "data",
          "type": "bytes"
        }
      ],
      "name": "flash",
      "outputs": [],
      "stateMutability": "nonpayable",
      "type": "function"
    },
    {
      "inputs": [
        {
          "internalType": "uint8",
          "name": "feeProtocol0",
          "type": "uint8"
        },
        {
          "internalType": "uint8",
          "name": "feeProtocol1",
          "type": "uint8"
        }
      ],
      "name": "setFeeProtocol",
      "outputs": [],
      "stateMutability": "nonpayable",
      "type": "function"
    },
    {
      "inputs": [
        {
          "internalType": "address",
          "name": "recipient",
          "type": "address"
        },
        {
          "internalType": "uint128",
          "name": "amount0Requested",
          "type": "uint128"
        },
        {
          "internalType": "uint128",
          "name": "amount1Requested",
          "type": "uint128"
        }
      ],
      "name": "collectProtocol",
      "outputs": [
        {
          "internalType": "uint128",
          "name": "amount0",
          "type": "uint128"
        },
        {
          "internalType": "uint128",
          "name": "amount1",
          "type": "uint128"
        }
      ],
      "stateMutability": "nonpayable",
      "type": "function"
    }
  ],
  "bytecode": "0x6101606040523480156200001257600080fd5b503073ffffffffffffffffffffffffffffffffffffffff1660808173ffffffffffffffffffffffffffffffffffffffff1660601b8152505060003373ffffffffffffffffffffffffffffffffffffffff1663890357306040518163ffffffff1660e01b815260040160a06040518083038186803b1580156200009357600080fd5b505afa158015620000a8573d6000803e3d6000fd5b505050506040513d60a0811015620000bf57600080fd5b8101908080519060200190929190805190602001909291908051906020019092919080519060200190929190805190602001909291905050508095508162ffffff166101009062ffffff1660e81b8152508273ffffffffffffffffffffffffffffffffffffffff1660e09073ffffffffffffffffffffffffffffffffffffffff1660601b8152508373ffffffffffffffffffffffffffffffffffffffff1660c09073ffffffffffffffffffffffffffffffffffffffff1660601b8152508473ffffffffffffffffffffffffffffffffffffffff1660a09073ffffffffffffffffffffffffffffffffffffffff1660601b81525050505050508060020b6101208160020b60e81b81525050620001df816200021560201b620044521760201c565b6fffffffffffffffffffffffffffffffff16610140816fffffffffffffffffffffffffffffffff1660801b8152505050620002cd565b600080828360020b7ffffffffffffffffffffffffffffffffffffffffffffffffffffffffffff2761860020b816200024957fe5b050290506000838460020b7ffffffffffffffffffffffffffffffffffffffffffffffffffffffffffff2761860000360020b816200028357fe5b05029050600060018560020b84840360020b816200029d57fe5b050190508062ffffff166fffffffffffffffffffffffffffffffff801681620002c257fe5b049350505050919050565b60805160601c60a05160601c60c05160601c60e05160601c6101005160e81c6101205160e81c6101405160801c61854d6200039a600039806131985280617311528061735a52508061123e528061406d52806173a052806173dd52508061143a528061279b52806127d252806140b5525080611b6d528061285c5280612ff352806138a852806140915280615d6f525080610c985280611ced52806128275280612f3e528061379b5280615bab52508061325d52806135035280614049525080614508525061854d6000f3fe608060405234801561001057600080fd5b506004361061018e5760003560e01c806370cf754a116100de578063c45a015511610097578063ddca3f4311610071578063ddca3f4314610b65578063f305839914610b88578063f30dba9314610ba6578063f637731d14610c525761018e565b8063c45a015514610adc578063d0c93a7c14610b10578063d21220a714610b315761018e565b806370cf754a146107a95780638206a4d1146107d957806385b6672914610817578063883bdbfd146108d2578063a34123a7146109e8578063a38807f214610a5d5761018e565b80633850c7bd1161014b578063490e6cbc11610125578063490e6cbc1461054e5780634f1eb3d8146105fb578063514ea4bf146106d05780635339c296146107645761018e565b80633850c7bd146103d45780633c8a7d8d1461044657806346141319146105305761018e565b80630dfe168114610193578063128acb08146101c75780631a686502146102b15780631ad8b03b146102e1578063252c09d71461032a57806332148f67146103a2575b600080fd5b61019b610c96565b604051808273ffffffffffffffffffffffffffffffffffffffff16815260200191505060405180910390f35b610294600480360360a08110156101dd57600080fd5b81019080803573ffffffffffffffffffffffffffffffffffffffff16906020019092919080351515906020019092919080359060200190929190803573ffffffffffffffffffffffffffffffffffffffff1690602001909291908035906020019064010000000081111561025057600080fd5b82018360208201111561026257600080fd5b8035906020019184600183028401116401000000008311171561028457600080fd5b9091929391929390505050610cba565b604051808381526020018281526020019250505060405180910390f35b6102b9611f43565b60405180826fffffffffffffffffffffffffffffffff16815260200191505060405180910390f35b6102e9611f65565b60405180836fffffffffffffffffffffffffffffffff168152602001826fffffffffffffffffffffffffffffffff1681526020019250505060405180910390f35b6103566004803603602081101561034057600080fd5b8101908080359060200190929190505050611faf565b604051808563ffffffff1681526020018460060b81526020018373ffffffffffffffffffffffffffffffffffffffff168152602001821515815260200194505050505060405180910390f35b6103d2600480360360208110156103b857600080fd5b81019080803561ffff16906020019092919050505061202d565b005b6103dc61219f565b604051808873ffffffffffffffffffffffffffffffffffffffff1681526020018760020b81526020018661ffff1681526020018561ffff1681526020018461ffff1681526020018360ff168152602001821515815260200197505050505050505060405180910390f35b610513600480360360a081101561045c57600080fd5b81019080803573ffffffffffffffffffffffffffffffffffffffff169060200190929190803560020b9060200190929190803560020b906020019092919080356fffffffffffffffffffffffffffffffff169060200190929190803590602001906401000000008111156104cf57600080fd5b8201836020820111156104e157600080fd5b8035906020019184600183028401116401000000008311171561050357600080fd5b9091929391929390505050612240565b604051808381526020018281526020019250505060405180910390f35b610538612639565b6040518082815260200191505060405180910390f35b6105f96004803603608081101561056457600080fd5b81019080803573ffffffffffffffffffffffffffffffffffffffff1690602001909291908035906020019092919080359060200190929190803590602001906401000000008111156105b557600080fd5b8201836020820111156105c757600080fd5b803590602001918460018302840111640100000000831117156105e957600080fd5b909192939192939050505061263f565b005b61068f600480360360a081101561061157600080fd5b81019080803573ffffffffffffffffffffffffffffffffffffffff169060200190929190803560020b9060200190929190803560020b906020019092919080356fffffffffffffffffffffffffffffffff16906020019092919080356fffffffffffffffffffffffffffffffff169060200190929190505050612d18565b60405180836fffffffffffffffffffffffffffffffff168152602001826fffffffffffffffffffffffffffffffff1681526020019250505060405180910390f35b6106fc600480360360208110156106e657600080fd5b81019080803590602001909291905050506130f4565b60405180866fffffffffffffffffffffffffffffffff168152602001858152602001848152602001836fffffffffffffffffffffffffffffffff168152602001826fffffffffffffffffffffffffffffffff1681526020019550505050505060405180910390f35b6107936004803603602081101561077a57600080fd5b81019080803560010b906020019092919050505061317e565b6040518082815260200191505060405180910390f35b6107b1613196565b60405180826fffffffffffffffffffffffffffffffff16815260200191505060405180910390f35b610815600480360360408110156107ef57600080fd5b81019080803560ff169060200190929190803560ff1690602001909291905050506131ba565b005b6108916004803603606081101561082d57600080fd5b81019080803573ffffffffffffffffffffffffffffffffffffffff16906020019092919080356fffffffffffffffffffffffffffffffff16906020019092919080356fffffffffffffffffffffffffffffffff16906020019092919050505061345d565b60405180836fffffffffffffffffffffffffffffffff168152602001826fffffffffffffffffffffffffffffffff1681526020019250505060405180910390f35b610949600480360360208110156108e857600080fd5b810190808035906020019064010000000081111561090557600080fd5b82018360208201111561091757600080fd5b8035906020019184602083028401116401000000008311171561093957600080fd5b9091929391929390505050613997565b604051808060200180602001838103835285818151815260200191508051906020019060200280838360005b83811015610990578082015181840152602081019050610975565b50505050905001838103825284818151815260200191508051906020019060200280838360005b838110156109d25780820151818401526020810190506109b7565b5050505090500194505050505060405180910390f35b610a40600480360360608110156109fe57600080fd5b81019080803560020b9060200190929190803560020b906020019092919080356fffffffffffffffffffffffffffffffff169060200190929190505050613a66565b604051808381526020018281526020019250505060405180910390f35b610a9960048036036040811015610a7357600080fd5b81019080803560020b9060200190929190803560020b9060200190929190505050613cfd565b604051808460060b81526020018373ffffffffffffffffffffffffffffffffffffffff1681526020018263ffffffff168152602001935050505060405180910390f35b610ae4614047565b604051808273ffffffffffffffffffffffffffffffffffffffff16815260200191505060405180910390f35b610b1861406b565b604051808260020b815260200191505060405180910390f35b610b3961408f565b604051808273ffffffffffffffffffffffffffffffffffffffff16815260200191505060405180910390f35b610b6d6140b3565b604051808262ffffff16815260200191505060405180910390f35b610b906140d7565b6040518082815260200191505060405180910390f35b610bd560048036036020811015610bbc57600080fd5b81019080803560020b90602001909291905050506140dd565b60405180896fffffffffffffffffffffffffffffffff16815260200188600f0b81526020018781526020018681526020018560060b81526020018473ffffffffffffffffffffffffffffffffffffffff1681526020018363ffffffff16815260200182151581526020019850505050505050505060405180910390f35b610c9460048036036020811015610c6857600080fd5b81019080803573ffffffffffffffffffffffffffffffffffffffff169060200190929190505050614198565b005b7f000000000000000000000000000000000000000000000000000000000000000081565b600080610cc5614506565b6000861415610d3c576040517f08c379a00000000000000000000000000000000000000000000000000000000081526004018080602001828103825260028152602001807f415300000000000000000000000000000000000000000000000000000000000081525060200191505060405180910390fd5b6000806040518060e00160405290816000820160009054906101000a900473ffffffffffffffffffffffffffffffffffffffff1673ffffffffffffffffffffffffffffffffffffffff1673ffffffffffffffffffffffffffffffffffffffff1681526020016000820160149054906101000a900460020b60020b60020b81526020016000820160179054906101000a900461ffff1661ffff1661ffff1681526020016000820160199054906101000a900461ffff1661ffff1661ffff16815260200160008201601b9054906101000a900461ffff1661ffff1661ffff16815260200160008201601d9054906101000a900460ff1660ff1660ff16815260200160008201601e9054906101000a900460ff16151515158152505090508060c00151610ece576040517f08c379a00000000000000000000000000000000000000000000000000000000081526004018080602001828103825260038152602001807f4c4f4b000000000000000000000000000000000000000000000000000000000081525060200191505060405180910390fd5b87610f5657806000015173ffffffffffffffffffffffffffffffffffffffff168673ffffffffffffffffffffffffffffffffffffffff16118015610f51575073fffd8963efd1fc6a506488495d951d5263988d2673ffffffffffffffffffffffffffffffffffffffff168673ffffffffffffffffffffffffffffffffffffffff16105b610fc6565b806000015173ffffffffffffffffffffffffffffffffffffffff168673ffffffffffffffffffffffffffffffffffffffff16108015610fc557506401000276a373ffffffffffffffffffffffffffffffffffffffff168673ffffffffffffffffffffffffffffffffffffffff16115b5b611038576040517f08c379a00000000000000000000000000000000000000000000000000000000081526004018080602001828103825260038152602001807f53504c000000000000000000000000000000000000000000000000000000000081525060200191505060405180910390fd5b600080600001601e6101000a81548160ff02191690831515021790555060006040518060c001604052808a6110785760048460a0015160ff16901c61108b565b60108460a0015160ff168161108957fe5b065b60ff168152602001600460009054906101000a90046fffffffffffffffffffffffffffffffff166fffffffffffffffffffffffffffffffff1681526020016110d1614560565b63ffffffff168152602001600060060b8152602001600073ffffffffffffffffffffffffffffffffffffffff1681526020016000151581525090506000808913905060006040518060e001604052808b815260200160008152602001856000015173ffffffffffffffffffffffffffffffffffffffff168152602001856020015160020b81526020018c6111675760025461116b565b6001545b815260200160006fffffffffffffffffffffffffffffffff16815260200184602001516fffffffffffffffffffffffffffffffff1681525090505b60008160000151141580156111eb57508873ffffffffffffffffffffffffffffffffffffffff16816040015173ffffffffffffffffffffffffffffffffffffffff1614155b15611835576111f8618460565b8160400151816000019073ffffffffffffffffffffffffffffffffffffffff16908173ffffffffffffffffffffffffffffffffffffffff168152505061127082606001517f00000000000000000000000000000000000000000000000000000000000000008e6006614568909392919063ffffffff16565b826020018360400182151515158152508260020b60020b81525050507ffffffffffffffffffffffffffffffffffffffffffffffffffffffffffff2761860020b816020015160020b12156112f5577ffffffffffffffffffffffffffffffffffffffffffffffffffffffffffff27618816020019060020b908160020b81525050611361565b7ffffffffffffffffffffffffffffffffffffffffffffffffffffffffffff2761860000360020b816020015160020b1315611360577ffffffffffffffffffffffffffffffffffffffffffffffffffffffffffff27618600003816020019060020b908160020b815250505b5b61136e81602001516146c0565b816060019073ffffffffffffffffffffffffffffffffffffffff16908173ffffffffffffffffffffffffffffffffffffffff168152505061145e82604001518d6113ea578b73ffffffffffffffffffffffffffffffffffffffff16836060015173ffffffffffffffffffffffffffffffffffffffff161161141e565b8b73ffffffffffffffffffffffffffffffffffffffff16836060015173ffffffffffffffffffffffffffffffffffffffff16105b61142c57826060015161142e565b8b5b8460c0015185600001517f0000000000000000000000000000000000000000000000000000000000000000614afb565b85604001856080018660a0018760c0018481525084815250848152508473ffffffffffffffffffffffffffffffffffffffff1673ffffffffffffffffffffffffffffffffffffffff16815250505050508215611507576114c78160c00151826080015101614d57565b8260000181815103915081815250506114f96114e68260a00151614d57565b8360200151614d8d90919063ffffffff16565b826020018181525050611556565b6115148160a00151614d57565b82600001818151019150818152505061154c6115398260c00151836080015101614d57565b8360200151614db090919063ffffffff16565b8260200181815250505b6000846000015160ff1611156115c7576000846000015160ff168260c001518161157c57fe5b049050808260c0018181510391508181525050808360a001818151019150906fffffffffffffffffffffffffffffffff1690816fffffffffffffffffffffffffffffffff1681525050505b60008260c001516fffffffffffffffffffffffffffffffff16111561162c5761161c8160c001517001000000000000000000000000000000008460c001516fffffffffffffffffffffffffffffffff16614dd3565b8260800181815101915081815250505b806060015173ffffffffffffffffffffffffffffffffffffffff16826040015173ffffffffffffffffffffffffffffffffffffffff1614156117d4578060400151156117a6578360a00151611704576116ae846040015160008760200151886040015188602001518a606001516008614ead909695949392919063ffffffff16565b85606001866080018273ffffffffffffffffffffffffffffffffffffffff1673ffffffffffffffffffffffffffffffffffffffff168152508260060b60060b815250505060018460a00190151590811515815250505b600061175882602001518e61171b57600154611721565b84608001515b8f611730578560800151611734565b6002545b886080015189606001518a6040015160056150e0909695949392919063ffffffff16565b90508c15611767578060000390505b6117758360c001518261521c565b8360c001906fffffffffffffffffffffffffffffffff1690816fffffffffffffffffffffffffffffffff1681525050505b8b6117b55780602001516117be565b60018160200151035b826060019060020b908160020b8152505061182f565b806000015173ffffffffffffffffffffffffffffffffffffffff16826040015173ffffffffffffffffffffffffffffffffffffffff161461182e5761181c8260400151615375565b826060019060020b908160020b815250505b5b506111a6565b836020015160020b816060015160020b1461194b5760008061188386604001518660400151886020015188602001518a606001518b608001516008615771909695949392919063ffffffff16565b915091508260400151836060015183836000800160008060000160146000800160176000800160198891906101000a81548161ffff021916908361ffff1602179055508791906101000a81548161ffff021916908361ffff1602179055508691906101000a81548162ffffff021916908360020b62ffffff1602179055508591906101000a81548173ffffffffffffffffffffffffffffffffffffffff021916908373ffffffffffffffffffffffffffffffffffffffff160217905550505050505050611993565b80604001516000800160006101000a81548173ffffffffffffffffffffffffffffffffffffffff021916908373ffffffffffffffffffffffffffffffffffffffff1602179055505b8060c001516fffffffffffffffffffffffffffffffff1683602001516fffffffffffffffffffffffffffffffff1614611a04578060c00151600460006101000a8154816fffffffffffffffffffffffffffffffff02191690836fffffffffffffffffffffffffffffffff1602179055505b8a15611a9b57806080015160018190555060008160a001516fffffffffffffffffffffffffffffffff161115611a96578060a00151600360000160008282829054906101000a90046fffffffffffffffffffffffffffffffff160192506101000a8154816fffffffffffffffffffffffffffffffff02191690836fffffffffffffffffffffffffffffffff1602179055505b611b28565b806080015160028190555060008160a001516fffffffffffffffffffffffffffffffff161115611b27578060a00151600360000160108282829054906101000a90046fffffffffffffffffffffffffffffffff160192506101000a8154816fffffffffffffffffffffffffffffffff02191690836fffffffffffffffffffffffffffffffff1602179055505b5b8115158b151514611b4457806020015181600001518b03611b51565b80600001518a0381602001515b80965081975050508a15611cdf576000851215611b9757611b967f00000000000000000000000000000000000000000000000000000000000000008d876000036159a3565b5b6000611ba1615ba4565b90503373ffffffffffffffffffffffffffffffffffffffff1663fa461e3388888c8c6040518563ffffffff1660e01b815260040180858152602001848152602001806020018281038252848482818152602001925080828437600081840152601f19601f82011690508083019250505095505050505050600060405180830381600087803b158015611c3257600080fd5b505af1158015611c46573d6000803e3d6000fd5b50505050611c52615ba4565b611c658883615d4e90919063ffffffff16565b1115611cd9576040517f08c379a00000000000000000000000000000000000000000000000000000000081526004018080602001828103825260038152602001807f494941000000000000000000000000000000000000000000000000000000000081525060200191505060405180910390fd5b50611e5b565b6000861215611d1757611d167f00000000000000000000000000000000000000000000000000000000000000008d886000036159a3565b5b6000611d21615d68565b90503373ffffffffffffffffffffffffffffffffffffffff1663fa461e3388888c8c6040518563ffffffff1660e01b815260040180858152602001848152602001806020018281038252848482818152602001925080828437600081840152601f19601f82011690508083019250505095505050505050600060405180830381600087803b158015611db257600080fd5b505af1158015611dc6573d6000803e3d6000fd5b50505050611dd2615d68565b611de58783615d4e90919063ffffffff16565b1115611e59576040517f08c379a00000000000000000000000000000000000000000000000000000000081526004018080602001828103825260038152602001807f494941000000000000000000000000000000000000000000000000000000000081525060200191505060405180910390fd5b505b8b73ffffffffffffffffffffffffffffffffffffffff163373ffffffffffffffffffffffffffffffffffffffff167fc42079f94a6350d7e6235f29174924f928cc2ac818eb64fed8004e115fbcca67888885604001518660c001518760600151604051808681526020018581526020018473ffffffffffffffffffffffffffffffffffffffff168152602001836fffffffffffffffffffffffffffffffff1681526020018260020b81526020019550505050505060405180910390a3600160008001601e6101000a81548160ff02191690831515021790555050505050965096945050505050565b600460009054906101000a90046fffffffffffffffffffffffffffffffff1681565b60038060000160009054906101000a90046fffffffffffffffffffffffffffffffff16908060000160109054906101000a90046fffffffffffffffffffffffffffffffff16905082565b60088161ffff8110611fc057600080fd5b016000915090508060000160009054906101000a900463ffffffff16908060000160049054906101000a900460060b9080600001600b9054906101000a900473ffffffffffffffffffffffffffffffffffffffff169080600001601f9054906101000a900460ff16905084565b60008001601e9054906101000a900460ff166120b1576040517f08c379a00000000000000000000000000000000000000000000000000000000081526004018080602001828103825260038152602001807f4c4f4b000000000000000000000000000000000000000000000000000000000081525060200191505060405180910390fd5b600080600001601e6101000a81548160ff0219169083151502179055506120d6614506565b600080600001601b9054906101000a900461ffff169050600061210582846008615f129092919063ffffffff16565b90508060008001601b6101000a81548161ffff021916908361ffff1602179055508061ffff168261ffff161461217d577fac49e518f90a358f652e4400164f05a5d8f7e35e7747279bc3a93dbf584e125a8282604051808361ffff1681526020018261ffff1681526020019250505060405180910390a15b5050600160008001601e6101000a81548160ff02191690831515021790555050565b60008060000160009054906101000a900473ffffffffffffffffffffffffffffffffffffffff16908060000160149054906101000a900460020b908060000160179054906101000a900461ffff16908060000160199054906101000a900461ffff169080600001601b9054906101000a900461ffff169080600001601d9054906101000a900460ff169080600001601e9054906101000a900460ff16905087565b60008060008001601e9054906101000a900460ff166122c7576040517f08c379a00000000000000000000000000000000000000000000000000000000081526004018080602001828103825260038152602001807f4c4f4b000000000000000000000000000000000000000000000000000000000081525060200191505060405180910390fd5b600080600001601e6101000a81548160ff0219169083151502179055506000856fffffffffffffffffffffffffffffffff161161230357600080fd5b60008061236860405180608001604052808c73ffffffffffffffffffffffffffffffffffffffff1681526020018b60020b81526020018a60020b815260200161235d8a6fffffffffffffffffffffffffffffffff16616008565b600f0b815250616021565b9250925050819350809250600080600086111561238a57612387615ba4565b91505b600085111561239e5761239b615d68565b90505b3373ffffffffffffffffffffffffffffffffffffffff1663d348799787878b8b6040518563ffffffff1660e01b815260040180858152602001848152602001806020018281038252848482818152602001925080828437600081840152601f19601f82011690508083019250505095505050505050600060405180830381600087803b15801561242d57600080fd5b505af1158015612441573d6000803e3d6000fd5b5050505060008611156124de57612456615ba4565b6124698784615d4e90919063ffffffff16565b11156124dd576040517f08c379a00000000000000000000000000000000000000000000000000000000081526004018080602001828103825260028152602001807f4d3000000000000000000000000000000000000000000000000000000000000081525060200191505060405180910390fd5b5b6000851115612577576124ef615d68565b6125028683615d4e90919063ffffffff16565b1115612576576040517f08c379a00000000000000000000000000000000000000000000000000000000081526004018080602001828103825260028152602001807f4d3100000000000000000000000000000000000000000000000000000000000081525060200191505060405180910390fd5b5b8960020b8b60020b8d73ffffffffffffffffffffffffffffffffffffffff167f7a53080ba414158be7ec69b987b5fb7d07dee101fe85488f0853ae16239d0bde338d8b8b604051808573ffffffffffffffffffffffffffffffffffffffff168152602001846fffffffffffffffffffffffffffffffff16815260200183815260200182815260200194505050505060405180910390a450505050600160008001601e6101000a81548160ff021916908315150217905550965096945050505050565b60025481565b60008001601e9054906101000a900460ff166126c3576040517f08c379a00000000000000000000000000000000000000000000000000000000081526004018080602001828103825260038152602001807f4c4f4b000000000000000000000000000000000000000000000000000000000081525060200191505060405180910390fd5b600080600001601e6101000a81548160ff0219169083151502179055506126e8614506565b6000600460009054906101000a90046fffffffffffffffffffffffffffffffff1690506000816fffffffffffffffffffffffffffffffff1611612793576040517f08c379a00000000000000000000000000000000000000000000000000000000081526004018080602001828103825260018152602001807f4c0000000000000000000000000000000000000000000000000000000000000081525060200191505060405180910390fd5b60006127c8867f000000000000000000000000000000000000000000000000000000000000000062ffffff16620f4240616345565b905060006127ff867f000000000000000000000000000000000000000000000000000000000000000062ffffff16620f4240616345565b9050600061280b615ba4565b90506000612817615d68565b9050600089111561284e5761284d7f00000000000000000000000000000000000000000000000000000000000000008b8b6159a3565b5b6000881115612883576128827f00000000000000000000000000000000000000000000000000000000000000008b8a6159a3565b5b3373ffffffffffffffffffffffffffffffffffffffff1663e9cbafb085858a8a6040518563ffffffff1660e01b815260040180858152602001848152602001806020018281038252848482818152602001925080828437600081840152601f19601f82011690508083019250505095505050505050600060405180830381600087803b15801561291257600080fd5b505af1158015612926573d6000803e3d6000fd5b505050506000612934615ba4565b90506000612940615d68565b9050816129568786615d4e90919063ffffffff16565b11156129ca576040517f08c379a00000000000000000000000000000000000000000000000000000000081526004018080602001828103825260028152602001807f463000000000000000000000000000000000000000000000000000000000000081525060200191505060405180910390fd5b806129de8685615d4e90919063ffffffff16565b1115612a52576040517f08c379a00000000000000000000000000000000000000000000000000000000081526004018080602001828103825260028152602001807f463100000000000000000000000000000000000000000000000000000000000081525060200191505060405180910390fd5b60008483039050600084830390506000821115612b6a576000601060008001601d9054906101000a900460ff1660ff1681612a8957fe5b0690506000808260ff1614612aaa578160ff168481612aa457fe5b04612aad565b60005b90506000816fffffffffffffffffffffffffffffffff161115612b285780600360000160008282829054906101000a90046fffffffffffffffffffffffffffffffff160192506101000a8154816fffffffffffffffffffffffffffffffff02191690836fffffffffffffffffffffffffffffffff1602179055505b612b588185037001000000000000000000000000000000008d6fffffffffffffffffffffffffffffffff16614dd3565b60016000828254019250508190555050505b6000811115612c6e576000600460008001601d9054906101000a900460ff1660ff16901c90506000808260ff1614612bae578160ff168381612ba857fe5b04612bb1565b60005b90506000816fffffffffffffffffffffffffffffffff161115612c2c5780600360000160108282829054906101000a90046fffffffffffffffffffffffffffffffff160192506101000a8154816fffffffffffffffffffffffffffffffff02191690836fffffffffffffffffffffffffffffffff1602179055505b612c5c8184037001000000000000000000000000000000008d6fffffffffffffffffffffffffffffffff16614dd3565b60026000828254019250508190555050505b8d73ffffffffffffffffffffffffffffffffffffffff163373ffffffffffffffffffffffffffffffffffffffff167fbdbdb71d7860376ba52b25a5028beea23581364a40522f6bcfb86bb1f2dca6338f8f86866040518085815260200184815260200183815260200182815260200194505050505060405180910390a3505050505050505050600160008001601e6101000a81548160ff0219169083151502179055505050505050565b60008060008001601e9054906101000a900460ff16612d9f576040517f08c379a00000000000000000000000000000000000000000000000000000000081526004018080602001828103825260038152602001807f4c4f4b000000000000000000000000000000000000000000000000000000000081525060200191505060405180910390fd5b600080600001601e6101000a81548160ff0219169083151502179055506000612dd633888860076163a3909392919063ffffffff16565b90508060030160009054906101000a90046fffffffffffffffffffffffffffffffff166fffffffffffffffffffffffffffffffff16856fffffffffffffffffffffffffffffffff1611612e295784612e4b565b8060030160009054906101000a90046fffffffffffffffffffffffffffffffff165b92508060030160109054906101000a90046fffffffffffffffffffffffffffffffff166fffffffffffffffffffffffffffffffff16846fffffffffffffffffffffffffffffffff1611612e9e5783612ec0565b8060030160109054906101000a90046fffffffffffffffffffffffffffffffff165b91506000836fffffffffffffffffffffffffffffffff161115612f7757828160030160008282829054906101000a90046fffffffffffffffffffffffffffffffff160392506101000a8154816fffffffffffffffffffffffffffffffff02191690836fffffffffffffffffffffffffffffffff160217905550612f767f000000000000000000000000000000000000000000000000000000000000000089856fffffffffffffffffffffffffffffffff166159a3565b5b6000826fffffffffffffffffffffffffffffffff16111561302c57818160030160108282829054906101000a90046fffffffffffffffffffffffffffffffff160392506101000a8154816fffffffffffffffffffffffffffffffff02191690836fffffffffffffffffffffffffffffffff16021790555061302b7f000000000000000000000000000000000000000000000000000000000000000089846fffffffffffffffffffffffffffffffff166159a3565b5b8560020b8760020b3373ffffffffffffffffffffffffffffffffffffffff167f70935338e69775456a85ddef226c395fb668b63fa0115f5f20610b388e6ca9c08b8787604051808473ffffffffffffffffffffffffffffffffffffffff168152602001836fffffffffffffffffffffffffffffffff168152602001826fffffffffffffffffffffffffffffffff168152602001935050505060405180910390a450600160008001601e6101000a81548160ff0219169083151502179055509550959350505050565b60076020528060005260406000206000915090508060000160009054906101000a90046fffffffffffffffffffffffffffffffff16908060010154908060020154908060030160009054906101000a90046fffffffffffffffffffffffffffffffff16908060030160109054906101000a90046fffffffffffffffffffffffffffffffff16905085565b60066020528060005260406000206000915090505481565b7f000000000000000000000000000000000000000000000000000000000000000081565b60008001601e9054906101000a900460ff1661323e576040517f08c379a00000000000000000000000000000000000000000000000000000000081526004018080602001828103825260038152602001807f4c4f4b000000000000000000000000000000000000000000000000000000000081525060200191505060405180910390fd5b600080600001601e6101000a81548160ff0219169083151502179055507f000000000000000000000000000000000000000000000000000000000000000073ffffffffffffffffffffffffffffffffffffffff16638da5cb5b6040518163ffffffff1660e01b815260040160206040518083038186803b1580156132c157600080fd5b505afa1580156132d5573d6000803e3d6000fd5b505050506040513d60208110156132eb57600080fd5b810190808051906020019092919050505073ffffffffffffffffffffffffffffffffffffffff163373ffffffffffffffffffffffffffffffffffffffff161461333357600080fd5b60008260ff161480613359575060048260ff16101580156133585750600a8260ff1611155b5b8015613387575060008160ff161480613386575060048160ff16101580156133855750600a8160ff1611155b5b5b61339057600080fd5b600080600001601d9054906101000a900460ff16905060048260ff16901b830160008001601d6101000a81548160ff021916908360ff1602179055507f973d8d92bb299f4af6ce49b52a8adb85ae46b9f214c4c4fc06ac77401237b13360108260ff16816133fa57fe5b0660048360ff16901c8585604051808560ff1681526020018460ff1681526020018360ff1681526020018260ff16815260200194505050505060405180910390a150600160008001601e6101000a81548160ff0219169083151502179055505050565b60008060008001601e9054906101000a900460ff166134e4576040517f08c379a00000000000000000000000000000000000000000000000000000000081526004018080602001828103825260038152602001807f4c4f4b000000000000000000000000000000000000000000000000000000000081525060200191505060405180910390fd5b600080600001601e6101000a81548160ff0219169083151502179055507f000000000000000000000000000000000000000000000000000000000000000073ffffffffffffffffffffffffffffffffffffffff16638da5cb5b6040518163ffffffff1660e01b815260040160206040518083038186803b15801561356757600080fd5b505afa15801561357b573d6000803e3d6000fd5b505050506040513d602081101561359157600080fd5b810190808051906020019092919050505073ffffffffffffffffffffffffffffffffffffffff163373ffffffffffffffffffffffffffffffffffffffff16146135d957600080fd5b600360000160009054906101000a90046fffffffffffffffffffffffffffffffff166fffffffffffffffffffffffffffffffff16846fffffffffffffffffffffffffffffffff161161362b578361364e565b600360000160009054906101000a90046fffffffffffffffffffffffffffffffff165b9150600360000160109054906101000a90046fffffffffffffffffffffffffffffffff166fffffffffffffffffffffffffffffffff16836fffffffffffffffffffffffffffffffff16116136a257826136c5565b600360000160109054906101000a90046fffffffffffffffffffffffffffffffff165b90506000826fffffffffffffffffffffffffffffffff1611156137d457600360000160009054906101000a90046fffffffffffffffffffffffffffffffff166fffffffffffffffffffffffffffffffff16826fffffffffffffffffffffffffffffffff161415613739578180600190039250505b81600360000160008282829054906101000a90046fffffffffffffffffffffffffffffffff160392506101000a8154816fffffffffffffffffffffffffffffffff02191690836fffffffffffffffffffffffffffffffff1602179055506137d37f000000000000000000000000000000000000000000000000000000000000000086846fffffffffffffffffffffffffffffffff166159a3565b5b6000816fffffffffffffffffffffffffffffffff1611156138e157600360000160109054906101000a90046fffffffffffffffffffffffffffffffff166fffffffffffffffffffffffffffffffff16816fffffffffffffffffffffffffffffffff161415613846578080600190039150505b80600360000160108282829054906101000a90046fffffffffffffffffffffffffffffffff160392506101000a8154816fffffffffffffffffffffffffffffffff02191690836fffffffffffffffffffffffffffffffff1602179055506138e07f000000000000000000000000000000000000000000000000000000000000000086836fffffffffffffffffffffffffffffffff166159a3565b5b8473ffffffffffffffffffffffffffffffffffffffff163373ffffffffffffffffffffffffffffffffffffffff167f596b573906218d3411850b26a6b437d6c4522fdb43d2d2386263f86d50b8b151848460405180836fffffffffffffffffffffffffffffffff168152602001826fffffffffffffffffffffffffffffffff1681526020019250505060405180910390a3600160008001601e6101000a81548160ff021916908315150217905550935093915050565b6060806139a2614506565b613a5b6139ad614560565b858580806020026020016040519081016040528093929190818152602001838360200280828437600081840152601f19601f820116905080830192505050505050506000800160149054906101000a900460020b6000800160179054906101000a900461ffff16600460009054906101000a90046fffffffffffffffffffffffffffffffff166000800160199054906101000a900461ffff16600861641c909695949392919063ffffffff16565b915091509250929050565b60008060008001601e9054906101000a900460ff16613aed576040517f08c379a00000000000000000000000000000000000000000000000000000000081526004018080602001828103825260038152602001807f4c4f4b000000000000000000000000000000000000000000000000000000000081525060200191505060405180910390fd5b600080600001601e6101000a81548160ff0219169083151502179055506000806000613b7460405180608001604052803373ffffffffffffffffffffffffffffffffffffffff1681526020018a60020b81526020018960020b8152602001613b66896fffffffffffffffffffffffffffffffff16616008565b600003600f0b815250616021565b9250925092508160000394508060000393506000851180613b955750600084115b15613c5d57848360030160009054906101000a90046fffffffffffffffffffffffffffffffff1601848460030160109054906101000a90046fffffffffffffffffffffffffffffffff16018460030160008660030160108491906101000a8154816fffffffffffffffffffffffffffffffff02191690836fffffffffffffffffffffffffffffffff1602179055508391906101000a8154816fffffffffffffffffffffffffffffffff02191690836fffffffffffffffffffffffffffffffff16021790555050505b8660020b8860020b3373ffffffffffffffffffffffffffffffffffffffff167f0c396cd989a39f4459b5fa1aed6a9a8dcdbc45908acfd67e028cd568da98982c89898960405180846fffffffffffffffffffffffffffffffff168152602001838152602001828152602001935050505060405180910390a4505050600160008001601e6101000a81548160ff021916908315150217905550935093915050565b6000806000613d0a614506565b613d1485856165d7565b6000806000806000806000600560008d60020b60020b815260200190815260200160002090506000600560008d60020b60020b8152602001908152602001600020905060008260030160009054906101000a900460060b8360030160079054906101000a900473ffffffffffffffffffffffffffffffffffffffff1684600301601b9054906101000a900463ffffffff1685600301601f9054906101000a900460ff16809450819850829a50839c505050505080613dd157600080fd5b60008260030160009054906101000a900460060b8360030160079054906101000a900473ffffffffffffffffffffffffffffffffffffffff1684600301601b9054906101000a900463ffffffff1685600301601f9054906101000a900460ff16809450819850829a50839c505050505080613e4b57600080fd5b505050506000806040518060e00160405290816000820160009054906101000a900473ffffffffffffffffffffffffffffffffffffffff1673ffffffffffffffffffffffffffffffffffffffff1673ffffffffffffffffffffffffffffffffffffffff1681526020016000820160149054906101000a900460020b60020b60020b81526020016000820160179054906101000a900461ffff1661ffff1661ffff1681526020016000820160199054906101000a900461ffff1661ffff1661ffff16815260200160008201601b9054906101000a900461ffff1661ffff1661ffff16815260200160008201601d9054906101000a900460ff1660ff1660ff16815260200160008201601e9054906101000a900460ff16151515158152505090508b60020b816020015160020b1215613f975785870384860383850399509950995050505050505050614040565b8a60020b816020015160020b1215614029576000613fb3614560565b905060008061400183600086602001518760400151600460009054906101000a90046fffffffffffffffffffffffffffffffff1689606001516008614ead909695949392919063ffffffff16565b91509150888a830303878983030386888603039c509c509c5050505050505050505050614040565b868603858503848403995099509950505050505050505b9250925092565b7f000000000000000000000000000000000000000000000000000000000000000081565b7f000000000000000000000000000000000000000000000000000000000000000081565b7f000000000000000000000000000000000000000000000000000000000000000081565b7f000000000000000000000000000000000000000000000000000000000000000081565b60015481565b60056020528060005260406000206000915090508060000160009054906101000a90046fffffffffffffffffffffffffffffffff16908060000160109054906101000a9004600f0b908060010154908060020154908060030160009054906101000a900460060b908060030160079054906101000a900473ffffffffffffffffffffffffffffffffffffffff169080600301601b9054906101000a900463ffffffff169080600301601f9054906101000a900460ff16905088565b60008060000160009054906101000a900473ffffffffffffffffffffffffffffffffffffffff1673ffffffffffffffffffffffffffffffffffffffff1614614248576040517f08c379a00000000000000000000000000000000000000000000000000000000081526004018080602001828103825260028152602001807f414900000000000000000000000000000000000000000000000000000000000081525060200191505060405180910390fd5b600061425382615375565b9050600080614273614263614560565b600861679190919063ffffffff16565b915091506040518060e001604052808573ffffffffffffffffffffffffffffffffffffffff1681526020018460020b8152602001600061ffff1681526020018361ffff1681526020018261ffff168152602001600060ff168152602001600115158152506000808201518160000160006101000a81548173ffffffffffffffffffffffffffffffffffffffff021916908373ffffffffffffffffffffffffffffffffffffffff16021790555060208201518160000160146101000a81548162ffffff021916908360020b62ffffff16021790555060408201518160000160176101000a81548161ffff021916908361ffff16021790555060608201518160000160196101000a81548161ffff021916908361ffff160217905550608082015181600001601b6101000a81548161ffff021916908361ffff16021790555060a082015181600001601d6101000a81548160ff021916908360ff16021790555060c082015181600001601e6101000a81548160ff0219169083151502179055509050507f98636036cb66a9c19a37435efc1e90142190214e8abeb821bdba3f2990dd4c958484604051808373ffffffffffffffffffffffffffffffffffffffff1681526020018260020b81526020019250505060405180910390a150505050565b600080828360020b7ffffffffffffffffffffffffffffffffffffffffffffffffffffffffffff2761860020b8161448557fe5b050290506000838460020b7ffffffffffffffffffffffffffffffffffffffffffffffffffffffffffff2761860000360020b816144be57fe5b05029050600060018560020b84840360020b816144d757fe5b050190508062ffffff166fffffffffffffffffffffffffffffffff8016816144fb57fe5b049350505050919050565b7f000000000000000000000000000000000000000000000000000000000000000073ffffffffffffffffffffffffffffffffffffffff163073ffffffffffffffffffffffffffffffffffffffff161461455e57600080fd5b565b600042905090565b60008060008460020b8660020b8161457c57fe5b05905060008660020b1280156145a5575060008560020b8760020b8161459e57fe5b0760020b14155b156145b4578080600190039150505b8315614638576000806145c6836168b7565b9150915060008160ff166001901b60018360ff166001901b030190506000818b60008660010b60010b815260200190815260200160002054169050600081141595508561461a57888360ff1686030261462d565b88614624826168da565b840360ff168603025b9650505050506146b6565b600080614647600184016168b7565b91509150600060018260ff166001901b031990506000818b60008660010b60010b815260200190815260200160002054169050600081141595508561469957888360ff0360ff166001870101026146af565b88836146a4836169b5565b0360ff166001870101025b9650505050505b5094509492505050565b60008060008360020b126146d7578260020b6146df565b8260020b6000035b90507ffffffffffffffffffffffffffffffffffffffffffffffffffffffffffff2761860000360020b81111561477d576040517f08c379a00000000000000000000000000000000000000000000000000000000081526004018080602001828103825260018152602001807f540000000000000000000000000000000000000000000000000000000000000081525060200191505060405180910390fd5b6000806001831614156147a1577001000000000000000000000000000000006147b3565b6ffffcb933bd6fad37aa2d162d1a5940015b70ffffffffffffffffffffffffffffffffff169050600060028316146147ed5760806ffff97272373d413259a46990580e213a8202901c90505b600060048316146148125760806ffff2e50f5f656932ef12357cf3c7fdcc8202901c90505b600060088316146148375760806fffe5caca7e10e4e61c3624eaa0941cd08202901c90505b6000601083161461485c5760806fffcb9843d60f6159c9db58835c9266448202901c90505b600060208316146148815760806fff973b41fa98c081472e6896dfb254c08202901c90505b600060408316146148a65760806fff2ea16466c96a3843ec78b326b528618202901c90505b600060808316146148cb5760806ffe5dee046a99a2a811c461f1969c30538202901c90505b60006101008316146148f15760806ffcbe86c7900a88aedcffc83b479aa3a48202901c90505b60006102008316146149175760806ff987a7253ac413176f2b074cf7815e548202901c90505b600061040083161461493d5760806ff3392b0822b70005940c7a398e4b70f38202901c90505b60006108008316146149635760806fe7159475a2c29b7443b29c7fa6e889d98202901c90505b60006110008316146149895760806fd097f3bdfd2022b8845ad8f792aa58258202901c90505b60006120008316146149af5760806fa9f746462d870fdf8a65dc1f90e061e58202901c90505b60006140008316146149d55760806f70d869a156d2a1b890bb3df62baf32f78202901c90505b60006180008316146149fb5760806f31be135f97d08fd981231505542fcfa68202901c90505b600062010000831614614a225760806f09aa508b5b7a84e1c677de54f3e99bc98202901c90505b600062020000831614614a485760806e5d6af8dedb81196699c329225ee6048202901c90505b600062040000831614614a6d5760806d2216e584f5fa1ea926041bedfe988202901c90505b600062080000831614614a905760806b048a170391f7dc42444e8fa28202901c90505b60008460020b1315614ac957807fffffffffffffffffffffffffffffffffffffffffffffffffffffffffffffffff81614ac557fe5b0490505b60006401000000008281614ad957fe5b0614614ae6576001614ae9565b60005b60ff16602082901c0192505050919050565b60008060008060008873ffffffffffffffffffffffffffffffffffffffff168a73ffffffffffffffffffffffffffffffffffffffff161015905060008088121590508015614baa576000614b5d8989620f42400362ffffff16620f4240614dd3565b905082614b7657614b718c8c8c6001616adc565b614b84565b614b838b8d8c6001616bb6565b5b9550858110614b95578a9650614ba4565b614ba18c8b8386616cec565b96505b50614bf6565b81614bc157614bbc8b8b8b6000616bb6565b614bcf565b614bce8a8c8b6000616adc565b5b9350838860000310614be357899550614bf5565b614bf28b8a8a60000385616d5e565b95505b5b60008673ffffffffffffffffffffffffffffffffffffffff168b73ffffffffffffffffffffffffffffffffffffffff161490508215614c7d57808015614c395750815b614c4f57614c4a878d8c6001616bb6565b614c51565b855b9550808015614c5e575081155b614c7457614c6f878d8c6000616adc565b614c76565b845b9450614cc7565b808015614c875750815b614c9d57614c988c888c6001616adc565b614c9f565b855b9550808015614cac575081155b614cc257614cbd8c888c6000616bb6565b614cc4565b845b94505b81158015614cd757508860000385115b15614ce3578860000394505b818015614d1c57508a73ffffffffffffffffffffffffffffffffffffffff168773ffffffffffffffffffffffffffffffffffffffff1614155b15614d2b578589039350614d48565b614d45868962ffffff168a620f42400362ffffff16616345565b93505b50505095509550955095915050565b60007f80000000000000000000000000000000000000000000000000000000000000008210614d8557600080fd5b819050919050565b6000808212151515838385039250821315151514614daa57600080fd5b92915050565b6000808212151515838385019250821215151514614dcd57600080fd5b92915050565b600080600080198587098587029250828110838203039150506000811415614e0e5760008411614e0257600080fd5b83820492505050614ea6565b808411614e1a57600080fd5b600084868809905082811182039150808303925060008586600003169050808604955080840493506001818260000304019050808302841793506000600287600302189050808702600203810290508087026002038102905080870260020381029050808702600203810290508087026002038102905080870260020381029050808502955050505050505b9392505050565b60008060008763ffffffff161415614fce576000898661ffff1661ffff8110614ed257fe5b016040518060800160405290816000820160009054906101000a900463ffffffff1663ffffffff1663ffffffff1681526020016000820160049054906101000a900460060b60060b60060b815260200160008201600b9054906101000a900473ffffffffffffffffffffffffffffffffffffffff1673ffffffffffffffffffffffffffffffffffffffff1673ffffffffffffffffffffffffffffffffffffffff16815260200160008201601f9054906101000a900460ff16151515158152505090508863ffffffff16816000015163ffffffff1614614fba57614fb7818a8988616dd0565b90505b8060200151816040015192509250506150d4565b60008789039050600080614fe78c8c858c8c8c8c616ebb565b91509150816000015163ffffffff168363ffffffff1614156150195781602001518260400151945094505050506150d4565b806000015163ffffffff168363ffffffff1614156150475780602001518160400151945094505050506150d4565b60008260000151826000015103905060008360000151850390508063ffffffff168263ffffffff16856020015185602001510360060b8161508457fe5b05028460200151018263ffffffff168263ffffffff16866040015186604001510373ffffffffffffffffffffffffffffffffffffffff1602816150c357fe5b048560400151019650965050505050505b97509795505050505050565b6000808860008960020b60020b815260200190815260200160002090508060010154870381600101819055508060020154860381600201819055508060030160079054906101000a900473ffffffffffffffffffffffffffffffffffffffff1685038160030160076101000a81548173ffffffffffffffffffffffffffffffffffffffff021916908373ffffffffffffffffffffffffffffffffffffffff1602179055508060030160009054906101000a900460060b84038160030160006101000a81548166ffffffffffffff021916908360060b66ffffffffffffff16021790555080600301601b9054906101000a900463ffffffff16830381600301601b6101000a81548163ffffffff021916908363ffffffff1602179055508060000160109054906101000a9004600f0b915050979650505050505050565b60008082600f0b12156152cf57826fffffffffffffffffffffffffffffffff168260000384039150816fffffffffffffffffffffffffffffffff16106152ca576040517f08c379a00000000000000000000000000000000000000000000000000000000081526004018080602001828103825260028152602001807f4c5300000000000000000000000000000000000000000000000000000000000081525060200191505060405180910390fd5b61536f565b826fffffffffffffffffffffffffffffffff168284019150816fffffffffffffffffffffffffffffffff16101561536e576040517f08c379a00000000000000000000000000000000000000000000000000000000081526004018080602001828103825260028152602001807f4c4100000000000000000000000000000000000000000000000000000000000081525060200191505060405180910390fd5b5b92915050565b60006401000276a373ffffffffffffffffffffffffffffffffffffffff168273ffffffffffffffffffffffffffffffffffffffff16101580156153f7575073fffd8963efd1fc6a506488495d951d5263988d2673ffffffffffffffffffffffffffffffffffffffff168273ffffffffffffffffffffffffffffffffffffffff16105b615469576040517f08c379a00000000000000000000000000000000000000000000000000000000081526004018080602001828103825260018152602001807f520000000000000000000000000000000000000000000000000000000000000081525060200191505060405180910390fd5b600060208373ffffffffffffffffffffffffffffffffffffffff16901b9050600081905060006fffffffffffffffffffffffffffffffff821160071b808217915082811c92505067ffffffffffffffff821160061b808217915082811c92505063ffffffff821160051b808217915082811c92505061ffff821160041b808217915082811c92505060ff821160031b808217915082811c925050600f821160021b808217915082811c9250506003821160011b808217915082811c925050600182118082179150506080811061554757607f810383901c9150615551565b80607f0383901b91505b6000604060808303901b9050828302607f1c92508260801c80603f1b8217915083811c935050828302607f1c92508260801c80603e1b8217915083811c935050828302607f1c92508260801c80603d1b8217915083811c935050828302607f1c92508260801c80603c1b8217915083811c935050828302607f1c92508260801c80603b1b8217915083811c935050828302607f1c92508260801c80603a1b8217915083811c935050828302607f1c92508260801c8060391b8217915083811c935050828302607f1c92508260801c8060381b8217915083811c935050828302607f1c92508260801c8060371b8217915083811c935050828302607f1c92508260801c8060361b8217915083811c935050828302607f1c92508260801c8060351b8217915083811c935050828302607f1c92508260801c8060341b8217915083811c935050828302607f1c92508260801c8060331b8217915083811c935050828302607f1c92508260801c8060321b82179150506000693627a301d71055774c8582029050600060806f028f6481ab7f045a5af012a19d003aaa8303901d9050600060806fdb2df09e81959a81455e260799a0632f8401901d90508060020b8260020b14615761578873ffffffffffffffffffffffffffffffffffffffff16615738826146c0565b73ffffffffffffffffffffffffffffffffffffffff16111561575a578161575c565b805b615763565b815b975050505050505050919050565b6000806000898961ffff1661ffff811061578757fe5b016040518060800160405290816000820160009054906101000a900463ffffffff1663ffffffff1663ffffffff1681526020016000820160049054906101000a900460060b60060b60060b815260200160008201600b9054906101000a900473ffffffffffffffffffffffffffffffffffffffff1673ffffffffffffffffffffffffffffffffffffffff1673ffffffffffffffffffffffffffffffffffffffff16815260200160008201601f9054906101000a900460ff16151515158152505090508763ffffffff16816000015163ffffffff16141561586d5788859250925050615997565b8461ffff168461ffff1611801561588e57506001850361ffff168961ffff16145b1561589b5783915061589f565b8491505b8161ffff1660018a0161ffff16816158b357fe5b0692506158c281898989616dd0565b8a8461ffff1661ffff81106158d357fe5b0160008201518160000160006101000a81548163ffffffff021916908363ffffffff16021790555060208201518160000160046101000a81548166ffffffffffffff021916908360060b66ffffffffffffff160217905550604082015181600001600b6101000a81548173ffffffffffffffffffffffffffffffffffffffff021916908373ffffffffffffffffffffffffffffffffffffffff160217905550606082015181600001601f6101000a81548160ff021916908315150217905550905050505b97509795505050505050565b6000808473ffffffffffffffffffffffffffffffffffffffff1663a9059cbb60e01b8585604051602401808373ffffffffffffffffffffffffffffffffffffffff16815260200182815260200192505050604051602081830303815290604052907bffffffffffffffffffffffffffffffffffffffffffffffffffffffff19166020820180517bffffffffffffffffffffffffffffffffffffffffffffffffffffffff83818316178352505050506040518082805190602001908083835b60208310615a845780518252602082019150602081019050602083039250615a61565b6001836020036101000a0380198251168184511680821785525050505050509050019150506000604051808303816000865af19150503d8060008114615ae6576040519150601f19603f3d011682016040523d82523d6000602084013e615aeb565b606091505b5091509150818015615b2b5750600081511480615b2a5750808060200190516020811015615b1857600080fd5b81019080805190602001909291905050505b5b615b9d576040517f08c379a00000000000000000000000000000000000000000000000000000000081526004018080602001828103825260028152602001807f544600000000000000000000000000000000000000000000000000000000000081525060200191505060405180910390fd5b5050505050565b60008060007f000000000000000000000000000000000000000000000000000000000000000073ffffffffffffffffffffffffffffffffffffffff166370a0823160e01b30604051602401808273ffffffffffffffffffffffffffffffffffffffff168152602001915050604051602081830303815290604052907bffffffffffffffffffffffffffffffffffffffffffffffffffffffff19166020820180517bffffffffffffffffffffffffffffffffffffffffffffffffffffffff83818316178352505050506040518082805190602001908083835b60208310615c9f5780518252602082019150602081019050602083039250615c7c565b6001836020036101000a038019825116818451168082178552505050505050905001915050600060405180830381855afa9150503d8060008114615cff576040519150601f19603f3d011682016040523d82523d6000602084013e615d04565b606091505b5091509150818015615d1857506020815110155b615d2157600080fd5b808060200190516020811015615d3657600080fd5b81019080805190602001909291905050509250505090565b6000828284019150811015615d6257600080fd5b92915050565b60008060007f000000000000000000000000000000000000000000000000000000000000000073ffffffffffffffffffffffffffffffffffffffff166370a0823160e01b30604051602401808273ffffffffffffffffffffffffffffffffffffffff168152602001915050604051602081830303815290604052907bffffffffffffffffffffffffffffffffffffffffffffffffffffffff19166020820180517bffffffffffffffffffffffffffffffffffffffffffffffffffffffff83818316178352505050506040518082805190602001908083835b60208310615e635780518252602082019150602081019050602083039250615e40565b6001836020036101000a038019825116818451168082178552505050505050905001915050600060405180830381855afa9150503d8060008114615ec3576040519150601f19603f3d011682016040523d82523d6000602084013e615ec8565b606091505b5091509150818015615edc57506020815110155b615ee557600080fd5b808060200190516020811015615efa57600080fd5b81019080805190602001909291905050509250505090565b6000808361ffff1611615f8d576040517f08c379a00000000000000000000000000000000000000000000000000000000081526004018080602001828103825260018152602001807f490000000000000000000000000000000000000000000000000000000000000081525060200191505060405180910390fd5b8261ffff168261ffff1611615fa457829050616001565b60008390505b8261ffff168161ffff161015615ffc576001858261ffff1661ffff8110615fcd57fe5b0160000160006101000a81548163ffffffff021916908363ffffffff1602179055508080600101915050615faa565b508190505b9392505050565b60008182915081600f0b1461601c57600080fd5b919050565b600080600061602e614506565b616040846020015185604001516165d7565b6000806040518060e00160405290816000820160009054906101000a900473ffffffffffffffffffffffffffffffffffffffff1673ffffffffffffffffffffffffffffffffffffffff1673ffffffffffffffffffffffffffffffffffffffff1681526020016000820160149054906101000a900460020b60020b60020b81526020016000820160179054906101000a900461ffff1661ffff1661ffff1681526020016000820160199054906101000a900461ffff1661ffff1661ffff16815260200160008201601b9054906101000a900461ffff1661ffff1661ffff16815260200160008201601d9054906101000a900460ff1660ff1660ff16815260200160008201601e9054906101000a900460ff161515151581525050905061617c85600001518660200151876040015188606001518560200151617245565b935060008560600151600f0b1461633d57846020015160020b816020015160020b12156161d1576161ca6161b386602001516146c0565b6161c087604001516146c0565b876060015161749e565b925061633c565b846040015160020b816020015160020b1215616311576000600460009054906101000a90046fffffffffffffffffffffffffffffffff16905061623f826040015161621a614560565b846020015184866060015187608001516008615771909695949392919063ffffffff16565b6000800160176000800160198491906101000a81548161ffff021916908361ffff1602179055508391906101000a81548161ffff021916908361ffff16021790555050506162a2826000015161629888604001516146c0565b886060015161749e565b93506162c36162b487602001516146c0565b836000015188606001516174e9565b92506162d381876060015161521c565b600460006101000a8154816fffffffffffffffffffffffffffffffff02191690836fffffffffffffffffffffffffffffffff1602179055505061633b565b61633861632186602001516146c0565b61632e87604001516146c0565b87606001516174e9565b91505b5b5b509193909250565b6000616352848484614dd3565b90506000828061635e57fe5b848609111561639c577fffffffffffffffffffffffffffffffffffffffffffffffffffffffffffffffff811061639357600080fd5b80806001019150505b9392505050565b6000846000858585604051602001808473ffffffffffffffffffffffffffffffffffffffff1660601b81526014018360020b60e81b81526003018260020b60e81b815260030193505050506040516020818303038152906040528051906020012081526020019081526020016000209050949350505050565b60608060008361ffff1611616499576040517f08c379a00000000000000000000000000000000000000000000000000000000081526004018080602001828103825260018152602001807f490000000000000000000000000000000000000000000000000000000000000081525060200191505060405180910390fd5b865167ffffffffffffffff811180156164b157600080fd5b506040519080825280602002602001820160405280156164e05781602001602082028036833780820191505090505b509150865167ffffffffffffffff811180156164fb57600080fd5b5060405190808252806020026020018201604052801561652a5781602001602082028036833780820191505090505b50905060005b87518110156165ca5761655b8a8a8a848151811061654a57fe5b60200260200101518a8a8a8a614ead565b84838151811061656757fe5b6020026020010184848151811061657a57fe5b602002602001018273ffffffffffffffffffffffffffffffffffffffff1673ffffffffffffffffffffffffffffffffffffffff168152508260060b60060b81525050508080600101915050616530565b5097509795505050505050565b8060020b8260020b12616652576040517f08c379a00000000000000000000000000000000000000000000000000000000081526004018080602001828103825260038152602001807f544c55000000000000000000000000000000000000000000000000000000000081525060200191505060405180910390fd5b7ffffffffffffffffffffffffffffffffffffffffffffffffffffffffffff2761860020b8260020b12156166ee576040517f08c379a00000000000000000000000000000000000000000000000000000000081526004018080602001828103825260038152602001807f544c4d000000000000000000000000000000000000000000000000000000000081525060200191505060405180910390fd5b7ffffffffffffffffffffffffffffffffffffffffffffffffffffffffffff2761860000360020b8160020b131561678d576040517f08c379a00000000000000000000000000000000000000000000000000000000081526004018080602001828103825260038152602001807f54554d000000000000000000000000000000000000000000000000000000000081525060200191505060405180910390fd5b5050565b60008060405180608001604052808463ffffffff168152602001600060060b8152602001600073ffffffffffffffffffffffffffffffffffffffff1681526020016001151581525084600061ffff81106167e757fe5b0160008201518160000160006101000a81548163ffffffff021916908363ffffffff16021790555060208201518160000160046101000a81548166ffffffffffffff021916908360060b66ffffffffffffff160217905550604082015181600001600b6101000a81548173ffffffffffffffffffffffffffffffffffffffff021916908373ffffffffffffffffffffffffffffffffffffffff160217905550606082015181600001601f6101000a81548160ff021916908315150217905550905050600180915091509250929050565b60008060088360020b901d91506101008360020b816168d257fe5b079050915091565b60008082116168e857600080fd5b700100000000000000000000000000000000821061690e57608082901c91506080810190505b68010000000000000000821061692c57604082901c91506040810190505b640100000000821061694657602082901c91506020810190505b62010000821061695e57601082901c91506010810190505b610100821061697557600882901c91506008810190505b6010821061698b57600482901c91506004810190505b600482106169a157600282901c91506002810190505b600282106169b0576001810190505b919050565b60008082116169c357600080fd5b60ff905060006fffffffffffffffffffffffffffffffff8016831611156169ef576080810390506169f7565b608082901c91505b600067ffffffffffffffff801683161115616a1757604081039050616a1f565b604082901c91505b600063ffffffff801683161115616a3b57602081039050616a43565b602082901c91505b600061ffff801683161115616a5d57601081039050616a65565b601082901c91505b600060ff801683161115616a7e57600881039050616a86565b600882901c91505b6000600f83161115616a9d57600481039050616aa5565b600482901c91505b6000600383161115616abc57600281039050616ac4565b600282901c91505b6000600183161115616ad7576001810390505b919050565b60008373ffffffffffffffffffffffffffffffffffffffff168573ffffffffffffffffffffffffffffffffffffffff161115616b1d57838580955081965050505b81616b6957616b64836fffffffffffffffffffffffffffffffff1686860373ffffffffffffffffffffffffffffffffffffffff166c01000000000000000000000000614dd3565b616bac565b616bab836fffffffffffffffffffffffffffffffff1686860373ffffffffffffffffffffffffffffffffffffffff166c01000000000000000000000000616345565b5b9050949350505050565b60008373ffffffffffffffffffffffffffffffffffffffff168573ffffffffffffffffffffffffffffffffffffffff161115616bf757838580955081965050505b6000606060ff16846fffffffffffffffffffffffffffffffff16901b9050600086860373ffffffffffffffffffffffffffffffffffffffff16905060008773ffffffffffffffffffffffffffffffffffffffff1611616c5557600080fd5b83616c9f578673ffffffffffffffffffffffffffffffffffffffff16616c9283838973ffffffffffffffffffffffffffffffffffffffff16614dd3565b81616c9957fe5b04616ce0565b616cdf616cc383838973ffffffffffffffffffffffffffffffffffffffff16616345565b8873ffffffffffffffffffffffffffffffffffffffff16617534565b5b92505050949350505050565b6000808573ffffffffffffffffffffffffffffffffffffffff1611616d1057600080fd5b6000846fffffffffffffffffffffffffffffffff1611616d2f57600080fd5b81616d4657616d418585856001617547565b616d54565b616d5385858560016176b9565b5b9050949350505050565b6000808573ffffffffffffffffffffffffffffffffffffffff1611616d8257600080fd5b6000846fffffffffffffffffffffffffffffffff1611616da157600080fd5b81616db857616db385858560006176b9565b616dc6565b616dc58585856000617547565b5b9050949350505050565b616dd86184ce565b600085600001518503905060405180608001604052808663ffffffff1681526020018263ffffffff168660020b0288602001510160060b81526020016000856fffffffffffffffffffffffffffffffff1611616e35576001616e37565b845b6fffffffffffffffffffffffffffffffff1660808463ffffffff1673ffffffffffffffffffffffffffffffffffffffff16901b73ffffffffffffffffffffffffffffffffffffffff1681616e8757fe5b0488604001510173ffffffffffffffffffffffffffffffffffffffff16815260200160011515815250915050949350505050565b616ec36184ce565b616ecb6184ce565b888561ffff1661ffff8110616edc57fe5b016040518060800160405290816000820160009054906101000a900463ffffffff1663ffffffff1663ffffffff1681526020016000820160049054906101000a900460060b60060b60060b815260200160008201600b9054906101000a900473ffffffffffffffffffffffffffffffffffffffff1673ffffffffffffffffffffffffffffffffffffffff1673ffffffffffffffffffffffffffffffffffffffff16815260200160008201601f9054906101000a900460ff1615151515815250509150616fad88836000015189617843565b15616fe5578663ffffffff16826000015163ffffffff161415616fcf57617239565b81616fdc83898988616dd0565b91509150617239565b888361ffff166001870161ffff1681616ffa57fe5b0661ffff1661ffff811061700a57fe5b016040518060800160405290816000820160009054906101000a900463ffffffff1663ffffffff1663ffffffff1681526020016000820160049054906101000a900460060b60060b60060b815260200160008201600b9054906101000a900473ffffffffffffffffffffffffffffffffffffffff1673ffffffffffffffffffffffffffffffffffffffff1673ffffffffffffffffffffffffffffffffffffffff16815260200160008201601f9054906101000a900460ff161515151581525050915081606001516171a65788600061ffff81106170e357fe5b016040518060800160405290816000820160009054906101000a900463ffffffff1663ffffffff1663ffffffff1681526020016000820160049054906101000a900460060b60060b60060b815260200160008201600b9054906101000a900473ffffffffffffffffffffffffffffffffffffffff1673ffffffffffffffffffffffffffffffffffffffff1673ffffffffffffffffffffffffffffffffffffffff16815260200160008201601f9054906101000a900460ff16151515158152505091505b6171b588836000015189617843565b617227576040517f08c379a00000000000000000000000000000000000000000000000000000000081526004018080602001828103825260038152602001807f4f4c44000000000000000000000000000000000000000000000000000000000081525060200191505060405180910390fd5b617234898989888761790b565b915091505b97509795505050505050565b600061725f86868660076163a3909392919063ffffffff16565b90506000600154905060006002549050600080600087600f0b14617412576000617287614560565b90506000806172fe8360008060000160149054906101000a900460020b6000800160179054906101000a900461ffff16600460009054906101000a90046fffffffffffffffffffffffffffffffff166000800160199054906101000a900461ffff166008614ead909695949392919063ffffffff16565b915091506173498c8a8c8a8a86888a60007f00000000000000000000000000000000000000000000000000000000000000006005617b8e909a9998979695949392919063ffffffff16565b94506173928b8a8c8a8a86888a60017f00000000000000000000000000000000000000000000000000000000000000006005617b8e909a9998979695949392919063ffffffff16565b935084156173d1576173d08c7f00000000000000000000000000000000000000000000000000000000000000006006617e909092919063ffffffff16565b5b831561740e5761740d8b7f00000000000000000000000000000000000000000000000000000000000000006006617e909092919063ffffffff16565b5b5050505b6000806174318b8b8a89896005617f089095949392919063ffffffff16565b9150915061744c8983838a617fcf909392919063ffffffff16565b600089600f0b121561748f578315617473576174728b600561835390919063ffffffff16565b5b821561748e5761748d8a600561835390919063ffffffff16565b5b5b50505050505095945050505050565b60008082600f0b126174c4576174bf6174ba8585856001616bb6565b614d57565b6174e0565b6174dc6174d78585856000036000616bb6565b614d57565b6000035b90509392505050565b60008082600f0b1261750f5761750a6175058585856001616adc565b614d57565b61752b565b6175276175228585856000036000616adc565b614d57565b6000035b90509392505050565b6000808284061182840401905092915050565b600081156175fd57600073ffffffffffffffffffffffffffffffffffffffff801684111561759e57617599846c01000000000000000000000000876fffffffffffffffffffffffffffffffff16614dd3565b6175c2565b846fffffffffffffffffffffffffffffffff16606060ff1685901b816175c057fe5b045b90506175f56175f0828873ffffffffffffffffffffffffffffffffffffffff16615d4e90919063ffffffff16565b618434565b9150506176b1565b600073ffffffffffffffffffffffffffffffffffffffff801684111561764c57617647846c01000000000000000000000000876fffffffffffffffffffffffffffffffff16616345565b617670565b61766f606060ff1685901b866fffffffffffffffffffffffffffffffff16617534565b5b9050808673ffffffffffffffffffffffffffffffffffffffff161161769457600080fd5b808673ffffffffffffffffffffffffffffffffffffffff16039150505b949350505050565b6000808314156176cb5784905061783b565b6000606060ff16856fffffffffffffffffffffffffffffffff16901b905082156177b25760008673ffffffffffffffffffffffffffffffffffffffff16858873ffffffffffffffffffffffffffffffffffffffff1687029250828161772c57fe5b04141561776e576000818301905082811061776c57617762838973ffffffffffffffffffffffffffffffffffffffff1683616345565b935050505061783b565b505b6177a9826177a4878a73ffffffffffffffffffffffffffffffffffffffff16868161779557fe5b04615d4e90919063ffffffff16565b617534565b9250505061783b565b60008673ffffffffffffffffffffffffffffffffffffffff16858873ffffffffffffffffffffffffffffffffffffffff168702925082816177ef57fe5b041480156177fc57508082115b61780557600080fd5b60008183039050617835617830848a73ffffffffffffffffffffffffffffffffffffffff1684616345565b618434565b93505050505b949350505050565b60008363ffffffff168363ffffffff161115801561786d57508363ffffffff168263ffffffff1611155b15617889578163ffffffff168363ffffffff1611159050617904565b60008463ffffffff168463ffffffff16116178b1576401000000008463ffffffff16016178b9565b8363ffffffff165b64ffffffffff16905060008563ffffffff168463ffffffff16116178ea576401000000008463ffffffff16016178f2565b8363ffffffff165b64ffffffffff16905080821115925050505b9392505050565b6179136184ce565b61791b6184ce565b60008361ffff166001860161ffff168161793157fe5b0661ffff169050600060018561ffff16830103905060005b600115617b815760028284018161795c57fe5b049050898661ffff16828161796d57fe5b0661ffff811061797957fe5b016040518060800160405290816000820160009054906101000a900463ffffffff1663ffffffff1663ffffffff1681526020016000820160049054906101000a900460060b60060b60060b815260200160008201600b9054906101000a900473ffffffffffffffffffffffffffffffffffffffff1673ffffffffffffffffffffffffffffffffffffffff1673ffffffffffffffffffffffffffffffffffffffff16815260200160008201601f9054906101000a900460ff16151515158152505094508460600151617a4f57600181019250617949565b898661ffff166001830181617a6057fe5b0661ffff8110617a6c57fe5b016040518060800160405290816000820160009054906101000a900463ffffffff1663ffffffff1663ffffffff1681526020016000820160049054906101000a900460060b60060b60060b815260200160008201600b9054906101000a900473ffffffffffffffffffffffffffffffffffffffff1673ffffffffffffffffffffffffffffffffffffffff1673ffffffffffffffffffffffffffffffffffffffff16815260200160008201601f9054906101000a900460ff16151515158152505093506000617b3f8a87600001518b617843565b9050808015617b595750617b588a8a8760000151617843565b5b15617b645750617b81565b80617b7457600182039250617b7b565b6001820193505b50617949565b5050509550959350505050565b6000808c60008d60020b60020b8152602001908152602001600020905060008160000160009054906101000a90046fffffffffffffffffffffffffffffffff1690506000617bdc828d61521c565b9050846fffffffffffffffffffffffffffffffff16816fffffffffffffffffffffffffffffffff161115617c78576040517f08c379a00000000000000000000000000000000000000000000000000000000081526004018080602001828103825260028152602001807f4c4f00000000000000000000000000000000000000000000000000000000000081525060200191505060405180910390fd5b6000826fffffffffffffffffffffffffffffffff161415156000826fffffffffffffffffffffffffffffffff16141515141593506000826fffffffffffffffffffffffffffffffff161415617d97578c60020b8e60020b13617d79578a8360010181905550898360020181905550888360030160076101000a81548173ffffffffffffffffffffffffffffffffffffffff021916908373ffffffffffffffffffffffffffffffffffffffff160217905550878360030160006101000a81548166ffffffffffffff021916908360060b66ffffffffffffff1602179055508683600301601b6101000a81548163ffffffff021916908363ffffffff1602179055505b600183600301601f6101000a81548160ff0219169083151502179055505b808360000160006101000a8154816fffffffffffffffffffffffffffffffff02191690836fffffffffffffffffffffffffffffffff16021790555085617e0e57617e09617e048d600f0b8560000160109054906101000a9004600f0b600f0b614db090919063ffffffff16565b616008565b617e41565b617e40617e3b8d600f0b8560000160109054906101000a9004600f0b600f0b614d8d90919063ffffffff16565b616008565b5b8360000160106101000a8154816fffffffffffffffffffffffffffffffff0219169083600f0b6fffffffffffffffffffffffffffffffff1602179055505050509b9a5050505050505050505050565b60008160020b8360020b81617ea157fe5b0760020b14617eaf57600080fd5b600080617eca8360020b8560020b81617ec457fe5b056168b7565b9150915060008160ff166001901b9050808660008560010b60010b815260200190815260200160002060008282541892505081905550505050505050565b60008060008860008960020b60020b8152602001908152602001600020905060008960008960020b60020b815260200190815260200160002090506000808a60020b8960020b12617f66578360010154915083600201549050617f79565b8360010154880391508360020154870390505b6000808b60020b8b60020b1215617f9d578460010154915084600201549050617fb0565b84600101548a0391508460020154890390505b81848b0303975080838a03039650505050505050965096945050505050565b6000846040518060a00160405290816000820160009054906101000a90046fffffffffffffffffffffffffffffffff166fffffffffffffffffffffffffffffffff166fffffffffffffffffffffffffffffffff16815260200160018201548152602001600282015481526020016003820160009054906101000a90046fffffffffffffffffffffffffffffffff166fffffffffffffffffffffffffffffffff166fffffffffffffffffffffffffffffffff1681526020016003820160109054906101000a90046fffffffffffffffffffffffffffffffff166fffffffffffffffffffffffffffffffff166fffffffffffffffffffffffffffffffff1681525050905060008085600f0b141561817657600082600001516fffffffffffffffffffffffffffffffff161161816a576040517f08c379a00000000000000000000000000000000000000000000000000000000081526004018080602001828103825260028152602001807f4e5000000000000000000000000000000000000000000000000000000000000081525060200191505060405180910390fd5b81600001519050618187565b61818482600001518661521c565b90505b60006181c18360200151860384600001516fffffffffffffffffffffffffffffffff16700100000000000000000000000000000000614dd3565b905060006181fd8460400151860385600001516fffffffffffffffffffffffffffffffff16700100000000000000000000000000000000614dd3565b9050600087600f0b1461824657828860000160006101000a8154816fffffffffffffffffffffffffffffffff02191690836fffffffffffffffffffffffffffffffff1602179055505b8588600101819055508488600201819055506000826fffffffffffffffffffffffffffffffff16118061828b57506000816fffffffffffffffffffffffffffffffff16115b1561834957818860030160008282829054906101000a90046fffffffffffffffffffffffffffffffff160192506101000a8154816fffffffffffffffffffffffffffffffff02191690836fffffffffffffffffffffffffffffffff160217905550808860030160108282829054906101000a90046fffffffffffffffffffffffffffffffff160192506101000a8154816fffffffffffffffffffffffffffffffff02191690836fffffffffffffffffffffffffffffffff1602179055505b5050505050505050565b8160008260020b60020b8152602001908152602001600020600080820160006101000a8154906fffffffffffffffffffffffffffffffff02191690556000820160106101000a8154906fffffffffffffffffffffffffffffffff0219169055600182016000905560028201600090556003820160006101000a81549066ffffffffffffff02191690556003820160076101000a81549073ffffffffffffffffffffffffffffffffffffffff021916905560038201601b6101000a81549063ffffffff021916905560038201601f6101000a81549060ff021916905550505050565b6000818291508173ffffffffffffffffffffffffffffffffffffffff161461845b57600080fd5b919050565b6040518060e00160405280600073ffffffffffffffffffffffffffffffffffffffff168152602001600060020b8152602001600015158152602001600073ffffffffffffffffffffffffffffffffffffffff1681526020016000815260200160008152602001600081525090565b6040518060800160405280600063ffffffff168152602001600060060b8152602001600073ffffffffffffffffffffffffffffffffffffffff168152602001600015158152509056fea2646970667358221220a469d9a1ecf67201c27bfe5a3513ab9005ba780ef03393a502380778f071042e64736f6c63430007060033",
  "immutableReferences": {
    "38": [
      {
        "length": 32,
        "start": 17672
      }
    ],
    "413": [
      {
        "length": 32,
        "start": 12893
      },
      {
        "length": 32,
        "start": 13571
      },
      {
        "length": 32,
        "start": 16457
      }
    ],
    "417": [
      {
        "length": 32,
        "start": 3224
      },
      {
        "length": 32,
        "start": 7405
      },
      {
        "length": 32,
        "start": 10279
      },
      {
        "length": 32,
        "start": 12094
      },
      {
        "length": 32,
        "start": 14235
      },
      {
        "length": 32,
        "start": 23467
      }
    ],
    "421": [
      {
        "length": 32,
        "start": 7021
      },
      {
        "length": 32,
        "start": 10332
      },
      {
        "length": 32,
        "start": 12275
      },
      {
        "length": 32,
        "start": 14504
      },
      {
        "length": 32,
        "start": 16529
      },
      {
        "length": 32,
        "start": 23919
      }
    ],
    "425": [
      {
        "length": 32,
        "start": 5178
      },
      {
        "length": 32,
        "start": 10139
      },
      {
        "length": 32,
        "start": 10194
      },
      {
        "length": 32,
        "start": 16565
      }
    ],
    "429": [
      {
        "length": 32,
        "start": 4670
      },
      {
        "length": 32,
        "start": 16493
      },
      {
        "length": 32,
        "start": 29600
      },
      {
        "length": 32,
        "start": 29661
      }
    ],
    "433": [
      {
        "length": 32,
        "start": 12696
      },
      {
        "length": 32,
        "start": 29457
      },
      {
        "length": 32,
        "start": 29530
      }
    ]
  },
  "source": "// SPDX-License-Identifier: BUSL-1.1\r\npragma solidity =0.7.6;\r\n\r\nimport './interfaces/IUniswapV3Pool.sol';\r\n\r\nimport './NoDelegateCall.sol';\r\n\r\nimport './libraries/LowGasSafeMath.sol';\r\nimport './libraries/SafeCast.sol';\r\nimport './libraries/Tick.sol';\r\nimport './libraries/TickBitmap.sol';\r\nimport './libraries/Position.sol';\r\nimport './libraries/Oracle.sol';\r\n\r\nimport './libraries/FullMath.sol';\r\nimport './libraries/FixedPoint128.sol';\r\nimport './libraries/TransferHelper.sol';\r\nimport './libraries/TickMath.sol';\r\nimport './libraries/LiquidityMath.sol';\r\nimport './libraries/SqrtPriceMath.sol';\r\nimport './libraries/SwapMath.sol';\r\n\r\nimport './interfaces/IUniswapV3PoolDeployer.sol';\r\nimport './interfaces/IUniswapV3Factory.sol';\r\nimport './interfaces/IERC20Minimal.sol';\r\nimport './interfaces/callback/IUniswapV3MintCallback.sol';\r\nimport './interfaces/callback/IUniswapV3SwapCallback.sol';\r\nimport './interfaces/callback/IUniswapV3FlashCallback.sol';\r\n\r\ncontract UniswapV3Pool is IUniswapV3Pool, NoDelegateCall {\r\n    using LowGasSafeMath for uint256;\r\n    using LowGasSafeMath for int256;\r\n    using SafeCast for uint256;\r\n    using SafeCast for int256;\r\n    using Tick for mapping(int24 => Tick.Info);\r\n    using TickBitmap for mapping(int16 => uint256);\r\n    using Position for mapping(bytes32 => Position.Info);\r\n    using Position for Position.Info;\r\n    using Oracle for Oracle.Observation[65535];\r\n\r\n    /// @inheritdoc IUniswapV3PoolImmutables\r\n    address public immutable override factory;\r\n    /// @inheritdoc IUniswapV3PoolImmutables\r\n    address public immutable override token0;\r\n    /// @inheritdoc IUniswapV3PoolImmutables\r\n    address public immutable override token1;\r\n    /// @inheritdoc IUniswapV3PoolImmutables\r\n    uint24 public immutable override fee;\r\n\r\n    /// @inheritdoc IUniswapV3PoolImmutables\r\n    int24 public immutable override tickSpacing;\r\n\r\n    /// @inheritdoc IUniswapV3PoolImmutables\r\n    uint128 public immutable override maxLiquidityPerTick;\r\n\r\n    struct Slot0 {\r\n        // the current price\r\n        uint160 sqrtPriceX96;\r\n        // the current tick\r\n        int24 tick;\r\n        // the most-recently updated index of the observations array\r\n        uint16 observationIndex;\r\n        // the current maximum number of observations that are being stored\r\n        uint16 observationCardinality;\r\n        // the next maximum number of observations to store, triggered in observations.write\r\n        uint16 observationCardinalityNext;\r\n        // the current protocol fee as a percentage of the swap fee taken on withdrawal\r\n        // represented as an integer denominator (1/x)%\r\n        uint8 feeProtocol;\r\n        // whether the pool is locked\r\n        bool unlocked;\r\n    }\r\n    /// @inheritdoc IUniswapV3PoolState\r\n    Slot0 public override slot0;\r\n\r\n    /// @inheritdoc IUniswapV3PoolState\r\n    uint256 public override feeGrowthGlobal0X128;\r\n    /// @inheritdoc IUniswapV3PoolState\r\n    uint256 public override feeGrowthGlobal1X128;\r\n\r\n    // accumulated protocol fees in token0/token1 units\r\n    struct ProtocolFees {\r\n        uint128 token0;\r\n        uint128 token1;\r\n    }\r\n    /// @inheritdoc IUniswapV3PoolState\r\n    ProtocolFees public override protocolFees;\r\n\r\n    /// @inheritdoc IUniswapV3PoolState\r\n    uint128 public override liquidity;\r\n\r\n    /// @inheritdoc IUniswapV3PoolState\r\n    mapping(int24 => Tick.Info) public override ticks;\r\n    /// @inheritdoc IUniswapV3PoolState\r\n    mapping(int16 => uint256) public override tickBitmap;\r\n    /// @inheritdoc IUniswapV3PoolState\r\n    mapping(bytes32 => Position.Info) public override positions;\r\n    /// @inheritdoc IUniswapV3PoolState\r\n    Oracle.Observation[65535] public override observations;\r\n\r\n    /// @dev Mutually exclusive reentrancy protection into the pool to/from a method. This method also prevents entrance\r\n    /// to a function before the pool is initialized. The reentrancy guard is required throughout the contract because\r\n    /// we use balance checks to determine the payment status of interactions such as mint, swap and flash.\r\n    modifier lock() {\r\n        require(slot0.unlocked, 'LOK');\r\n        slot0.unlocked = false;\r\n        _;\r\n        slot0.unlocked = true;\r\n    }\r\n\r\n    /// @dev Prevents calling a function from anyone except the address returned by IUniswapV3Factory#owner()\r\n    modifier onlyFactoryOwner() {\r\n        require(msg.sender == IUniswapV3Factory(factory).owner());\r\n        _;\r\n    }\r\n\r\n    constructor() {\r\n        int24 _tickSpacing;\r\n        (factory, token0, token1, fee, _tickSpacing) = IUniswapV3PoolDeployer(msg.sender).parameters();\r\n        tickSpacing = _tickSpacing;\r\n\r\n        maxLiquidityPerTick = Tick.tickSpacingToMaxLiquidityPerTick(_tickSpacing);\r\n    }\r\n\r\n    /// @dev Common checks for valid tick inputs.\r\n    function checkTicks(int24 tickLower, int24 tickUpper) private pure {\r\n        require(tickLower < tickUpper, 'TLU');\r\n        require(tickLower >= TickMath.MIN_TICK, 'TLM');\r\n        require(tickUpper <= TickMath.MAX_TICK, 'TUM');\r\n    }\r\n\r\n    /// @dev Returns the block timestamp truncated to 32 bits, i.e. mod 2**32. This method is overridden in tests.\r\n    function _blockTimestamp() internal view virtual returns (uint32) {\r\n        return uint32(block.timestamp); // truncation is desired\r\n    }\r\n\r\n    /// @dev Get the pool's balance of token0\r\n    /// @dev This function is gas optimized to avoid a redundant extcodesize check in addition to the returndatasize\r\n    /// check\r\n    function balance0() private view returns (uint256) {\r\n        (bool success, bytes memory data) =\r\n            token0.staticcall(abi.encodeWithSelector(IERC20Minimal.balanceOf.selector, address(this)));\r\n        require(success && data.length >= 32);\r\n        return abi.decode(data, (uint256));\r\n    }\r\n\r\n    /// @dev Get the pool's balance of token1\r\n    /// @dev This function is gas optimized to avoid a redundant extcodesize check in addition to the returndatasize\r\n    /// check\r\n    function balance1() private view returns (uint256) {\r\n        (bool success, bytes memory data) =\r\n            token1.staticcall(abi.encodeWithSelector(IERC20Minimal.balanceOf.selector, address(this)));\r\n        require(success && data.length >= 32);\r\n        return abi.decode(data, (uint256));\r\n    }\r\n\r\n    /// @inheritdoc IUniswapV3PoolDerivedState\r\n    function snapshotCumulativesInside(int24 tickLower, int24 tickUpper)\r\n        external\r\n        view\r\n        override\r\n        noDelegateCall\r\n        returns (\r\n            int56 tickCumulativeInside,\r\n            uint160 secondsPerLiquidityInsideX128,\r\n            uint32 secondsInside\r\n        )\r\n    {\r\n        checkTicks(tickLower, tickUpper);\r\n\r\n        int56 tickCumulativeLower;\r\n        int56 tickCumulativeUpper;\r\n        uint160 secondsPerLiquidityOutsideLowerX128;\r\n        uint160 secondsPerLiquidityOutsideUpperX128;\r\n        uint32 secondsOutsideLower;\r\n        uint32 secondsOutsideUpper;\r\n\r\n        {\r\n            Tick.Info storage lower = ticks[tickLower];\r\n            Tick.Info storage upper = ticks[tickUpper];\r\n            bool initializedLower;\r\n            (tickCumulativeLower, secondsPerLiquidityOutsideLowerX128, secondsOutsideLower, initializedLower) = (\r\n                lower.tickCumulativeOutside,\r\n                lower.secondsPerLiquidityOutsideX128,\r\n                lower.secondsOutside,\r\n                lower.initialized\r\n            );\r\n            require(initializedLower);\r\n\r\n            bool initializedUpper;\r\n            (tickCumulativeUpper, secondsPerLiquidityOutsideUpperX128, secondsOutsideUpper, initializedUpper) = (\r\n                upper.tickCumulativeOutside,\r\n                upper.secondsPerLiquidityOutsideX128,\r\n                upper.secondsOutside,\r\n                upper.initialized\r\n            );\r\n            require(initializedUpper);\r\n        }\r\n\r\n        Slot0 memory _slot0 = slot0;\r\n\r\n        if (_slot0.tick < tickLower) {\r\n            return (\r\n                tickCumulativeLower - tickCumulativeUpper,\r\n                secondsPerLiquidityOutsideLowerX128 - secondsPerLiquidityOutsideUpperX128,\r\n                secondsOutsideLower - secondsOutsideUpper\r\n            );\r\n        } else if (_slot0.tick < tickUpper) {\r\n            uint32 time = _blockTimestamp();\r\n            (int56 tickCumulative, uint160 secondsPerLiquidityCumulativeX128) =\r\n                observations.observeSingle(\r\n                    time,\r\n                    0,\r\n                    _slot0.tick,\r\n                    _slot0.observationIndex,\r\n                    liquidity,\r\n                    _slot0.observationCardinality\r\n                );\r\n            return (\r\n                tickCumulative - tickCumulativeLower - tickCumulativeUpper,\r\n                secondsPerLiquidityCumulativeX128 -\r\n                    secondsPerLiquidityOutsideLowerX128 -\r\n                    secondsPerLiquidityOutsideUpperX128,\r\n                time - secondsOutsideLower - secondsOutsideUpper\r\n            );\r\n        } else {\r\n            return (\r\n                tickCumulativeUpper - tickCumulativeLower,\r\n                secondsPerLiquidityOutsideUpperX128 - secondsPerLiquidityOutsideLowerX128,\r\n                secondsOutsideUpper - secondsOutsideLower\r\n            );\r\n        }\r\n    }\r\n\r\n    /// @inheritdoc IUniswapV3PoolDerivedState\r\n    function observe(uint32[] calldata secondsAgos)\r\n        external\r\n        view\r\n        override\r\n        noDelegateCall\r\n        returns (int56[] memory tickCumulatives, uint160[] memory secondsPerLiquidityCumulativeX128s)\r\n    {\r\n        return\r\n            observations.observe(\r\n                _blockTimestamp(),\r\n                secondsAgos,\r\n                slot0.tick,\r\n                slot0.observationIndex,\r\n                liquidity,\r\n                slot0.observationCardinality\r\n            );\r\n    }\r\n\r\n    /// @inheritdoc IUniswapV3PoolActions\r\n    function increaseObservationCardinalityNext(uint16 observationCardinalityNext)\r\n        external\r\n        override\r\n        lock\r\n        noDelegateCall\r\n    {\r\n        uint16 observationCardinalityNextOld = slot0.observationCardinalityNext; // for the event\r\n        uint16 observationCardinalityNextNew =\r\n            observations.grow(observationCardinalityNextOld, observationCardinalityNext);\r\n        slot0.observationCardinalityNext = observationCardinalityNextNew;\r\n        if (observationCardinalityNextOld != observationCardinalityNextNew)\r\n            emit IncreaseObservationCardinalityNext(observationCardinalityNextOld, observationCardinalityNextNew);\r\n    }\r\n\r\n    /// @inheritdoc IUniswapV3PoolActions\r\n    /// @dev not locked because it initializes unlocked\r\n    function initialize(uint160 sqrtPriceX96) external override {\r\n        require(slot0.sqrtPriceX96 == 0, 'AI');\r\n\r\n        int24 tick = TickMath.getTickAtSqrtRatio(sqrtPriceX96);\r\n\r\n        (uint16 cardinality, uint16 cardinalityNext) = observations.initialize(_blockTimestamp());\r\n\r\n        slot0 = Slot0({\r\n            sqrtPriceX96: sqrtPriceX96,\r\n            tick: tick,\r\n            observationIndex: 0,\r\n            observationCardinality: cardinality,\r\n            observationCardinalityNext: cardinalityNext,\r\n            feeProtocol: 0,\r\n            unlocked: true\r\n        });\r\n\r\n        emit Initialize(sqrtPriceX96, tick);\r\n    }\r\n\r\n    struct ModifyPositionParams {\r\n        // the address that owns the position\r\n        address owner;\r\n        // the lower and upper tick of the position\r\n        int24 tickLower;\r\n        int24 tickUpper;\r\n        // any change in liquidity\r\n        int128 liquidityDelta;\r\n    }\r\n\r\n    /// @dev Effect some changes to a position\r\n    /// @param params the position details and the change to the position's liquidity to effect\r\n    /// @return position a storage pointer referencing the position with the given owner and tick range\r\n    /// @return amount0 the amount of token0 owed to the pool, negative if the pool should pay the recipient\r\n    /// @return amount1 the amount of token1 owed to the pool, negative if the pool should pay the recipient\r\n    function _modifyPosition(ModifyPositionParams memory params)\r\n        private\r\n        noDelegateCall\r\n        returns (\r\n            Position.Info storage position,\r\n            int256 amount0,\r\n            int256 amount1\r\n        )\r\n    {\r\n        checkTicks(params.tickLower, params.tickUpper);\r\n\r\n        Slot0 memory _slot0 = slot0; // SLOAD for gas optimization\r\n\r\n        position = _updatePosition(\r\n            params.owner,\r\n            params.tickLower,\r\n            params.tickUpper,\r\n            params.liquidityDelta,\r\n            _slot0.tick\r\n        );\r\n\r\n        if (params.liquidityDelta != 0) {\r\n            if (_slot0.tick < params.tickLower) {\r\n                // current tick is below the passed range; liquidity can only become in range by crossing from left to\r\n                // right, when we'll need _more_ token0 (it's becoming more valuable) so user must provide it\r\n                amount0 = SqrtPriceMath.getAmount0Delta(\r\n                    TickMath.getSqrtRatioAtTick(params.tickLower),\r\n                    TickMath.getSqrtRatioAtTick(params.tickUpper),\r\n                    params.liquidityDelta\r\n                );\r\n            } else if (_slot0.tick < params.tickUpper) {\r\n                // current tick is inside the passed range\r\n                uint128 liquidityBefore = liquidity; // SLOAD for gas optimization\r\n\r\n                // write an oracle entry\r\n                (slot0.observationIndex, slot0.observationCardinality) = observations.write(\r\n                    _slot0.observationIndex,\r\n                    _blockTimestamp(),\r\n                    _slot0.tick,\r\n                    liquidityBefore,\r\n                    _slot0.observationCardinality,\r\n                    _slot0.observationCardinalityNext\r\n                );\r\n\r\n                amount0 = SqrtPriceMath.getAmount0Delta(\r\n                    _slot0.sqrtPriceX96,\r\n                    TickMath.getSqrtRatioAtTick(params.tickUpper),\r\n                    params.liquidityDelta\r\n                );\r\n                amount1 = SqrtPriceMath.getAmount1Delta(\r\n                    TickMath.getSqrtRatioAtTick(params.tickLower),\r\n                    _slot0.sqrtPriceX96,\r\n                    params.liquidityDelta\r\n                );\r\n\r\n                liquidity = LiquidityMath.addDelta(liquidityBefore, params.liquidityDelta);\r\n            } else {\r\n                // current tick is above the passed range; liquidity can only become in range by crossing from right to\r\n                // left, when we'll need _more_ token1 (it's becoming more valuable) so user must provide it\r\n                amount1 = SqrtPriceMath.getAmount1Delta(\r\n                    TickMath.getSqrtRatioAtTick(params.tickLower),\r\n                    TickMath.getSqrtRatioAtTick(params.tickUpper),\r\n                    params.liquidityDelta\r\n                );\r\n            }\r\n        }\r\n    }\r\n\r\n    /// @dev Gets and updates a position with the given liquidity delta\r\n    /// @param owner the owner of the position\r\n    /// @param tickLower the lower tick of the position's tick range\r\n    /// @param tickUpper the upper tick of the position's tick range\r\n    /// @param tick the current tick, passed to avoid sloads\r\n    function _updatePosition(\r\n        address owner,\r\n        int24 tickLower,\r\n        int24 tickUpper,\r\n        int128 liquidityDelta,\r\n        int24 tick\r\n    ) private returns (Position.Info storage position) {\r\n        position = positions.get(owner, tickLower, tickUpper);\r\n\r\n        uint256 _feeGrowthGlobal0X128 = feeGrowthGlobal0X128; // SLOAD for gas optimization\r\n        uint256 _feeGrowthGlobal1X128 = feeGrowthGlobal1X128; // SLOAD for gas optimization\r\n\r\n        // if we need to update the ticks, do it\r\n        bool flippedLower;\r\n        bool flippedUpper;\r\n        if (liquidityDelta != 0) {\r\n            uint32 time = _blockTimestamp();\r\n            (int56 tickCumulative, uint160 secondsPerLiquidityCumulativeX128) =\r\n                observations.observeSingle(\r\n                    time,\r\n                    0,\r\n                    slot0.tick,\r\n                    slot0.observationIndex,\r\n                    liquidity,\r\n                    slot0.observationCardinality\r\n                );\r\n\r\n            flippedLower = ticks.update(\r\n                tickLower,\r\n                tick,\r\n                liquidityDelta,\r\n                _feeGrowthGlobal0X128,\r\n                _feeGrowthGlobal1X128,\r\n                secondsPerLiquidityCumulativeX128,\r\n                tickCumulative,\r\n                time,\r\n                false,\r\n                maxLiquidityPerTick\r\n            );\r\n            flippedUpper = ticks.update(\r\n                tickUpper,\r\n                tick,\r\n                liquidityDelta,\r\n                _feeGrowthGlobal0X128,\r\n                _feeGrowthGlobal1X128,\r\n                secondsPerLiquidityCumulativeX128,\r\n                tickCumulative,\r\n                time,\r\n                true,\r\n                maxLiquidityPerTick\r\n            );\r\n\r\n            if (flippedLower) {\r\n                tickBitmap.flipTick(tickLower, tickSpacing);\r\n            }\r\n            if (flippedUpper) {\r\n                tickBitmap.flipTick(tickUpper, tickSpacing);\r\n            }\r\n        }\r\n\r\n        (uint256 feeGrowthInside0X128, uint256 feeGrowthInside1X128) =\r\n            ticks.getFeeGrowthInside(tickLower, tickUpper, tick, _feeGrowthGlobal0X128, _feeGrowthGlobal1X128);\r\n\r\n        position.update(liquidityDelta, feeGrowthInside0X128, feeGrowthInside1X128);\r\n\r\n        // clear any tick data that is no longer needed\r\n        if (liquidityDelta < 0) {\r\n            if (flippedLower) {\r\n                ticks.clear(tickLower);\r\n            }\r\n            if (flippedUpper) {\r\n                ticks.clear(tickUpper);\r\n            }\r\n        }\r\n    }\r\n\r\n    /// @inheritdoc IUniswapV3PoolActions\r\n    /// @dev noDelegateCall is applied indirectly via _modifyPosition\r\n    function mint(\r\n        address recipient,\r\n        int24 tickLower,\r\n        int24 tickUpper,\r\n        uint128 amount,\r\n        bytes calldata data\r\n    ) external override lock returns (uint256 amount0, uint256 amount1) {\r\n        require(amount > 0);\r\n        (, int256 amount0Int, int256 amount1Int) =\r\n            _modifyPosition(\r\n                ModifyPositionParams({\r\n                    owner: recipient,\r\n                    tickLower: tickLower,\r\n                    tickUpper: tickUpper,\r\n                    liquidityDelta: int256(amount).toInt128()\r\n                })\r\n            );\r\n\r\n        amount0 = uint256(amount0Int);\r\n        amount1 = uint256(amount1Int);\r\n\r\n        uint256 balance0Before;\r\n        uint256 balance1Before;\r\n        if (amount0 > 0) balance0Before = balance0();\r\n        if (amount1 > 0) balance1Before = balance1();\r\n        IUniswapV3MintCallback(msg.sender).uniswapV3MintCallback(amount0, amount1, data);\r\n        if (amount0 > 0) require(balance0Before.add(amount0) <= balance0(), 'M0');\r\n        if (amount1 > 0) require(balance1Before.add(amount1) <= balance1(), 'M1');\r\n\r\n        emit Mint(msg.sender, recipient, tickLower, tickUpper, amount, amount0, amount1);\r\n    }\r\n\r\n    /// @inheritdoc IUniswapV3PoolActions\r\n    function collect(\r\n        address recipient,\r\n        int24 tickLower,\r\n        int24 tickUpper,\r\n        uint128 amount0Requested,\r\n        uint128 amount1Requested\r\n    ) external override lock returns (uint128 amount0, uint128 amount1) {\r\n        // we don't need to checkTicks here, because invalid positions will never have non-zero tokensOwed{0,1}\r\n        Position.Info storage position = positions.get(msg.sender, tickLower, tickUpper);\r\n\r\n        amount0 = amount0Requested > position.tokensOwed0 ? position.tokensOwed0 : amount0Requested;\r\n        amount1 = amount1Requested > position.tokensOwed1 ? position.tokensOwed1 : amount1Requested;\r\n\r\n        if (amount0 > 0) {\r\n            position.tokensOwed0 -= amount0;\r\n            TransferHelper.safeTransfer(token0, recipient, amount0);\r\n        }\r\n        if (amount1 > 0) {\r\n            position.tokensOwed1 -= amount1;\r\n            TransferHelper.safeTransfer(token1, recipient, amount1);\r\n        }\r\n\r\n        emit Collect(msg.sender, recipient, tickLower, tickUpper, amount0, amount1);\r\n    }\r\n\r\n    /// @inheritdoc IUniswapV3PoolActions\r\n    /// @dev noDelegateCall is applied indirectly via _modifyPosition\r\n    function burn(\r\n        int24 tickLower,\r\n        int24 tickUpper,\r\n        uint128 amount\r\n    ) external override lock returns (uint256 amount0, uint256 amount1) {\r\n        (Position.Info storage position, int256 amount0Int, int256 amount1Int) =\r\n            _modifyPosition(\r\n                ModifyPositionParams({\r\n                    owner: msg.sender,\r\n                    tickLower: tickLower,\r\n                    tickUpper: tickUpper,\r\n                    liquidityDelta: -int256(amount).toInt128()\r\n                })\r\n            );\r\n\r\n        amount0 = uint256(-amount0Int);\r\n        amount1 = uint256(-amount1Int);\r\n\r\n        if (amount0 > 0 || amount1 > 0) {\r\n            (position.tokensOwed0, position.tokensOwed1) = (\r\n                position.tokensOwed0 + uint128(amount0),\r\n                position.tokensOwed1 + uint128(amount1)\r\n            );\r\n        }\r\n\r\n        emit Burn(msg.sender, tickLower, tickUpper, amount, amount0, amount1);\r\n    }\r\n\r\n    struct SwapCache {\r\n        // the protocol fee for the input token\r\n        uint8 feeProtocol;\r\n        // liquidity at the beginning of the swap\r\n        uint128 liquidityStart;\r\n        // the timestamp of the current block\r\n        uint32 blockTimestamp;\r\n        // the current value of the tick accumulator, computed only if we cross an initialized tick\r\n        int56 tickCumulative;\r\n        // the current value of seconds per liquidity accumulator, computed only if we cross an initialized tick\r\n        uint160 secondsPerLiquidityCumulativeX128;\r\n        // whether we've computed and cached the above two accumulators\r\n        bool computedLatestObservation;\r\n    }\r\n\r\n    // the top level state of the swap, the results of which are recorded in storage at the end\r\n    struct SwapState {\r\n        // the amount remaining to be swapped in/out of the input/output asset\r\n        int256 amountSpecifiedRemaining;\r\n        // the amount already swapped out/in of the output/input asset\r\n        int256 amountCalculated;\r\n        // current sqrt(price)\r\n        uint160 sqrtPriceX96;\r\n        // the tick associated with the current price\r\n        int24 tick;\r\n        // the global fee growth of the input token\r\n        uint256 feeGrowthGlobalX128;\r\n        // amount of input token paid as protocol fee\r\n        uint128 protocolFee;\r\n        // the current liquidity in range\r\n        uint128 liquidity;\r\n    }\r\n\r\n    struct StepComputations {\r\n        // the price at the beginning of the step\r\n        uint160 sqrtPriceStartX96;\r\n        // the next tick to swap to from the current tick in the swap direction\r\n        int24 tickNext;\r\n        // whether tickNext is initialized or not\r\n        bool initialized;\r\n        // sqrt(price) for the next tick (1/0)\r\n        uint160 sqrtPriceNextX96;\r\n        // how much is being swapped in in this step\r\n        uint256 amountIn;\r\n        // how much is being swapped out\r\n        uint256 amountOut;\r\n        // how much fee is being paid in\r\n        uint256 feeAmount;\r\n    }\r\n\r\n    /// @inheritdoc IUniswapV3PoolActions\r\n    function swap(\r\n        address recipient,\r\n        bool zeroForOne,\r\n        int256 amountSpecified,\r\n        uint160 sqrtPriceLimitX96,\r\n        bytes calldata data\r\n    ) external override noDelegateCall returns (int256 amount0, int256 amount1) {\r\n        require(amountSpecified != 0, 'AS');\r\n\r\n        Slot0 memory slot0Start = slot0;\r\n\r\n        require(slot0Start.unlocked, 'LOK');\r\n        require(\r\n            zeroForOne\r\n                ? sqrtPriceLimitX96 < slot0Start.sqrtPriceX96 && sqrtPriceLimitX96 > TickMath.MIN_SQRT_RATIO\r\n                : sqrtPriceLimitX96 > slot0Start.sqrtPriceX96 && sqrtPriceLimitX96 < TickMath.MAX_SQRT_RATIO,\r\n            'SPL'\r\n        );\r\n\r\n        slot0.unlocked = false;\r\n\r\n        SwapCache memory cache =\r\n            SwapCache({\r\n                liquidityStart: liquidity,\r\n                blockTimestamp: _blockTimestamp(),\r\n                feeProtocol: zeroForOne ? (slot0Start.feeProtocol % 16) : (slot0Start.feeProtocol >> 4),\r\n                secondsPerLiquidityCumulativeX128: 0,\r\n                tickCumulative: 0,\r\n                computedLatestObservation: false\r\n            });\r\n\r\n        bool exactInput = amountSpecified > 0;\r\n\r\n        SwapState memory state =\r\n            SwapState({\r\n                amountSpecifiedRemaining: amountSpecified,\r\n                amountCalculated: 0,\r\n                sqrtPriceX96: slot0Start.sqrtPriceX96,\r\n                tick: slot0Start.tick,\r\n                feeGrowthGlobalX128: zeroForOne ? feeGrowthGlobal0X128 : feeGrowthGlobal1X128,\r\n                protocolFee: 0,\r\n                liquidity: cache.liquidityStart\r\n            });\r\n\r\n        // continue swapping as long as we haven't used the entire input/output and haven't reached the price limit\r\n        while (state.amountSpecifiedRemaining != 0 && state.sqrtPriceX96 != sqrtPriceLimitX96) {\r\n            StepComputations memory step;\r\n\r\n            step.sqrtPriceStartX96 = state.sqrtPriceX96;\r\n\r\n            (step.tickNext, step.initialized) = tickBitmap.nextInitializedTickWithinOneWord(\r\n                state.tick,\r\n                tickSpacing,\r\n                zeroForOne\r\n            );\r\n\r\n            // ensure that we do not overshoot the min/max tick, as the tick bitmap is not aware of these bounds\r\n            if (step.tickNext < TickMath.MIN_TICK) {\r\n                step.tickNext = TickMath.MIN_TICK;\r\n            } else if (step.tickNext > TickMath.MAX_TICK) {\r\n                step.tickNext = TickMath.MAX_TICK;\r\n            }\r\n\r\n            // get the price for the next tick\r\n            step.sqrtPriceNextX96 = TickMath.getSqrtRatioAtTick(step.tickNext);\r\n\r\n            // compute values to swap to the target tick, price limit, or point where input/output amount is exhausted\r\n            (state.sqrtPriceX96, step.amountIn, step.amountOut, step.feeAmount) = SwapMath.computeSwapStep(\r\n                state.sqrtPriceX96,\r\n                (zeroForOne ? step.sqrtPriceNextX96 < sqrtPriceLimitX96 : step.sqrtPriceNextX96 > sqrtPriceLimitX96)\r\n                    ? sqrtPriceLimitX96\r\n                    : step.sqrtPriceNextX96,\r\n                state.liquidity,\r\n                state.amountSpecifiedRemaining,\r\n                fee\r\n            );\r\n\r\n            if (exactInput) {\r\n                state.amountSpecifiedRemaining -= (step.amountIn + step.feeAmount).toInt256();\r\n                state.amountCalculated = state.amountCalculated.sub(step.amountOut.toInt256());\r\n            } else {\r\n                state.amountSpecifiedRemaining += step.amountOut.toInt256();\r\n                state.amountCalculated = state.amountCalculated.add((step.amountIn + step.feeAmount).toInt256());\r\n            }\r\n\r\n            // if the protocol fee is on, calculate how much is owed, decrement feeAmount, and increment protocolFee\r\n            if (cache.feeProtocol > 0) {\r\n                uint256 delta = step.feeAmount / cache.feeProtocol;\r\n                step.feeAmount -= delta;\r\n                state.protocolFee += uint128(delta);\r\n            }\r\n\r\n            // update global fee tracker\r\n            if (state.liquidity > 0)\r\n                state.feeGrowthGlobalX128 += FullMath.mulDiv(step.feeAmount, FixedPoint128.Q128, state.liquidity);\r\n\r\n            // shift tick if we reached the next price\r\n            if (state.sqrtPriceX96 == step.sqrtPriceNextX96) {\r\n                // if the tick is initialized, run the tick transition\r\n                if (step.initialized) {\r\n                    // check for the placeholder value, which we replace with the actual value the first time the swap\r\n                    // crosses an initialized tick\r\n                    if (!cache.computedLatestObservation) {\r\n                        (cache.tickCumulative, cache.secondsPerLiquidityCumulativeX128) = observations.observeSingle(\r\n                            cache.blockTimestamp,\r\n                            0,\r\n                            slot0Start.tick,\r\n                            slot0Start.observationIndex,\r\n                            cache.liquidityStart,\r\n                            slot0Start.observationCardinality\r\n                        );\r\n                        cache.computedLatestObservation = true;\r\n                    }\r\n                    int128 liquidityNet =\r\n                        ticks.cross(\r\n                            step.tickNext,\r\n                            (zeroForOne ? state.feeGrowthGlobalX128 : feeGrowthGlobal0X128),\r\n                            (zeroForOne ? feeGrowthGlobal1X128 : state.feeGrowthGlobalX128),\r\n                            cache.secondsPerLiquidityCumulativeX128,\r\n                            cache.tickCumulative,\r\n                            cache.blockTimestamp\r\n                        );\r\n                    // if we're moving leftward, we interpret liquidityNet as the opposite sign\r\n                    // safe because liquidityNet cannot be type(int128).min\r\n                    if (zeroForOne) liquidityNet = -liquidityNet;\r\n\r\n                    state.liquidity = LiquidityMath.addDelta(state.liquidity, liquidityNet);\r\n                }\r\n\r\n                state.tick = zeroForOne ? step.tickNext - 1 : step.tickNext;\r\n            } else if (state.sqrtPriceX96 != step.sqrtPriceStartX96) {\r\n                // recompute unless we're on a lower tick boundary (i.e. already transitioned ticks), and haven't moved\r\n                state.tick = TickMath.getTickAtSqrtRatio(state.sqrtPriceX96);\r\n            }\r\n        }\r\n\r\n        // update tick and write an oracle entry if the tick change\r\n        if (state.tick != slot0Start.tick) {\r\n            (uint16 observationIndex, uint16 observationCardinality) =\r\n                observations.write(\r\n                    slot0Start.observationIndex,\r\n                    cache.blockTimestamp,\r\n                    slot0Start.tick,\r\n                    cache.liquidityStart,\r\n                    slot0Start.observationCardinality,\r\n                    slot0Start.observationCardinalityNext\r\n                );\r\n            (slot0.sqrtPriceX96, slot0.tick, slot0.observationIndex, slot0.observationCardinality) = (\r\n                state.sqrtPriceX96,\r\n                state.tick,\r\n                observationIndex,\r\n                observationCardinality\r\n            );\r\n        } else {\r\n            // otherwise just update the price\r\n            slot0.sqrtPriceX96 = state.sqrtPriceX96;\r\n        }\r\n\r\n        // update liquidity if it changed\r\n        if (cache.liquidityStart != state.liquidity) liquidity = state.liquidity;\r\n\r\n        // update fee growth global and, if necessary, protocol fees\r\n        // overflow is acceptable, protocol has to withdraw before it hits type(uint128).max fees\r\n        if (zeroForOne) {\r\n            feeGrowthGlobal0X128 = state.feeGrowthGlobalX128;\r\n            if (state.protocolFee > 0) protocolFees.token0 += state.protocolFee;\r\n        } else {\r\n            feeGrowthGlobal1X128 = state.feeGrowthGlobalX128;\r\n            if (state.protocolFee > 0) protocolFees.token1 += state.protocolFee;\r\n        }\r\n\r\n        (amount0, amount1) = zeroForOne == exactInput\r\n            ? (amountSpecified - state.amountSpecifiedRemaining, state.amountCalculated)\r\n            : (state.amountCalculated, amountSpecified - state.amountSpecifiedRemaining);\r\n\r\n        // do the transfers and collect payment\r\n        if (zeroForOne) {\r\n            if (amount1 < 0) TransferHelper.safeTransfer(token1, recipient, uint256(-amount1));\r\n\r\n            uint256 balance0Before = balance0();\r\n            IUniswapV3SwapCallback(msg.sender).uniswapV3SwapCallback(amount0, amount1, data);\r\n            require(balance0Before.add(uint256(amount0)) <= balance0(), 'IIA');\r\n        } else {\r\n            if (amount0 < 0) TransferHelper.safeTransfer(token0, recipient, uint256(-amount0));\r\n\r\n            uint256 balance1Before = balance1();\r\n            IUniswapV3SwapCallback(msg.sender).uniswapV3SwapCallback(amount0, amount1, data);\r\n            require(balance1Before.add(uint256(amount1)) <= balance1(), 'IIA');\r\n        }\r\n\r\n        emit Swap(msg.sender, recipient, amount0, amount1, state.sqrtPriceX96, state.liquidity, state.tick);\r\n        slot0.unlocked = true;\r\n    }\r\n\r\n    /// @inheritdoc IUniswapV3PoolActions\r\n    function flash(\r\n        address recipient,\r\n        uint256 amount0,\r\n        uint256 amount1,\r\n        bytes calldata data\r\n    ) external override lock noDelegateCall {\r\n        uint128 _liquidity = liquidity;\r\n        require(_liquidity > 0, 'L');\r\n\r\n        uint256 fee0 = FullMath.mulDivRoundingUp(amount0, fee, 1e6);\r\n        uint256 fee1 = FullMath.mulDivRoundingUp(amount1, fee, 1e6);\r\n        uint256 balance0Before = balance0();\r\n        uint256 balance1Before = balance1();\r\n\r\n        if (amount0 > 0) TransferHelper.safeTransfer(token0, recipient, amount0);\r\n        if (amount1 > 0) TransferHelper.safeTransfer(token1, recipient, amount1);\r\n\r\n        IUniswapV3FlashCallback(msg.sender).uniswapV3FlashCallback(fee0, fee1, data);\r\n\r\n        uint256 balance0After = balance0();\r\n        uint256 balance1After = balance1();\r\n\r\n        require(balance0Before.add(fee0) <= balance0After, 'F0');\r\n        require(balance1Before.add(fee1) <= balance1After, 'F1');\r\n\r\n        // sub is safe because we know balanceAfter is gt balanceBefore by at least fee\r\n        uint256 paid0 = balance0After - balance0Before;\r\n        uint256 paid1 = balance1After - balance1Before;\r\n\r\n        if (paid0 > 0) {\r\n            uint8 feeProtocol0 = slot0.feeProtocol % 16;\r\n            uint256 fees0 = feeProtocol0 == 0 ? 0 : paid0 / feeProtocol0;\r\n            if (uint128(fees0) > 0) protocolFees.token0 += uint128(fees0);\r\n            feeGrowthGlobal0X128 += FullMath.mulDiv(paid0 - fees0, FixedPoint128.Q128, _liquidity);\r\n        }\r\n        if (paid1 > 0) {\r\n            uint8 feeProtocol1 = slot0.feeProtocol >> 4;\r\n            uint256 fees1 = feeProtocol1 == 0 ? 0 : paid1 / feeProtocol1;\r\n            if (uint128(fees1) > 0) protocolFees.token1 += uint128(fees1);\r\n            feeGrowthGlobal1X128 += FullMath.mulDiv(paid1 - fees1, FixedPoint128.Q128, _liquidity);\r\n        }\r\n\r\n        emit Flash(msg.sender, recipient, amount0, amount1, paid0, paid1);\r\n    }\r\n\r\n    /// @inheritdoc IUniswapV3PoolOwnerActions\r\n    function setFeeProtocol(uint8 feeProtocol0, uint8 feeProtocol1) external override lock onlyFactoryOwner {\r\n        require(\r\n            (feeProtocol0 == 0 || (feeProtocol0 >= 4 && feeProtocol0 <= 10)) &&\r\n                (feeProtocol1 == 0 || (feeProtocol1 >= 4 && feeProtocol1 <= 10))\r\n        );\r\n        uint8 feeProtocolOld = slot0.feeProtocol;\r\n        slot0.feeProtocol = feeProtocol0 + (feeProtocol1 << 4);\r\n        emit SetFeeProtocol(feeProtocolOld % 16, feeProtocolOld >> 4, feeProtocol0, feeProtocol1);\r\n    }\r\n\r\n    /// @inheritdoc IUniswapV3PoolOwnerActions\r\n    function collectProtocol(\r\n        address recipient,\r\n        uint128 amount0Requested,\r\n        uint128 amount1Requested\r\n    ) external override lock onlyFactoryOwner returns (uint128 amount0, uint128 amount1) {\r\n        amount0 = amount0Requested > protocolFees.token0 ? protocolFees.token0 : amount0Requested;\r\n        amount1 = amount1Requested > protocolFees.token1 ? protocolFees.token1 : amount1Requested;\r\n\r\n        if (amount0 > 0) {\r\n            if (amount0 == protocolFees.token0) amount0--; // ensure that the slot is not cleared, for gas savings\r\n            protocolFees.token0 -= amount0;\r\n            TransferHelper.safeTransfer(token0, recipient, amount0);\r\n        }\r\n        if (amount1 > 0) {\r\n            if (amount1 == protocolFees.token1) amount1--; // ensure that the slot is not cleared, for gas savings\r\n            protocolFees.token1 -= amount1;\r\n            TransferHelper.safeTransfer(token1, recipient, amount1);\r\n        }\r\n\r\n        emit CollectProtocol(msg.sender, recipient, amount0, amount1);\r\n    }\r\n}",
  "sourcePath": "C:\\Users\\Numan\\Desktop\\Uniswap v3\\contracts\\UniswapV3Pool.sol",
  "compiler": {
    "name": "solc",
    "version": "0.7.6+commit.7338295f.Emscripten.clang"
  },
  "schemaVersion": "3.4.4",
  "updatedAt": "2022-08-13T07:28:44.618Z",
  "devdoc": {
    "kind": "dev",
    "methods": {
      "burn(int24,int24,uint128)": {
        "details": "noDelegateCall is applied indirectly via _modifyPosition",
        "params": {
          "amount": "How much liquidity to burn",
          "tickLower": "The lower tick of the position for which to burn liquidity",
          "tickUpper": "The upper tick of the position for which to burn liquidity"
        },
        "returns": {
          "amount0": "The amount of token0 sent to the recipient",
          "amount1": "The amount of token1 sent to the recipient"
        }
      },
      "collect(address,int24,int24,uint128,uint128)": {
        "details": "Does not recompute fees earned, which must be done either via mint or burn of any amount of liquidity. Collect must be called by the position owner. To withdraw only token0 or only token1, amount0Requested or amount1Requested may be set to zero. To withdraw all tokens owed, caller may pass any value greater than the actual tokens owed, e.g. type(uint128).max. Tokens owed may be from accumulated swap fees or burned liquidity.",
        "params": {
          "amount0Requested": "How much token0 should be withdrawn from the fees owed",
          "amount1Requested": "How much token1 should be withdrawn from the fees owed",
          "recipient": "The address which should receive the fees collected",
          "tickLower": "The lower tick of the position for which to collect fees",
          "tickUpper": "The upper tick of the position for which to collect fees"
        },
        "returns": {
          "amount0": "The amount of fees collected in token0",
          "amount1": "The amount of fees collected in token1"
        }
      },
      "collectProtocol(address,uint128,uint128)": {
        "params": {
          "amount0Requested": "The maximum amount of token0 to send, can be 0 to collect fees in only token1",
          "amount1Requested": "The maximum amount of token1 to send, can be 0 to collect fees in only token0",
          "recipient": "The address to which collected protocol fees should be sent"
        },
        "returns": {
          "amount0": "The protocol fee collected in token0",
          "amount1": "The protocol fee collected in token1"
        }
      },
      "flash(address,uint256,uint256,bytes)": {
        "details": "The caller of this method receives a callback in the form of IUniswapV3FlashCallback#uniswapV3FlashCallbackCan be used to donate underlying tokens pro-rata to currently in-range liquidity providers by calling with 0 amount{0,1} and sending the donation amount(s) from the callback",
        "params": {
          "amount0": "The amount of token0 to send",
          "amount1": "The amount of token1 to send",
          "data": "Any data to be passed through to the callback",
          "recipient": "The address which will receive the token0 and token1 amounts"
        }
      },
      "increaseObservationCardinalityNext(uint16)": {
        "details": "This method is no-op if the pool already has an observationCardinalityNext greater than or equal to the input observationCardinalityNext.",
        "params": {
          "observationCardinalityNext": "The desired minimum number of observations for the pool to store"
        }
      },
      "initialize(uint160)": {
        "details": "not locked because it initializes unlocked",
        "params": {
          "sqrtPriceX96": "the initial sqrt price of the pool as a Q64.96"
        }
      },
      "mint(address,int24,int24,uint128,bytes)": {
        "details": "noDelegateCall is applied indirectly via _modifyPosition",
        "params": {
          "amount": "The amount of liquidity to mint",
          "data": "Any data that should be passed through to the callback",
          "recipient": "The address for which the liquidity will be created",
          "tickLower": "The lower tick of the position in which to add liquidity",
          "tickUpper": "The upper tick of the position in which to add liquidity"
        },
        "returns": {
          "amount0": "The amount of token0 that was paid to mint the given amount of liquidity. Matches the value in the callback",
          "amount1": "The amount of token1 that was paid to mint the given amount of liquidity. Matches the value in the callback"
        }
      },
      "observe(uint32[])": {
        "details": "To get a time weighted average tick or liquidity-in-range, you must call this with two values, one representing the beginning of the period and another for the end of the period. E.g., to get the last hour time-weighted average tick, you must call it with secondsAgos = [3600, 0].The time weighted average tick represents the geometric time weighted average price of the pool, in log base sqrt(1.0001) of token1 / token0. The TickMath library can be used to go from a tick value to a ratio.",
        "params": {
          "secondsAgos": "From how long ago each cumulative tick and liquidity value should be returned"
        },
        "returns": {
          "secondsPerLiquidityCumulativeX128s": "Cumulative seconds per liquidity-in-range value as of each `secondsAgos` from the current block timestamp",
          "tickCumulatives": "Cumulative tick values as of each `secondsAgos` from the current block timestamp"
        }
      },
      "setFeeProtocol(uint8,uint8)": {
        "params": {
          "feeProtocol0": "new protocol fee for token0 of the pool",
          "feeProtocol1": "new protocol fee for token1 of the pool"
        }
      },
      "snapshotCumulativesInside(int24,int24)": {
        "details": "Snapshots must only be compared to other snapshots, taken over a period for which a position existed. I.e., snapshots cannot be compared if a position is not held for the entire period between when the first snapshot is taken and the second snapshot is taken.",
        "params": {
          "tickLower": "The lower tick of the range",
          "tickUpper": "The upper tick of the range"
        },
        "returns": {
          "secondsInside": "The snapshot of seconds per liquidity for the range",
          "secondsPerLiquidityInsideX128": "The snapshot of seconds per liquidity for the range",
          "tickCumulativeInside": "The snapshot of the tick accumulator for the range"
        }
      },
      "swap(address,bool,int256,uint160,bytes)": {
        "details": "The caller of this method receives a callback in the form of IUniswapV3SwapCallback#uniswapV3SwapCallback",
        "params": {
          "amountSpecified": "The amount of the swap, which implicitly configures the swap as exact input (positive), or exact output (negative)",
          "data": "Any data to be passed through to the callback",
          "recipient": "The address to receive the output of the swap",
          "sqrtPriceLimitX96": "The Q64.96 sqrt price limit. If zero for one, the price cannot be less than this value after the swap. If one for zero, the price cannot be greater than this value after the swap",
          "zeroForOne": "The direction of the swap, true for token0 to token1, false for token1 to token0"
        },
        "returns": {
          "amount0": "The delta of the balance of token0 of the pool, exact when negative, minimum when positive",
          "amount1": "The delta of the balance of token1 of the pool, exact when negative, minimum when positive"
        }
      }
    },
    "stateVariables": {
      "factory": {
        "return": "The contract address"
      },
      "fee": {
        "return": "The fee"
      },
      "feeGrowthGlobal0X128": {
        "details": "This value can overflow the uint256"
      },
      "feeGrowthGlobal1X128": {
        "details": "This value can overflow the uint256"
      },
      "liquidity": {
        "details": "This value has no relationship to the total liquidity across all ticks"
      },
      "maxLiquidityPerTick": {
        "details": "This parameter is enforced per tick to prevent liquidity from overflowing a uint128 at any point, and also prevents out-of-range liquidity from being used to prevent adding in-range liquidity to a pool",
        "return": "The max amount of liquidity per tick"
      },
      "observations": {
        "details": "You most likely want to use #observe() instead of this method to get an observation as of some amount of time ago, rather than at a specific index in the array.",
        "params": {
          "index": "The element of the observations array to fetch"
        },
        "return": "blockTimestamp The timestamp of the observation, Returns tickCumulative the tick multiplied by seconds elapsed for the life of the pool as of the observation timestamp, Returns secondsPerLiquidityCumulativeX128 the seconds per in range liquidity for the life of the pool as of the observation timestamp, Returns initialized whether the observation has been initialized and the values are safe to use"
      },
      "positions": {
        "params": {
          "key": "The position's key is a hash of a preimage composed by the owner, tickLower and tickUpper"
        },
        "return": "_liquidity The amount of liquidity in the position, Returns feeGrowthInside0LastX128 fee growth of token0 inside the tick range as of the last mint/burn/poke, Returns feeGrowthInside1LastX128 fee growth of token1 inside the tick range as of the last mint/burn/poke, Returns tokensOwed0 the computed amount of token0 owed to the position as of the last mint/burn/poke, Returns tokensOwed1 the computed amount of token1 owed to the position as of the last mint/burn/poke"
      },
      "protocolFees": {
        "details": "Protocol fees will never exceed uint128 max in either token"
      },
      "slot0": {
        "return": "sqrtPriceX96 The current price of the pool as a sqrt(token1/token0) Q64.96 value tick The current tick of the pool, i.e. according to the last tick transition that was run. This value may not always be equal to SqrtTickMath.getTickAtSqrtRatio(sqrtPriceX96) if the price is on a tick boundary. observationIndex The index of the last oracle observation that was written, observationCardinality The current maximum number of observations stored in the pool, observationCardinalityNext The next maximum number of observations, to be updated when the observation. feeProtocol The protocol fee for both tokens of the pool. Encoded as two 4 bit values, where the protocol fee of token1 is shifted 4 bits and the protocol fee of token0 is the lower 4 bits. Used as the denominator of a fraction of the swap fee, e.g. 4 means 1/4th of the swap fee. unlocked Whether the pool is currently locked to reentrancy"
      },
      "tickSpacing": {
        "details": "Ticks can only be used at multiples of this value, minimum of 1 and always positive e.g.: a tickSpacing of 3 means ticks can be initialized every 3rd tick, i.e., ..., -6, -3, 0, 3, 6, ... This value is an int24 to avoid casting even though it is always positive.",
        "return": "The tick spacing"
      },
      "ticks": {
        "params": {
          "tick": "The tick to look up"
        },
        "return": "liquidityGross the total amount of position liquidity that uses the pool either as tick lower or tick upper, liquidityNet how much liquidity changes when the pool price crosses the tick, feeGrowthOutside0X128 the fee growth on the other side of the tick from the current tick in token0, feeGrowthOutside1X128 the fee growth on the other side of the tick from the current tick in token1, tickCumulativeOutside the cumulative tick value on the other side of the tick from the current tick secondsPerLiquidityOutsideX128 the seconds spent per liquidity on the other side of the tick from the current tick, secondsOutside the seconds spent on the other side of the tick from the current tick, initialized Set to true if the tick is initialized, i.e. liquidityGross is greater than 0, otherwise equal to false. Outside values can only be used if the tick is initialized, i.e. if liquidityGross is greater than 0. In addition, these values are only relative and must be used only in comparison to previous snapshots for a specific position."
      },
      "token0": {
        "return": "The token contract address"
      },
      "token1": {
        "return": "The token contract address"
      }
    },
    "version": 1
  },
  "userdoc": {
    "events": {
      "Burn(address,int24,int24,uint128,uint256,uint256)": {
        "notice": "Emitted when a position's liquidity is removed"
      },
      "Collect(address,address,int24,int24,uint128,uint128)": {
        "notice": "Emitted when fees are collected by the owner of a position"
      },
      "CollectProtocol(address,address,uint128,uint128)": {
        "notice": "Emitted when the collected protocol fees are withdrawn by the factory owner"
      },
      "Flash(address,address,uint256,uint256,uint256,uint256)": {
        "notice": "Emitted by the pool for any flashes of token0/token1"
      },
      "IncreaseObservationCardinalityNext(uint16,uint16)": {
        "notice": "Emitted by the pool for increases to the number of observations that can be stored"
      },
      "Initialize(uint160,int24)": {
        "notice": "Emitted exactly once by a pool when #initialize is first called on the pool"
      },
      "Mint(address,address,int24,int24,uint128,uint256,uint256)": {
        "notice": "Emitted when liquidity is minted for a given position"
      },
      "SetFeeProtocol(uint8,uint8,uint8,uint8)": {
        "notice": "Emitted when the protocol fee is changed by the pool"
      },
      "Swap(address,address,int256,int256,uint160,uint128,int24)": {
        "notice": "Emitted by the pool for any swaps between token0 and token1"
      }
    },
    "kind": "user",
    "methods": {
      "burn(int24,int24,uint128)": {
        "notice": "Burn liquidity from the sender and account tokens owed for the liquidity to the position"
      },
      "collect(address,int24,int24,uint128,uint128)": {
        "notice": "Collects tokens owed to a position"
      },
      "collectProtocol(address,uint128,uint128)": {
        "notice": "Collect the protocol fee accrued to the pool"
      },
      "factory()": {
        "notice": "The contract that deployed the pool, which must adhere to the IUniswapV3Factory interface"
      },
      "fee()": {
        "notice": "The pool's fee in hundredths of a bip, i.e. 1e-6"
      },
      "feeGrowthGlobal0X128()": {
        "notice": "The fee growth as a Q128.128 fees of token0 collected per unit of liquidity for the entire life of the pool"
      },
      "feeGrowthGlobal1X128()": {
        "notice": "The fee growth as a Q128.128 fees of token1 collected per unit of liquidity for the entire life of the pool"
      },
      "flash(address,uint256,uint256,bytes)": {
        "notice": "Receive token0 and/or token1 and pay it back, plus a fee, in the callback"
      },
      "increaseObservationCardinalityNext(uint16)": {
        "notice": "Increase the maximum number of price and liquidity observations that this pool will store"
      },
      "initialize(uint160)": {
        "notice": "Sets the initial price for the pool"
      },
      "liquidity()": {
        "notice": "The currently in range liquidity available to the pool"
      },
      "maxLiquidityPerTick()": {
        "notice": "The maximum amount of position liquidity that can use any tick in the range"
      },
      "mint(address,int24,int24,uint128,bytes)": {
        "notice": "Adds liquidity for the given recipient/tickLower/tickUpper position"
      },
      "observations(uint256)": {
        "notice": "Returns data about a specific observation index"
      },
      "observe(uint32[])": {
        "notice": "Returns the cumulative tick and liquidity as of each timestamp `secondsAgo` from the current block timestamp"
      },
      "positions(bytes32)": {
        "notice": "Returns the information about a position by the position's key"
      },
      "protocolFees()": {
        "notice": "The amounts of token0 and token1 that are owed to the protocol"
      },
      "setFeeProtocol(uint8,uint8)": {
        "notice": "Set the denominator of the protocol's % share of the fees"
      },
      "slot0()": {
        "notice": "The 0th storage slot in the pool stores many values, and is exposed as a single method to save gas when accessed externally."
      },
      "snapshotCumulativesInside(int24,int24)": {
        "notice": "Returns a snapshot of the tick cumulative, seconds per liquidity and seconds inside a tick range"
      },
      "swap(address,bool,int256,uint160,bytes)": {
        "notice": "Swap token0 for token1, or token1 for token0"
      },
      "tickBitmap(int16)": {
        "notice": "Returns 256 packed tick initialized boolean values. See TickBitmap for more information"
      },
      "tickSpacing()": {
        "notice": "The pool tick spacing"
      },
      "ticks(int24)": {
        "notice": "Look up information about a specific tick in the pool"
      },
      "token0()": {
        "notice": "The first of the two tokens of the pool, sorted by address"
      },
      "token1()": {
        "notice": "The second of the two tokens of the pool, sorted by address"
      }
    },
    "version": 1
  }
}